:020000040800F2
:1000000000000220A9980008599700085B97000893
:100010005D9700085F9700086197000800000000E6
:100020000000000000000000000000003182000815
:100030006397000800000000D182000835830008A3
:10004000F9980008F9980008F9980008F99800084C
:10005000F9980008F9980008F9980008F99800083C
:10006000F9980008F9980008F9980008F99800082C
:10007000F9980008F9980008F9980008F99800081C
:10008000F9980008F9980008F9980008F99800080C
:10009000F9980008F9980008F9980008F9980008FC
:1000A000F998000865970008F9980008F998000881
:1000B000F9980008F9980008F9980008F9980008DC
:1000C000F9980008F9980008F9980008F9980008CC
:1000D000F9980008F9980008F9980008F9980008BC
:1000E000F9980008F9980008F9980008F9980008AC
:1000F000F9980008F9980008F9980008F99800089C
:10010000F998000875970008F9980008F998000810
:10011000F9980008F9980008F9980008F99800087B
:1001200085970008F9980008F99800089597000845
:10013000F99800080000000000000000F99800088D
:10014000F9980008F9980008F9980008F99800084B
:10015000F9980008A5970008F9980008F998000890
:10016000F9980008F9980008F9980008F99800082B
:10017000F9980008F9980008F998000800000000B4
:1001800000000000F99800080000000000000000D6
:10019000F99800080000000000000000F99800082D
:1001A000000000000000000000000000F9980008B6
:1001B000F9980008F9980008F9980008F9980008DB
:0401C000F9980008A2
:1001D00010B5054C237833B9044B13B10448AFF381
:1001E00000800123237010BD880000200000000063
:1001F00050A2000808B5034B1BB103490348AFF3F5
:10020000008008BD000000008C00002050A2000803
:1002100081F0004102E000BF83F0004330B54FEAB7
:1002200041044FEA430594EA050F08BF90EA020F24
:100230001FBF54EA000C55EA020C7FEA645C7FEAB7
:10024000655C00F0E2804FEA5454D4EB5555B8BFDA
:100250006D420CDD2C4480EA020281EA030382EA4B
:10026000000083EA010180EA020281EA0303362DDD
:1002700088BF30BD11F0004F4FEA01314FF4801CB0
:100280004CEA113102D0404261EB410113F0004FC2
:100290004FEA03334CEA133302D0524263EB430379
:1002A00094EA050F00F0A780A4F10104D5F1200E17
:1002B0000DDB02FA0EFC22FA05F2801841F1000172
:1002C00003FA0EF2801843FA05F359410EE0A5F146
:1002D00020050EF1200E012A03FA0EFC28BF4CF077
:1002E000020C43FA05F3C01851EBE37101F000452D
:1002F00007D54FF0000EDCF1000C7EEB00006EEB3A
:100300000101B1F5801F1BD3B1F5001F0CD34908C3
:100310005FEA30004FEA3C0C04F101044FEA44521A
:1003200012F5800F80F09A80BCF1004F08BF5FEAA1
:10033000500C50F1000041EB045141EA050130BD81
:100340005FEA4C0C404141EB010111F4801FA4F124
:100350000104E9D191F0000F04BF01460020B1FA79
:1003600081F308BF2033A3F10B03B3F120020CDAB1
:100370000C3208DD02F1140CC2F10C0201FA0CF08F
:1003800021FA02F10CE002F11402D8BFC2F1200CF4
:1003900001FA02F120FA0CFCDCBF41EA0C019040AA
:1003A000E41AA2BF01EB0451294330BD6FEA0404F3
:1003B0001F3C1CDA0C340EDC04F11404C4F12002DE
:1003C00020FA04F001FA02F340EA030021FA04F3F0
:1003D00045EA030130BDC4F10C04C4F1200220FA47
:1003E00002F001FA04F340EA0300294630BD21FA85
:1003F00004F0294630BD94F0000F83F4801306BF4B
:1004000081F480110134013D4EE77FEA645C18BF3E
:100410007FEA655C29D094EA050F08BF90EA020FD5
:1004200005D054EA000C04BF1946104630BD91EACD
:10043000030F1EBF0021002030BD5FEA545C05D1D0
:100440004000494128BF41F0004130BD14F580040F
:100450003CBF01F5801130BD01F0004545F0FE4183
:1004600041F470014FF0000030BD7FEA645C1ABFB8
:10047000194610467FEA655C1CBF0B46024650EAEF
:10048000013406BF52EA033591EA030F41F400211B
:1004900030BD00BF90F0000F04BF0021704730B5A1
:1004A0004FF4806404F132044FF000054FF0000176
:1004B00050E700BF90F0000F04BF0021704730B537
:1004C0004FF4806404F1320410F0004548BF40420C
:1004D0004FF000013EE700BF42004FEAE2014FEA61
:1004E00031014FEA02701FBF12F07F4393F07F4F3C
:1004F00081F06051704732F07F4208BF704793F03F
:100500007F4F04BF41F40021704730B54FF4607451
:1005100001F0004521F000411CE700BF50EA010254
:1005200008BF704730B54FF000050AE050EA0102FD
:1005300008BF704730B511F0004502D5404261EB6D
:1005400041014FF4806404F132045FEA915C3FF4AE
:10055000D8AE4FF003025FEADC0C18BF03325FEA4B
:10056000DC0C18BF033202EBDC02C2F1200300FAFC
:1005700003FC20FA02F001FA03FE40EA0E0021FA21
:1005800002F11444BDE600BF70B54FF0FF0C4CF40F
:10059000E06C1CEA11541DBF1CEA135594EA0C0FC1
:1005A00095EA0C0F00F0DEF82C4481EA030621EAFC
:1005B0004C5123EA4C5350EA013518BF52EA033537
:1005C00041F4801143F4801338D0A0FB02CE4FF0E9
:1005D0000005E1FB02E506F00042E0FB03E54FF019
:1005E0000006E1FB03569CF0000F18BF4EF0010E11
:1005F000A4F1FF04B6F5007F64F5407404D25FEA0D
:100600004E0E6D4146EB060642EAC62141EA5551BF
:100610004FEAC52040EA5E504FEACE2EB4F1FD0C01
:1006200088BFBCF5E06F1ED8BEF1004F08BF5FEA7F
:10063000500E50F1000041EB045170BD06F0004631
:1006400046EA010140EA020081EA0301B4EB5C04DE
:10065000C2BFD4EB0C0541EA045170BD41F48011D6
:100660004FF0000E013C00F3AB8014F1360FDEBFFB
:10067000002001F0004170BDC4F10004203C35DAD7
:100680000C341BDC04F11404C4F1200500FA05F35A
:1006900020FA04F001FA05F240EA020001F00042FB
:1006A00021F0004110EBD37021FA04F642EB060171
:1006B0005EEA430E08BF20EAD37070BDC4F10C049B
:1006C000C4F1200500FA04F320FA05F001FA04F25F
:1006D00040EA020001F0004110EBD37041F100014B
:1006E0005EEA430E08BF20EAD37070BDC4F1200556
:1006F00000FA05F24EEA020E20FA04F301FA05F2BE
:1007000043EA020321FA04F001F0004121FA04F265
:1007100020EA020000EBD3705EEA430E08BF20EA35
:10072000D37070BD94F0000F0FD101F0004640006F
:1007300041EB010111F4801F08BF013CF7D041EAF1
:10074000060195F0000F18BF704703F000465200F5
:1007500043EB030313F4801F08BF013DF7D043EAC6
:100760000603704794EA0C0F0CEA135518BF95EA7C
:100770000C0F0CD050EA410618BF52EA4306D1D103
:1007800081EA030101F000414FF0000070BD50EA22
:10079000410606BF1046194652EA430619D094EAAC
:1007A0000C0F02D150EA013613D195EA0C0F05D196
:1007B00052EA03361CBF104619460AD181EA0301EA
:1007C00001F0004141F0FE4141F470014FF00000A2
:1007D00070BD41F0FE4141F4780170BD70B54FF03D
:1007E000FF0C4CF4E06C1CEA11541DBF1CEA1355BD
:1007F00094EA0C0F95EA0C0F00F0A7F8A4EB05049F
:1008000081EA030E52EA03354FEA013100F0888095
:100810004FEA03334FF0805545EA131343EA12635E
:100820004FEA022245EA111545EA10654FEA002613
:100830000EF000419D4208BF964244F1FD0404F5CC
:10084000407402D25B084FEA3202B61A65EB030528
:100850005B084FEA32024FF480104FF4002CB6EBE5
:10086000020E75EB030E22BFB61A754640EA0C0065
:100870005B084FEA3202B6EB020E75EB030E22BFA5
:10088000B61A754640EA5C005B084FEA3202B6EBE6
:10089000020E75EB030E22BFB61A754640EA9C00A5
:1008A0005B084FEA3202B6EB020E75EB030E22BF75
:1008B000B61A754640EADC0055EA060E18D04FEA33
:1008C000051545EA16754FEA06164FEAC30343EAD3
:1008D00052734FEAC2025FEA1C1CC0D111F4801FA0
:1008E0000BD141EA00014FF000004FF0004CB6E799
:1008F00011F4801F04BF01430020B4F1FD0C88BF38
:10090000BCF5E06F3FF6AFAEB5EB030C04BFB6EB42
:10091000020C5FEA500C50F1000041EB045170BD35
:100920000EF0004E4EEA113114EB5C04C2BFD4EB62
:100930000C0541EA045170BD41F480114FF0000EE6
:10094000013C90E645EA060E8DE60CEA135594EA62
:100950000C0F08BF95EA0C0F3FF43BAF94EA0C0F65
:100960000AD150EA01347FF434AF95EA0C0F7FF4DA
:1009700025AF104619462CE795EA0C0F06D152EA2E
:1009800003353FF4FDAE1046194622E750EA410612
:1009900018BF52EA43067FF4C5AE50EA41047FF423
:1009A0000DAF52EA43057FF4EBAE12E753B94AB9F3
:1009B000002908BF00281CBF4FF0FF314FF0FF3067
:1009C00000F072B9ADF1080C6DE904CE00F006F844
:1009D000DDF804E0DDE9022304B070472DE9F047BB
:1009E000089E04468846002B4BD18A42154667D99B
:1009F000B2FA82F24AB1C2F1200701FA02F320FAF8
:100A000007F7954047EA030894404FEA154E230C38
:100A1000B8FBFEF71FFA85FC0EFB178843EA084374
:100A200007FB0CF1994209D9EB1807F1FF3080F070
:100A30001B81994240F21881023F2B445B1AA4B2F9
:100A4000B3FBFEF00EFB103344EA034400FB0CFC46
:100A5000A44509D92C1900F1FF3380F00781A44582
:100A600040F2048102382C4440EA0740A4EB0C0415
:100A700000271EB1D4400023C6E900433946BDE833
:100A8000F0878B4209D9002E00F0EB800027C6E9E1
:100A9000000138463946BDE8F087B3FA83F7002FE6
:100AA00047D18B4202D3824200F2FA80841A61EB72
:100AB000030301209846002EE0D0C6E90048DDE798
:100AC00002B9FFDEB2FA82F2002A40F08F80491BA1
:100AD0004FEA154E1FFA85F80127B1FBFEFC230CE7
:100AE0000EFB1C1143EA014308FB0CF1994207D9A4
:100AF000EB180CF1FF3002D2994200F2CD8084460F
:100B0000591AA3B2B1FBFEF00EFB101443EA0444E1
:100B100008FB00F8A04507D92C1900F1FF3302D2D9
:100B2000A04500F2B6801846A4EB080440EA0C4049
:100B30009FE7C7F1200CBB4022FA0CFE4EEA030EE1
:100B400001FA07F420FA0CF521FA0CF34FEA1E48DB
:100B50002543B3FBF8F92C0C08FB19331FFA8EFA66
:100B600044EA034309FB0AF49C4202FA07F200FA42
:100B700007F10BD91EEB030309F1FF3080F08780EA
:100B80009C4240F28480A9F1020973441B1BADB260
:100B9000B3FBF8F008FB103345EA034400FB0AFA04
:100BA000A24508D91EEB040400F1FF336BD2A24525
:100BB00069D90238744440EA0940A0FB0289A4EBD9
:100BC0000A044C45C2464B4654D351D0002E69D03E
:100BD000B1EB0A0564EB030404FA0CFCFD40FC4095
:100BE0004CEA0505C6E90054002747E7C2F1200397
:100BF00020FA03F7954001FA02F021FA03F34FEAD5
:100C0000154E3843010CB3FBFEF71FFA85F80EFBB7
:100C1000173341EA034107FB08F38B4204FA02F45D
:100C200007D9691807F1FF3C2FD28B422DD9023F1B
:100C30002944CB1A81B2B3FBFEF00EFB103341EA1C
:100C4000034100FB08F38B4207D9691800F1FF3C10
:100C500017D28B4215D902382944C91A40EA0747EE
:100C60003BE73746304609E70746E7E61846FBE626
:100C70004145ABD2B8EB020A69EB0E0201381346CC
:100C8000A4E76046E9E7184695E76746D1E781465D
:100C90007CE702382C4447E7ACF1020C2B442FE7E9
:100CA000384608E73746E9E6704700BF034613F8C1
:100CB000012B002AFBD1181A0138704700000000F0
:100CC00001F0FF01102A2BDB10F0070F08D010F8FD
:100CD000013B013A8B422DD010F0070F42B3F6D101
:100CE000F0B441EA012141EA014122F007047FF01A
:100CF00000070023F0E80256083C85EA010586EA71
:100D0000010685FA47F5A3FA87F586FA47F6A5FAAC
:100D100087F68EB9EED1F0BC01F0FF0102F00702B8
:100D200032B110F8013B013A83EA010313B1F8D163
:100D30000020704701387047002D06BF3546033844
:100D4000073815F0010F07D1013015F4807F02BF7D
:100D5000013015F4C03F0130F0BC0138704700BFCE
:100D600008B50B4B1A6842F400721A601A6842F414
:100D700080621A601A6842F480721A60032000F0E0
:100D80006DFA0F2008F09EFC08F07AFC002008BDE8
:100D9000003C0240034A1168034B1B780B4413606C
:100DA000704700BF8865002000000020014B1868D4
:100DB000704700BF8865002038B50446FFF7F6FF8E
:100DC0000546B4F1FF3F02D0044B1B781C44FFF7EB
:100DD000EDFF401BA042FAD338BD00BF0000002049
:100DE0004A4B5A6822F440325A605A6841680A43B2
:100DF0005A600268536823F4807353600268536832
:100E0000016943EA012353600268536823F0407389
:100E100053600268536881680B43536002689368AB
:100E200023F40063936002689368C1680B43936086
:100E3000826A374B9A424BD00268936823F0706302
:100E4000936002689368816A0B43936002689368B9
:100E500023F04053936002689368C16A0B43936028
:100E60000268936823F00203936002689368017E2E
:100E700043EA4103936090F82030002B33D102689D
:100E8000536823F4006353600268D36A23F4700349
:100E9000D3620168CB6AC269013A43EA0253CB626A
:100EA0000268936823F4007393600268936890F873
:100EB000301043EA412393600268936823F480630F
:100EC000936002689368416943EA812393607047A5
:100ED0000268936823F0706393600268936823F05C
:100EE00040539360BCE70268536843F40063536067
:100EF0000268536823F46043536001684B68426A98
:100F0000013A43EA42334B60BEE700BF0023014091
:100F10000100000F38B310B50446036C43B1236CD5
:100F200013F0100F0BD00120002384F83C3010BDCB
:100F300007F0E6FC0023636484F83C30EFE7236CA1
:100F400023F4885323F0020343F002032364204672
:100F5000FFF746FF00206064236C23F0030343F097
:100F600001032364E0E701207047000030B482B041
:100F70000023019390F83C30012B00F0BD80012349
:100F800080F83C300B68092B3ED90568EA689BB2B3
:100F900003EB43031E3B072404FA03F322EA030393
:100FA000EB600568EA688C680B8803EB43031E3B23
:100FB00004FA03F31343EB604B68062B3AD8056839
:100FC0006A6B03EB8303053B1F2404FA03F322EA55
:100FD00003036B6305686A6B4B6803EB8303053B94
:100FE0000C8804FA03F313436B630268434B9A4281
:100FF00050D00268414B9A4259D0002380F83C30CF
:10100000184602B030BC704705682A699BB203EBF2
:101010004303072404FA03F322EA03032B61056860
:101020002A698C680B8803EB430304FA03F3134328
:101030002B61C1E70C2B16D805682A6B03EB8303E1
:10104000233B1F2404FA03F322EA03032B630568FE
:101050002A6B4B6803EB8303233B0C8804FA03F3EE
:1010600013432B63C1E70568EA6A03EB8303413B43
:101070001F2404FA03F322EA0303EB620568EA6A19
:101080004B6803EB8303413B0C8804FA03F31343DF
:10109000EB62AAE70B68122BABD1194B5A6822F40A
:1010A00000025A605A6842F480025A60A1E70B6855
:1010B000144A934201D0112B9FD1114B5A6822F44C
:1010C00080025A605A6842F400025A600A680D4B66
:1010D0009A4292D10C4B1B680C4AA2FB03239B0C37
:1010E00003EB83035A00019202E0019B013B019351
:1010F000019B002BF9D180E7022082E7002001400C
:1011000000230140120000101C00002083DE1B435E
:10111000002800F0A18038B5044690F82030D3B103
:101120002268136843F001031360FFF73FFE054692
:1011300023685A6812F0010F10D1FFF737FE401BE9
:101140000A28F5D9636A43F400336362052384F8FF
:101150002030012038BD07F0CDFCE1E71A6822F00D
:1011600002021A60FFF722FE054623685A6812F051
:10117000020F0DD0FFF71AFE401B0A28F5D9636A4B
:1011800043F400336362052384F820300120E1E753
:10119000227E012A3DD01A6822F080021A60637E06
:1011A000012B3BD02268136823F040031360A37E19
:1011B000012B39D02268136823F020031360E37EEB
:1011C000012B37D02268136843F010031360237F8C
:1011D000012B35D02268136823F008031360637F66
:1011E000012B33D02268136823F004031360A36833
:1011F000E268134322691343626913436268013A48
:1012000021681343CB6100206062012384F8203001
:10121000A0E71A6842F080021A60C0E722681368EB
:1012200043F040031360C2E72268136843F02003D1
:101230001360C4E72268136823F010031360C6E745
:101240002268136843F008031360C8E72268136834
:1012500043F004031360CAE701207047074AD368CC
:1012600023F4E0631B041B0C000200F4E06018434D
:1012700040F0BF6040F40030D060704700ED00E007
:1012800030B4174BDB68C3F30223C3F10704042C0B
:1012900028BF04241D1D062D18D9033B4FF0FF3530
:1012A00005FA04F421EA0401994005FA03F322EA5D
:1012B0000303194300280BDB0901C9B200F16040A8
:1012C00000F5614080F8001330BC70470023E5E76B
:1012D00000F00F000901C9B2024B1954F4E700BF36
:1012E00000ED00E014ED00E0002807DB00F01F0235
:1012F000400901239340024A42F82030704700BF62
:1013000000E100E030B405682C6824F480242C60EF
:10131000046863608368402B05D0036899600368A4
:10132000DA6030BC704703689A600368D960F8E7F8
:101330000268D3B2103B0B49A1FB03131B090A49F6
:10134000C95CC165032B06D822F47F7222F0030228
:101350008265806D704722F47F7222F003020432AE
:101360008265F6E7ABAAAAAA68A20008836A826926
:1013700092B9012B0AD01BB1022B01D0002070477B
:10138000C36A13F0807F2CD100207047C36AB3F189
:10139000C07F28D000207047B2F5005F05D0022B37
:1013A00029D9032B15D000207047032B03D8DFE881
:1013B00003F01C041C0A00207047C36A13F0807FEE
:1013C00015D100207047C36AB3F1C07F11D000204F
:1013D0007047C36A13F0807F01D00120704700205E
:1013E000704701207047012070470120704701209D
:1013F00070470120704701207047000070B5044617
:10140000FFF7D4FC002C5BD00546022384F835306E
:10141000002384F834302268136823F0010313603A
:1014200023681A6812F0010F0AD0FFF7BFFC401BB7
:101430000528F5D920236365032084F8350070BDA5
:101440001A68204810406168A2680A43E1680A43AC
:1014500021690A4361690A43A1690A43E1690A43B0
:10146000216A0A430243616A04291ED01A60266871
:10147000756925F00705636A1D43042B07D1A36A2C
:101480001D43E36A1BB12046FFF770FF90B97561F9
:101490002046FFF74DFFE26D3F239340836000201D
:1014A0006065012384F83530C9E7E16A206B0143A8
:1014B0000A43DBE740236365012084F83500BEE77B
:1014C0000120BCE73F8010F038B5856D90F83440BE
:1014D000012C2CD0012480F8344090F83540E4B23F
:1014E000012C04D0002380F83430022038BD04469B
:1014F000022084F83500002060652046FFF702FFD7
:10150000E26D3F239340AB602268136843F01603FB
:101510001360236C23B12268136843F0080313603F
:101520002268136843F0010313600020DEE7022005
:10153000DCE790F83530DBB2022B03D08023436523
:1015400001207047052380F835300268136823F0C6
:101550000103136000207047F0B583B004460023F8
:101560000193724B1D68724BA3FB0535AD0A876D65
:101570003E68C26D08239340334210D003681A6856
:1015800012F0040F0BD01A6822F004021A60C26D28
:1015900008239340BB60436D43F001034365E26D54
:1015A00001239340334209D02268526912F0800F20
:1015B00004D0BB60636D43F002036365E26D0423F6
:1015C0009340334209D02268126812F0020F04D00F
:1015D000BB60636D43F004036365E26D10239340C9
:1015E000334224D02268126812F0080F1FD0BB606B
:1015F00023681A6812F4802F0DD01B6813F4002F93
:1016000004D1236C9BB12046984710E0A36C73B1C2
:10161000204698470BE01A6812F4807F03D11A68BD
:1016200022F008021A60236C0BB120469847E26D45
:1016300020239340334255D02268126812F0100FD5
:1016400050D0BB6094F83530DBB2052B0ED0236848
:101650001A6812F4802F33D01B6813F4002F2AD19C
:10166000636C002B3ED0204698473BE0226813680D
:1016700023F0160313602268536923F0800353613B
:10168000236CA3B12268136823F008031360E26D92
:101690003F239340BB60012384F83530002384F856
:1016A0003430236D002B3FD0204698473CE0A36C9C
:1016B000002BE7D1EBE7E36BA3B12046984711E09D
:1016C0001A6812F4807F09D11A6822F010021A6099
:1016D000012384F83530002384F83430E36B0BB1F8
:1016E00020469847636DFBB1636D13F0010F17D06F
:1016F000052384F835302268136823F00103136052
:10170000019B01330193AB4204D823681B6813F09B
:10171000010FF5D1012384F83530002384F83430EB
:10172000E36C0BB12046984703B0F0BD1C000020CD
:10173000B5814E1B406D704700230F2B00F2D68001
:10174000F0B482B05DE086685F000324BC4026EA06
:101750000406CC68BC4034438460466826EA02062E
:101760004C68C4F300129A403243426056E0DC08F1
:10177000083450F8247003F0070296000F22B2409C
:1017800027EA02070A69B2403A4340F8242059E0A8
:10179000062200E00022B2403A430234544E46F89A
:1017A0002420544A9468EA4302EA04064F6817F476
:1017B000801F01D045EA04064E4CA660E46802EAA8
:1017C00004064F6817F4001F01D045EA0406494C8F
:1017D000E660646802EA04064F6817F4003F01D02F
:1017E00045EA0406434C6660246822404E6816F4BD
:1017F000803F01D045EA04023E4C226001330F2BAA
:1018000071D801229A400C6804EA0205AA42F5D177
:101810004C6804F00304013C012C94D94A6802F09E
:101820000302032A09D0C4685E000322B24024EAFE
:1018300002048A68B2402243C2604A6802F003028E
:10184000022A94D004685E000322B24024EA020413
:101850004A6802F00302B240224302604A6812F46E
:10186000403FCBD000220192234A546C44F4804480
:101870005464526C02F480420192019A9C08A61CA6
:101880001B4A52F8267003F0030296000F22B24062
:1018900027EA0207194A90423FF47CAF02F58062C2
:1018A000904216D002F58062904214D002F5806218
:1018B000904212D002F58062904210D002F5806210
:1018C00090420ED002F5806290423FF461AF072251
:1018D00061E701225FE702225DE703225BE7042262
:1018E00059E7052257E702B0F0BC7047704700BFC8
:1018F00000380140003C0140003802400000024036
:101900000369194201D1002070470120704700008F
:10191000002800F09E8070B50446504B1B6803F011
:101920000F038B4209D2CBB24C4A1370136803F0F9
:101930000F038B4201D0012070BD236813F0020F0A
:1019400017D013F0040F04D0454A936843F4E053D2
:101950009360236813F0080F04D0414A936843F45E
:10196000604393603E4A936823F0F003A06803430A
:1019700093600D46236813F0010F32D06368012B8A
:1019800021D09A1E012A25D9354A126812F0020F79
:1019900061D033498A6822F0030213438B60FFF75A
:1019A00005FA06462E4B9B6803F00C036268B3EB06
:1019B000820F16D0FFF7FAF9801B41F28833984264
:1019C000F0D90320B8E7264A126812F4003FE0D1AC
:1019D0000120B1E7224A126812F0007FD9D101201C
:1019E000AAE71E4B1B6803F00F03AB4209D9EAB20A
:1019F0001A4B1A701B6803F00F03AB4201D0012091
:101A00009AE7236813F0040F06D0154A936823F46D
:101A1000E053E1680B439360236813F0080F07D08D
:101A20000F4A936823F46043216943EAC10393603A
:101A300000F0A0FA0A4B9B68C3F30313094AD35C76
:101A4000D840094B1860094B186807F03BFE00208E
:101A500072E70120704701206EE700BF003C0240A2
:101A6000003802401CA700081C00002004000020D1
:101A7000014B1868704700BF1C00002008B5FFF735
:101A8000F7FF044B9B68C3F38223034AD35CD8401F
:101A900008BD00BF003802402CA7000808B5FFF7BA
:101AA000E7FF044B9B68C3F34233034AD35CD8403F
:101AB00008BD00BF003802402CA700080F230360B8
:101AC0000B4B9A6802F0030242609A6802F0F0023F
:101AD00082609A6802F4E052C2609B68DB0803F4FB
:101AE000E0530361034B1B6803F00F030B60704767
:101AF00000380240003C0240F0B583B00446036861
:101B000013F0010F0CD0964AD2F88C3023F0C0634A
:101B1000816B0B43C2F88C30836B3BB3002600E033
:101B20000026236813F0020F0BD08D4AD2F88C30B8
:101B300023F0C053E16B0B43C2F88C30E36B03B965
:101B40000126236813F0040F14D0854AD2F88C3094
:101B500023F44013216B0B43C2F88C30236BB3F595
:101B6000801F05D0002B7BD0002504E00126D8E79C
:101B70000126F7E70025236813F0080F0ED0784AF6
:101B8000D2F88C3023F44003616B0B43C2F88C30E5
:101B9000636BB3F5800F65D003B90125236813F09B
:101BA000200F61D1236813F0100F03D094F8582050
:101BB0006C4B1A60236813F0800F08D0684AD2F883
:101BC000943023F44003E16C0B43C2F89430236853
:101BD00013F0400F08D0624AD2F8943023F08063AB
:101BE000A16C0B43C2F89430236813F4807F0DD0AE
:101BF0005B4AD2F8943023F00063616D0B43C2F866
:101C00009430636DB3F1006F00F09580236813F496
:101C1000007F08D0524AD2F8943023F08053616C90
:101C20000B43C2F89430236813F4806F0CD04C4AF5
:101C3000D2F8943023F00053216D0B43C2F8943056
:101C4000236DB3F1005F78D0002E76D12368B3F511
:101C5000006F72D0002D40F02281002003B0F0BD53
:101C6000012588E7012697E7002301933C4B1A6C76
:101C700042F080521A641B6C03F080530193019B65
:101C8000394A136843F480731360FFF78FF80746EF
:101C9000354B1B6813F4807F06D1FFF787F8C01B14
:101CA0000228F5D90320D9E72D4B1B6F13F440739D
:101CB00012D0226C02F440729A420DD0284B1A6F57
:101CC00022F44072294901200860002008601A6748
:101CD0001B6F13F0010F12D1236C03F44072B2F5A5
:101CE000407F1DD01E4A936823F4F81393601C496B
:101CF0000B6F226CC2F30B0213430B6752E7FFF723
:101D000055F80746164B1B6F13F0020FE4D1FFF78F
:101D10004DF8C01B41F288339842F3D903209DE768
:101D20000F498A6822F4F81223F0704323F44073B9
:101D300013438B60DBE7012568E70D4B00221A6037
:101D4000FFF734F80646064B1B6813F0006F11D0FE
:101D5000FFF72CF8801B0228F5D903207EE700BF8F
:101D600000380240E011474200700040400E4742F8
:101D700068004742236813F0010F01D0A26B22B123
:101D800013F0020F15D0E36B9BB9774AD2F88400A9
:101D9000D2F884106368A66843EA861300F44030E2
:101DA000034301F070610B43616943EA0173C2F8B8
:101DB0008430236813F0040F03D0226BB2F5801F28
:101DC00006D013F0080F20D0636BB3F5800F1CD141
:101DD000654AD2F88400D2F884106368A66843EAA2
:101DE000861300F440300343206943EA006301F0A6
:101DF000E0410B43C2F88430D2F88C3023F01F034B
:101E0000A16A01390B43C2F88C30236813F4806F48
:101E100003D0236DB3F1005F28D0236813F4006F63
:101E200011D06368A26843EA8213E2685208013A5B
:101E300043EA0243226943EA0263626943EA0273A6
:101E4000494AC2F88430494B01221A60FEF7AEFFBE
:101E50000646454B1B6813F0006F7FF4FBAEFEF7A0
:101E6000A5FF801B0228F4D90320F7E63E48D0F8EE
:101E70008430C3F301435A1CD0F884606368A168BE
:101E800043EA8113E1684908013943EA014343EA1F
:101E9000426306F0E0421343C0F88430BDE7344BA0
:101EA00000221A60FEF782FF05462F4B1B6813F0D5
:101EB000005F06D0FEF77AFF401B0228F5D9032009
:101EC000CCE6236813F0040F01D0226B22B113F08B
:101ED000080F1AD0636BC3B9234AD2F88810A369DC
:101EE000E06943EA801301F440310B43616A43EA3D
:101EF0000163C2F88830D2F88C3023F4F853E16AD9
:101F0000013943EA0123C2F88C30236813F4807F3F
:101F100003D0636DB3F1006F11D0154B01221A602D
:101F2000FEF744FF0446104B1B6813F0005F18D106
:101F3000FEF73CFF001B0228F5D903208EE60A4875
:101F4000D0F88810A369E26943EA8213226A520832
:101F5000013A43EA024301F070621343C0F888304B
:101F6000DBE700207AE600BF003802406800474205
:101F7000700047422DE9F04B5C4B9B6803F00C036B
:101F8000082B07D00C2B5BD0042B00F0AD805848F9
:101F9000BDE8F08B554B5A6802F03F025B6813F4C2
:101FA000800F2AD0514B5B68C3F388131E4600276D
:101FB0005C010025E41A65EB0705A90141EA94617B
:101FC000A001001B61EB0501CB0043EA5073C40084
:101FD000A01943EB07014B0243EAD05344022046C9
:101FE00019460023FEF7E2FC404B5B68C3F3014354
:101FF00001335B00B0FBF3F0CAE73C4B5B68C3F313
:1020000088131E4600275C010025E41A65EB0705CE
:10201000A90141EA9461A001001B61EB0501CB001D
:1020200043EA5073C400A01943EB07018B0243EA53
:1020300090538402204619460023FEF7B7FCD3E7ED
:102040002A4B5A6802F03F025B6813F4800F28D0D5
:10205000264B5B68C3F388131E4600275C010025EE
:10206000E41A65EB0705A90141EA9461A001001B90
:1020700061EB0501CB0043EA5073C400A01943EBA8
:1020800007014B0243EAD05344022046194600237D
:10209000FEF78CFC154B5B68C3F30273B0FBF3F0E7
:1020A00076E7124B5B68C3F388131E4600275C017A
:1020B0000025E41A65EB0705A90141EA9461A00136
:1020C000001B61EB0501CB0043EA5073C400A0196B
:1020D00043EB07018B0243EA9053840220461946E2
:1020E0000023FEF763FCD5E7024851E700380240C1
:1020F0000024F40000127A00002800F00B8270B572
:1021000082B00446036813F0010F41D0A54B9B68D1
:1021100003F00C03042B32D0A24B9B6803F00C039A
:10212000082B27D09F4B9B6803F00C030C2B59D036
:102130006368B3F5803F5BD0B3F5A02F5ED0994BB9
:102140001A6822F480321A601A6822F480221A6017
:102150006368002B5CD0FEF729FE0546914B1B6897
:1021600013F4003F14D1FEF721FE401B6428F5D97B
:102170000320D4E18B4B5B6813F4800FD2D0894BE2
:102180001B6813F4003F03D06368002B00F0C48188
:10219000236813F0020F67D0824B9B6813F00C0F7B
:1021A0004AD0804B9B6803F00C03082B3FD07D4B3B
:1021B0009B6803F00C030C2B48D0E368002B74D011
:1021C000794B01221A60FEF7F1FD0546754B1B683D
:1021D00013F0020F60D1FEF7E9FD401B0228F5D98C
:1021E00003209CE16F4B5B6813F4800FA0D0C6E71F
:1021F0006C4A136843F480331360A9E7694B1A688B
:1022000042F480221A601A6842F480321A609FE712
:10221000FEF7CCFD0546634B1B6813F4003FB7D0B7
:10222000FEF7C4FD401B6428F5D9032077E15D4B20
:102230005B6813F4800FBAD15A4B1B6813F0020F7E
:102240000AD0E368012B07D0012068E1554B5B6899
:1022500013F4800FB1D1EFE7524A136823F0F8036B
:10226000216943EAC1031360236813F0080F40D0CB
:10227000636963B34D4B01221A60FEF797FD054673
:10228000484B5B6F13F0020F33D1FEF78FFD401BFD
:102290000228F5D9032042E1424A136823F0F803EB
:1022A000216943EAC1031360DEE73F4B00221A6055
:1022B000FEF77CFD05463B4B1B6813F0020FD3D0A5
:1022C000FEF774FD401B0228F5D9032027E1374BA8
:1022D00000221A60FEF76AFD0546324B5B6F13F071
:1022E000020F06D0FEF762FD401B0228F5D903203D
:1022F00015E1236813F0040F78D02A4B1B6C13F000
:10230000805F33D100230193264B1A6C42F0805238
:102310001A641B6C03F080530193019B0125244B2D
:102320001B6813F4807F23D0A368012B34D0052BC6
:1023300040D01C4B1A6F22F001021A671A6F22F06C
:1023400004021A67A368002B3ED0FEF72FFD064655
:10235000144B1B6F13F0020F47D1FEF727FD801BB4
:1023600041F288339842F3D90320D8E00025D6E71C
:102370000F4A136843F480731360FEF717FD064697
:102380000B4B1B6813F4807FCED1FEF70FFD801B33
:102390000228F5D90320C2E0024A136F43F001037B
:1023A0001367CFE70038024000004742800E4742E3
:1023B000007000405D4B1A6F42F004021A671A6FFA
:1023C00042F001021A67BDE7FEF7F0FC0646574BE4
:1023D0001B6F13F0020F08D0FEF7E8FC801B41F2E0
:1023E00088339842F3D9032099E0EDB9A369002B13
:1023F00000F094804D4A926802F00C02082A54D0F2
:10240000022B17D04A4B00221A60FEF7CFFC04467D
:10241000464B1B6813F0007F45D0FEF7C7FC001B3E
:102420000228F5D903207AE0404A136C23F0805348
:102430001364DBE73E4B00221A60FEF7B7FC05464B
:102440003A4B1B6813F0007F06D0FEF7AFFC401B31
:102450000228F5D9032062E0E369226A1343626A25
:1024600043EA8213A26A5208013A43EA0243E26A4B
:1024700043EA0263226B43EA02732C4A53602C4BFB
:1024800001221A60FEF792FC0446284B1B6813F0E9
:10249000007F06D1FEF78AFC001B0228F5D9032035
:1024A0003DE000203BE0002039E0012B39D01F4BFC
:1024B0005B6803F48001E269914201D001202EE0C3
:1024C00003F03F02216A8A4201D0012027E0616ABD
:1024D00047F6C0721A40B2EB811F01D001201EE006
:1024E00003F44031A26A5208013AB1EB024F01D025
:1024F000012014E003F07062E16AB2EB016F01D0D9
:1025000001200CE003F0E043226BB3EB027F0AD022
:10251000012004E001207047012000E0002002B00B
:1025200070BD0120FBE70020F9E700BF0038024042
:102530006000474238B504460268D36823F0A00320
:10254000D360FEF733FC05462368DB6813F0200FE9
:1025500007D1FEF72BFC401BB0F57A7FF4D903209E
:1025600000E0002038BD70B50368DA6812F0400F53
:1025700002D00025284670BD0446DA6842F0800289
:10258000DA60FEF713FC064600252368DB6813F0CB
:10259000400FEFD1002DEDD1FEF708FC801BB0F508
:1025A0007A7FF2D9042363770125EEE70268D368C6
:1025B00023F08003D36003689B6813F0200F02D0E0
:1025C00000231846704710B50446FFF7B3FF0346D3
:1025D00010B1042363770123184610BD002844D0AE
:1025E00010B50446437FF3B1022363772368CA2200
:1025F0005A62236853225A622046FFF7B4FF03460B
:10260000A8B15BB921680A6C22F480220A642168AF
:102610000A6CA06902430A64012262772268FF21E2
:102620005162184610BD037706F01AFCDCE72268F9
:10263000936823F4E00323F04003936021688A68E1
:102640006368206903436069034313438B60236815
:10265000E2681A6122681369A16843EA01431361C1
:102660002046FFF7A3FF0346CBE701231846704738
:10267000002303E00133DBB20A38C0B20928F9D8DD
:102680001B01DBB218437047037F012B5CD070B590
:102690000E46044601230377022343775ABB03689F
:1026A0009B6813F0400F01D10023CB703078FFF707
:1026B000DFFF05047078FFF7DBFF45EA0025B078FF
:1026C000FFF7D6FF0543F07845EA80552368CA2214
:1026D0005A62236853225A622046FFF744FF03469A
:1026E000D8B10BB9012262772268FF215162002222
:1026F0002277184670BD03689B6813F0400F01D124
:102700000023CB70307875782D0245EA0045B0780B
:102710000543F07845EA8055D8E7236805F07F3512
:1027200025F0FE451D602268936823F480239360A2
:1027300021688B68F2683069024313438B6020463E
:10274000FFF734FF0346CCE7022318467047037FA8
:10275000012B4BD070B501230377022343773AB99D
:102760004B7813F0100F03D003F0EF030A334B70D4
:102770000E46044622BBC878FFF77AFF050470783E
:10278000FFF776FF45EA0025B078FFF771FF0543B4
:10279000307845EA40352368CA225A6223685322BA
:1027A0005A622046FFF7DFFE0346A0B10BB90122B3
:1027B00062772268FF21516200222277184670BD9D
:1027C000C8784D782D0245EA004588780543087899
:1027D00045EA4035DFE7236825F07F4525F0C00551
:1027E0005D602046FFF7E2FE0346DFE7022318465E
:1027F0007047030903EB83035A0000F00F001044F5
:10280000C0B2704770B503689B6A4B6003681B6970
:10281000C3F30E038B6003681B6803F07F3323F060
:10282000FE43C3F305400870C3F306264E7003F061
:102830007F058D709B0DCB705AB90C46FFF7D9FF01
:1028400020703046FFF7D5FF60702846FFF7D1FFB4
:10285000A070002070BD836B1A68D36B43F4807343
:10286000D363704770B582B00446002301930068BB
:1028700001F068F9064610B1304602B070BD20681C
:1028800001F066FC38B90123A364A36C012B0BD0C3
:102890003546304614E00023A364206801F052F965
:1028A0000028F2D00646E7E70021206801F0B4FADC
:1028B0000028EDD04FF08056DEE7019B01330193F5
:1028C000019A4FF6FE739A4213D895B900212068F9
:1028D00001F0A2FAD8B91249206801F07FFB054641
:1028E000B8B90021206801F018F9C30FE5D01D46E2
:1028F000E3E7019A4FF6FE739A420DD810F0804F2D
:1029000002D100236364B7E701236364B4E706469A
:10291000B2E74FF08056AFE74FF08076ACE700BFEC
:10292000000010C1F8B5846AC66AAEB1074600253A
:102930000EE0386801F0CCF82070C0F30723637014
:10294000C0F30743A370000EE0700434043E013569
:10295000072DEED9BC62FE62F8BDF0B583B0046A03
:10296000466AE6B10746002515E0237801936278B0
:1029700043EA02230193A27843EA02430193E278F7
:1029800043EA026302A941F8043D0434043E386876
:1029900001F0A1F80135072DE7D93C627E6203B052
:1029A000F0BD2DE9F04188B004460F46FEF7FEF970
:1029B00006460023009301930821206801F082F964
:1029C000054618B1284608B0BDE8F081216D09041C
:1029D000206801F021FA05460028F3D14FF0FF33BB
:1029E00002930823039330230493022305930023C7
:1029F00006930123079302A9206801F091F820684B
:102A000001F03AFA05460028DCD180460BE001F0DF
:102A10005FF84DF8280008F10108FEF7C7F9801BA0
:102A2000B0F1FF3F3FD02068436B13F02A0F07D16E
:102A3000436B13F4001FEAD1436B13F4005FECD136
:102A4000436B13F0080F25D1436B13F0020F24D111
:102A5000436B13F0200F23D140F23A538363019A62
:102A6000130203F47F0343EA0263110A01F47F4176
:102A70000B4343EA12633B60009A130203F47F03A3
:102A800043EA0263110A01F47F410B4343EA1263F4
:102A90007B6097E70825856394E70225856391E7C6
:102AA000202585638EE74FF000458BE710B582B097
:102AB0000446002100910191006801F02EF810F009
:102AC000007F16D169462046FFF76BFF034690B999
:102AD000019B13F4802F11D0216D0904206801F0AF
:102AE0009BF9034638B90221206801F0ADF903468D
:102AF00001E04FF40063184602B010BD4FF0806350
:102B0000F9E710B582B004460021009101910068F8
:102B100001F003F810F0007F16D169462046FFF758
:102B200040FF034690B9019B13F4803F11D0216D03
:102B30000904206801F070F9034638B900212068C3
:102B400001F082F9034601E04FF40063184602B039
:102B500010BD4FF08063F9E770B581B10D460446B2
:102B6000016D0904006801F09FF9064608B130467E
:102B700070BD0021206800F0D0FF2860F7E74FF01B
:102B80000066F4E72DE9F04186B0044699B1174696
:102B90001E460A4690F83430DBB2012B7DD100236B
:102BA0008363BB19C16D8B420BD9836B43F00073F8
:102BB0008363012572E0836B43F000638363012527
:102BC0006CE0032380F8343001680023CB62006896
:102BD000C16B41F49571C163216C3248C863216CAB
:102BE0003148C864216C0B65216C8B60206C0168D6
:102BF0000B6823F0C003806803430B6021684FEA31
:102C000046284FEA98038031206CFEF75DFC0546AC
:102C100060BB264B01221A60636C934200D07F0296
:102C20004FF0FF330093CDF80480902302930223EA
:102C3000039300230493012305936946206800F061
:102C40006FFF012E22D9822323633946206801F0C9
:102C500069F818B32368164A9A63A36B1843A063F4
:102C6000012584F834500023236317E02268D36BD6
:102C700023F49573D36323680D4A9A63A36B43F0DF
:102C80008043A363012584F8345007E08123236344
:102C90003946206801F02EF8DBE70225284606B009
:102CA000BDE8F081E72D0008E13200088C8525425F
:102CB000FF054000F0B587B00446002938D01E4615
:102CC0000F4690F83430DBB2012B7ED100238363B2
:102CD0009319C16D8B4231D8032380F834300368D7
:102CE0000021D9620068C36B43F01A03C363E36B2E
:102CF0003848D863E36B3848D864E36B1965636C74
:102D0000012B00D05202012E1ED9A02323631146AD
:102D1000206801F037F8F0B12368304A9A63A36B5A
:102D20001843A063012584F83450002323634DE049
:102D3000836B43F000638363012547E0836B43F0BB
:102D400000738363012541E09023236311462068CB
:102D500001F000F8DFE7224B01221A60E36B40220A
:102D60009A60E16B0A68136823F0C00389680B431B
:102D7000136022687602B30880323946E06BFEF7B2
:102D8000A3FB054688B12268D36B23F01A03D363F3
:102D90002368124A9A63A36B43F08043A36301251F
:102DA00084F834500023236310E04FF0FF33009386
:102DB0000196902302930023039304930123059328
:102DC0006946206800F0ACFE00E00225284607B006
:102DD000F0BD00BF57280008E1320008FF054000A1
:102DE0008C852542704710B5846B236B822B11D0E4
:102DF0002268D36A23F00803D362236840F23A5270
:102E00009A63012384F8343000232363204605F0BD
:102E100026FE10BD206800F0CDFF03460028E7D055
:102E2000A06B1843A0632046FFF7DCFFE0E700003B
:102E300010B4436E9B0F0B70436EC3F383634B70F0
:102E400090F8673003F003038B7090F86630CB7016
:102E500090F865300B7190F864304B71836E1B0DE8
:102E6000CB80B0F86A3003F00F030B72836EC3F3AC
:102E7000C0334B72836EC3F380338B72836EC3F3A4
:102E80004033CB72836EC3F300330B7300234B7359
:102E9000436C002B40F08880826E40F6FC7303EA9E
:102EA0008203C26E43EA92730B61C36EC3F3C263C3
:102EB0000B7590F86F3003F007034B75C36EC3F3C7
:102EC00042538B75C36EC3F38243CB75C36EC3F39A
:102ED000C2330B760B69013343650A7E02F00702A9
:102EE000023203FA02F242650B7A03F00F04012367
:102EF000A34083655B0A03FB02F3C3654FF40073D1
:102F00000366C36EC3F380334B76C36EC3F3C6133D
:102F10008B76C36E03F07F03CB76036FDB0F0B77EB
:102F2000036FC3F341734B77036FC3F382638B77F4
:102F3000036FC3F38353CB77036FC3F3405381F81D
:102F40002030002381F82130B0F8722002F0010215
:102F500081F82220026FC2F3C03281F82320026F71
:102F6000C2F3803281F82420026FC2F3403281F82C
:102F70002520026FC2F3003281F82620026FC2F3CF
:102F8000812281F82720026FC2F3012281F82820D4
:102F9000026FC2F3460281F82920012281F82A201B
:102FA00018465DF8044B7047012B0BD003680E4A9E
:102FB0009A63836B43F080538363012380F834303A
:102FC0001846EEE7836E1B0403F47C13B0F86E2002
:102FD00013430B610B6901339B024365C3654FF4D7
:102FE0000073836503668CE7FF05400070B590B001
:102FF00004460123ADF81230006800F075FD00288A
:103000006CD0636C032B45D1636C032B5DD1636C77
:10301000032B1DD0BDF8121021650904206800F0B3
:10302000A0FF054600285BD10021206800F075FD57
:1030300060660421206800F070FDA0660821206809
:1030400000F06BFDE0660C21206800F066FD206753
:103050000421206800F061FD000DE06405A9204610
:10306000FFF7E6FE00283ED1226D120400232068FF
:1030700000F0BAFE054698BB234653F8106B93E860
:1030800007008DE80700043494E80E00304600F095
:1030900003FD25E0206800F04FFF054600BB00213E
:1030A000206800F03AFD60670421206800F035FDDB
:1030B000A0670821206800F030FDE0670C2120683F
:1030C00000F02BFDC4F880009EE70DF1120120688E
:1030D00000F0F0FF0546002899D001E04FF0806530
:1030E000284610B070BD4FF08055F9E770B58AB032
:1030F00005460023049305930693079308937623CC
:1031000009930AAB13E907008DE8070004AB0ECB67
:10311000286800F0C1FC18B1012420460AB070BD37
:1031200004461A4E00233360286800F0D9FC0123BE
:1031300033600220FDF740FE2846FFF793FB03466D
:1031400030B1012485F83440A86B1843A863E4E744
:103150002846FFF74BFF034630B1012485F8344081
:10316000A86B1843A863D8E74FF40071286800F0F3
:10317000A9FD0028D1D02B6805499963AB6B0343A7
:10318000AB63012485F83440C7E700BFA080254227
:10319000FF054000C0B110B5044690F834307BB153
:1031A000032384F834302046FFF7A0FF034670B9AC
:1031B0000022A2632263012284F83420184610BD45
:1031C000037706F07DF9EBE70123184670470123EA
:1031D000F4E7436C0B60836C4B60C36C8B60036DD6
:1031E000CB60436D0B61836D4B61C36D8B61036E6F
:1031F000CB6100207047000030B58BB004460D460F
:10320000032380F83430436C032B1CD0B1F5805F6E
:1032100008D0B1F5006F0AD079B1836B43F0006339
:10322000836314E0836B43F0805383630FE0FFF705
:103230003DFCA36B1843A06309E0FFF762FCA36B9E
:103240001843A06303E0836B43F080538363A36B55
:10325000CBB12368174A9A63012584F834504FF4A0
:103260000071206800F02EFD034630B1226811493C
:103270009163A06B1843A0630125012384F83430C7
:1032800028460BB030BD63680493A3680593E368D8
:103290000693079563690893A36909930AAB13E939
:1032A00007008DE8070004AB0ECB206800F0F4FBAC
:1032B0000025D4E7FF05400010B582B0044602A9FE
:1032C000002341F8043DFFF747FC18B10346A06B0B
:1032D0001843A0630198C0F3432002B010BD000062
:1032E00010B5846BFEF726FA02280AD0236C5B6DBA
:1032F000E26B526D012B05D0012A03D02046FFF767
:1033000071FD10BD23680F4A9A632268D36B23F4C2
:103310009D73D363A36B43F08043A3632046FFF701
:10332000CBFF0538012805D9012384F83430002368
:103330002363E3E7206800F03DFDA36B1843A0631F
:10334000F2E700BFFF05400010B5846B236840F230
:103350003A529A632046FFF7AFFF012384F83430D6
:10336000002323630538012805D9A36B53B12046F8
:10337000FFF738FD10BD206800F01CFDA36B18435B
:10338000A063F2E7204605F062FBF3E710B5846B1B
:10339000236840F23A529A632046FFF78DFF0123DB
:1033A00084F83430002323630538012805D9A36B42
:1033B00053B12046FFF716FD10BD206800F0FAFC5F
:1033C000A36B1843A063F2E7204605F040FBF3E748
:1033D00038B50446056B03685A6B12F4004F02D0EF
:1033E00015F0080F28D15A6B12F4807F5AD04FF491
:1033F00080729A632268D36B23F4414323F03A032B
:10340000D3632268D36A23F00103D36215F0080F57
:1034100026D015F0220F12D1236840F23A529A6357
:10342000012384F834300023236315F0030F13D0F5
:10343000204605F014FB01E0FFF774FA38BD206860
:1034400000F0B8FC03460028E6D0A26B1343A36348
:103450002046FFF7C7FCDFE7204605F0FCFAEDE762
:1034600015F0800FEAD015F0200F0ED115F0030FE4
:10347000E4D12268D36A23F00803D362012384F8DD
:103480003430204605F0E7FAD8E7206800F092FCD7
:1034900003460028EAD0A26B1343A3632046FFF73C
:1034A000A1FCE3E75A6B12F4804F02D015F0080F2D
:1034B0004AD15A6B12F03A0FC0D05A6B12F0020F79
:1034C00003D0A26B42F00202A2635A6B12F0080F03
:1034D00003D0A26B42F00802A2635A6B12F0200FD5
:1034E00003D0A26B42F02002A2635A6B12F0100FBD
:1034F00003D0A26B42F01002A26340F23A529A63E8
:103500002268D36B23F49D73D363206800F052FCD0
:10351000A36B1843A06315F0080F19D115F0800FA5
:103520008CD015F0300F1CD115F0030F26D0236C72
:10353000174A1A65206CFDF7FCFF00283FF47EAFA8
:10354000206CFFF723FF79E72046FFF706FA75E7BF
:10355000012384F83430002323632046FFF742FC24
:103560006CE7E36B0B4A1A65E06BFDF7E2FF00289E
:103570003FF464AFE06BFFF7E7FE5FE70023A36370
:10358000012284F834202363204605F060FA55E7D1
:103590008D330008493300087047000090F83D3033
:1035A000DBB2012B01D001207047022380F83D30AF
:1035B0000268D36843F00103D3600368184A93425A
:1035C00020D0B3F1804F1DD0A2F57C42934219D098
:1035D00002F58062934215D002F58062934211D0C9
:1035E00002F5784293420DD002F57052934209D011
:1035F000A2F59432934205D01A6842F001021A6093
:10360000002070479A6802F00702062A05D01A685F
:1036100042F001021A60002070470020704700BF8E
:1036200000000140704770477047704710B504466E
:1036300003681A6912F0020F11D0DA6812F0020F53
:103640000DD06FF002021A610123037703689B69B2
:1036500013F0030F70D0FFF7E6FF002323772368F2
:103660001A6912F0040F12D0DA6812F0040F0ED0AB
:103670006FF004021A610223237723689B6913F415
:10368000407F5FD02046FFF7CEFF002323772368DB
:103690001A6912F0080F12D0DA6812F0080F0ED073
:1036A0006FF008021A61042323772368DB6913F0A3
:1036B000030F4ED02046FFF7B6FF00232377236881
:1036C0001A6912F0100F12D0DA6812F0100F0ED033
:1036D0006FF010021A61082323772368DB6913F463
:1036E000407F3DD02046FFF79EFF002323772368CD
:1036F0001A6912F0010F03D0DA6812F0010F36D107
:1037000023681A6912F0800F03D0DA6812F0800F74
:1037100034D123681A6912F0400F03D0DA6812F02E
:10372000400F32D123681A6912F0200F03D0DA68F3
:1037300012F0200F30D110BDFFF774FF2046FFF7C5
:1037400073FF8AE72046FFF76DFF2046FFF76CFF07
:103750009BE72046FFF766FF2046FFF765FFACE7D3
:103760002046FFF75FFF2046FFF75EFFBDE76FF0E3
:1037700001021A61204605F01DFBC1E76FF08002CF
:103780001A61204600F0A0F8C3E76FF040021A610A
:103790002046FFF74AFFC5E76FF020021A61204676
:1037A00000F091F8C7E700000368304A904212D059
:1037B000B0F1804F0FD0A2F57C4290420BD002F5C1
:1037C0008062904207D002F58062904203D002F5F9
:1037D0007842904203D123F070034A681343234A8E
:1037E00090422AD0B0F1804F27D0A2F57C4290427F
:1037F00023D002F5806290421FD002F58062904291
:103800001BD002F57842904217D002F570529042D8
:1038100013D002F5806290420FD002F58062904290
:103820000BD0A2F59832904207D002F58062904208
:1038300003D002F58062904203D123F44073CA683A
:10384000134323F080034A69134303608B68C36208
:103850000B688362054B984203D003F5806398425E
:1038600001D10B69036301234361704700000140EC
:1038700038B310B5044690F83D30EBB1022384F81C
:103880003D30211D2068FFF78FFF012384F846306B
:1038900084F83E3084F83F3084F8403084F841307A
:1038A00084F8423084F8433084F8443084F845305A
:1038B00084F83D30002010BD80F83C30FFF76CFEEE
:1038C000DCE7012070477047704700002DE9F04B9E
:1038D00004460268136923F44053C1680B43136123
:1038E00083680269134342691343C2691A4301683A
:1038F000CB6823F4164323F00C031343CB60026818
:10390000536923F4407381690B43536103683A4A56
:10391000934206D002F58062934202D0FEF7AEF8E1
:1039200001E0FEF7BBF8E369B3F5004F30D04FF08C
:103930000009061849EB090716EB000B47EB090CC9
:103940004FEACC0343EA5B734FEACB0293469C46B3
:1039500063689A009B0F10EB0B0049EB0C01FDF71D
:1039600025F8264DA5FB00325109642202FB110205
:1039700013013233A5FB03235B0903F0F00202EBD2
:10398000011203F00F03216813448B60BDE8F08B34
:1039900083464FF0000C06184CEB0C0716EB0008A2
:1039A00047EB0C094FEAC90343EA58734FEAC802D0
:1039B0009046994662680021921841EB01031BEB87
:1039C00008004CEB0901FCF7F1FF0C4DA5FB0032A0
:1039D0005109642202FB1102D3003233A5FB0323F9
:1039E0005B095A0002F4F87202EB011203F00703BC
:1039F000216813448B60C9E7001001401F85EB511B
:103A000058B310B5044690F83D300BB3242384F826
:103A10003D302268D36823F40053D3602046FFF77B
:103A200055FF2268136923F4904313612268536998
:103A300023F02A0353612268D36843F40053D36010
:103A400000202064202384F83D3084F83E3010BDEF
:103A500080F83C3005F0EEFED8E70120704700000A
:103A60000B4B1B680B4AA2FB03235A0A41F2883313
:103A700003FB02F35A1E43B1416B134611F0800F52
:103A8000F8D0C5238363002070474FF00040704793
:103A90001C000020D34D621084B010B402AC84E846
:103AA0000E000B46039A1343049A1343059A1343DB
:103AB000069A1343079A1343426822F4FD4222F008
:103AC0007F021343436000205DF8044B04B070474D
:103AD000D0F8800070470B68C0F880300020704735
:103AE0000323036000207047006800F00300704764
:103AF0000B6883604B688A681343CA6813430A697A
:103B00001343C26822F47F6222F00F021343C360A2
:103B1000002070470069C0B27047143040587047A9
:103B20000B6843624B6883628B68CA6813430A69F7
:103B300013434A691343C26A22F0F7021343C36274
:103B40000020704710B586B004460023019302930D
:103B5000039304934FF48063059301A9FFF7C8FF13
:103B60002046FFF77DFF06B010BD000038B5524B70
:103B70001B68524CA4FB03435B0A02FB03F2531E77
:103B8000002A60D0446B1A4614F0450FF7D014F4A5
:103B9000006FF4D1436B13F0040F07D1436B13F0A4
:103BA000010F07D00123836318464EE0042383638B
:103BB00018464AE00D460446C5238363FFF7AAFF73
:103BC000A84201D0012040E000212046FFF7A5FFD8
:103BD0003B4B0340D3B300283ADB10F0804F3AD17F
:103BE00010F0005F39D110F0805F38D110F0006F15
:103BF00038D110F0806F38D110F0807F38D110F4B8
:103C0000000F38D110F4800F38D110F4001F38D1D4
:103C100010F4801F38D110F4802F38D110F4003FF9
:103C200038D110F4803F38D110F4004F38D110F45F
:103C3000804F38D110F4005F38D110F0080F38D021
:103C40004FF4000001E04FF0004038BD0020FCE7D9
:103C50004FF00070F9E74020F7E78020F5E74FF4D8
:103C60008070F2E74FF40070EFE74FF48060ECE70C
:103C70004FF40060E9E74FF48050E6E74FF400505E
:103C8000E3E74FF48040E0E74FF40040DDE74FF416
:103C90000030DAE74FF48020D7E74FF40020D4E774
:103CA0004FF48010D1E74FF40010CEE74FF48000BE
:103CB000CBE74FF48030C8E71C000020D34D6210E2
:103CC00008E0FFFD30B587B005460191102402944D
:103CD00040230393002304934FF48063059301A9C9
:103CE000FFF706FF41F2883221462846FFF73EFFE4
:103CF00007B030BD30B587B005460191112402945C
:103D000040230393002304934FF48063059301A998
:103D1000FFF7EEFE41F2883221462846FFF726FFE4
:103D200007B030BD30B587B005460191122402942A
:103D300040230393002304934FF48063059301A968
:103D4000FFF7D6FE41F2883221462846FFF70EFFE4
:103D500007B030BD30B587B00546019118240294F4
:103D600040230393002304934FF48063059301A938
:103D7000FFF7BEFE41F2883221462846FFF7F6FEE5
:103D800007B030BD30B587B00546019119240294C3
:103D900040230393002304934FF48063059301A908
:103DA000FFF7A6FE41F2883221462846FFF7DEFEE5
:103DB00007B030BD30B587B00546002301930C2411
:103DC00002944022039204934FF48063059301A967
:103DD000FFF78EFE034A21462846FFF7C7FE07B0CD
:103DE00030BD00BF00E1F50530B587B00546019252
:103DF0000724029440230393002304934FF4806329
:103E0000059301A9FFF774FE41F288322146284646
:103E1000FFF7ACFE07B030BD30B587B00546019165
:103E20003724029440230393002304934FF48063C8
:103E3000059301A9FFF75CFE41F28832214628462E
:103E4000FFF794FE07B030BD30B587B0054601914D
:103E50000624029440230393002304934FF48063C9
:103E6000059301A9FFF744FE41F288322146284616
:103E7000FFF77CFE07B030BD30B587B005460023A4
:103E80000193332402944022039204934FF48063FD
:103E9000059301A9FFF72CFE41F2883221462846FE
:103EA000FFF764FE07B030BD30B587B0054601911D
:103EB0000D24029440230393002304934FF4806362
:103EC000059301A9FFF714FE41F2883221462846E6
:103ED000FFF74CFE07B030BD154B1B68154AA2FB1F
:103EE00003235A0A41F2883303FB02F35A1EDBB163
:103EF000416B134611F0450FF8D011F4006FF5D166
:103F0000436B13F0040F07D1436B13F0010F07D17C
:103F1000C5238363002070470423836318467047DA
:103F200001238363184670474FF00040704700BF7D
:103F30001C000020D34D621010B586B0044600234B
:103F4000019302220292C022039204934FF48063F1
:103F5000059301A9FFF7CCFD2046FFF7BDFF06B092
:103F600010BD10B586B00446019109230293C02309
:103F70000393002304934FF48063059301A9FFF793
:103F8000B7FD2046FFF7A8FF06B010BD114B1B6818
:103F9000114AA2FB03235A0A41F2883303FB02F3BE
:103FA0005A1E9BB1416B134611F0450FF8D011F426
:103FB000006FF5D1436B13F0040F03D1C523836366
:103FC0000020704704238363184670474FF0004079
:103FD000704700BF1C000020D34D621010B586B0A2
:103FE000044641F0004141F48011019129230293DC
:103FF00040230393002304934FF48063059301A9A6
:10400000FFF776FD2046FFF7C1FF06B010BD0000A8
:1040100070B5264B1B68264CA4FB03435C0A41F297
:10402000883303FB04F35C1EB3B3456B234615F0E2
:10403000450FF8D015F4006FF5D1436B13F0040F62
:1040400007D1436B13F0010F07D001238363184698
:1040500024E004238363184620E016460D460446F8
:10406000FFF758FDA84201D0012017E0C523A36344
:1040700000212046FFF751FD10F4604F08D010F4E6
:10408000804F0CD110F4004F0CD04FF4805005E05D
:10409000000C3080002001E04FF0004070BD4FF474
:1040A0000050FBE74FF48030F8E700BF1C00002011
:1040B000D34D621070B586B005460E4600230193BD
:1040C000032402944022039204934FF480630593E7
:1040D00001A9FFF70DFD324621462846FFF798FF5C
:1040E00006B070BD184B1B68184AA2FB03235A0A7E
:1040F00041F2883303FB02F35A1EFBB1416B1346B6
:1041000011F0450FF8D011F4006FF5D1436B13F0A7
:10411000040F0BD1436B13F0010F0BD1436B13F062
:10412000400F0ED040238363002070470423836335
:104130001846704701238363184670474FF00040CC
:1041400070470020704700BF1C000020D34D621054
:1041500010B586B004464FF4D5730193082302933B
:1041600040230393002304934FF48063059301A934
:10417000FFF7BEFC2046FFF7B5FF06B010BD0000FC
:1041800008B5044B03EB8002526852680344187A66
:10419000904708BDCC00002008B5084B1B5C53B904
:1041A000064B01221A5403EB80025268126818442D
:1041B000007A904708BD0020FCE700BFCC0000203B
:1041C00038B5044C04EB80056D68AD680444207A72
:1041D000A84738BDCC00002038B5044C04EB80055E
:1041E0006D68ED680444207AA84738BDCC000020F3
:1041F00010B5044B03EB8004646824690344187A07
:10420000A04710BDCC0000204278007840EA022090
:104210007047C278837843EA0222437843EA022354
:10422000007840EA032070470170090A4170704726
:104230000170C1F307234370C1F307438370090E74
:10424000C170704713462AB10A78027001300131FB
:10425000013BF9D1704701700130013AFBD1704741
:1042600030B4451C037808781B1A013A04D04C1C62
:1042700028462146002BF4D0184630BC704700E099
:10428000013003780BB18B42FAD118467047000019
:1042900030B400252B4601E001250133012B15D850
:1042A0001A01174CA258002AF6D00468A242F4D191
:1042B000134A02EB0312546882689442EDD1104A0B
:1042C00002EB0312946842699442E6D1022B0AD0B1
:1042D000A1B90B4A02EB03139B89B3F5807F07D08A
:1042E000002030BC70472DB9022905D10020F8E725
:1042F0001020F6E70020F4E71220F2E71020F0E7A4
:10430000A4000020002000E00130012804D80301AF
:10431000034AD358002BF7D1023818BF0120704749
:10432000A400002070B4002300E00133012B13D857
:104330001A01244CA45802689442F6D1214A02EB97
:104340000312546882689442EFD11E4A02EB0312B2
:10435000946842699442E8D1022B29D021B1194ACC
:1043600002EB0312928952BB21BB164A02EB0312E5
:104370009189013189B2134A02EB03129181581CD1
:1043800070BC70470133012B04D81A010D4CA258A0
:10439000002AF7D1022B10D006680A4D1C012A19F9
:1043A0002E51846854604069906000209081D5E768
:1043B0000023E8E74FF48071DDE70020E0E700200C
:1043C000DEE700BFA40000200138012815D80D4BFE
:1043D00003EB00139B89B3F5807F03D01BB1013B36
:1043E0009BB200E00023074A02EB0012938133B92D
:1043F00003010020034AD05070470220704700207C
:10440000704700BFA4000020002303E05DF8044BC8
:1044100070470133012B11D81A0109498A58824289
:10442000F7D110B41A0100248C500133012BEDD8C0
:104430001A0103498A588242F7D1F3E7704700BF57
:10444000A40000200239036A023B8B4204D943894D
:10445000406B01FB03007047002070470268C36A8D
:104460000433490A5289B1FBF2F1186830B1814234
:1044700002D3091A0833F8E758680844704770B542
:1044800006460D4601F11A00FFF7BEFE3378032BF6
:1044900000D070BD044605F11400FFF7B5FE44EAF4
:1044A0000040F6E770B506460C46154691B204F199
:1044B0001A00FFF7B9FE3378032B00D070BD290C2A
:1044C00004F11400FFF7B0FEF8E700002DE9F8430F
:1044D00080460F4691464B730F23CB7200240C731A
:1044E000214607F11A00FFF79FFE09F1FF3606EBA0
:1044F000460306EB8306254602E001340C2C11D856
:104500004FF6FF739D4202D038F8165001360C4B1F
:10451000185D29463844FFF787FE002DEDD14FF690
:10452000FF75EAE74FF6FF739D4202D038F8163068
:104530000BB949F0400987F80090BDE8F88300BF47
:1045400070A2000870B582B0054616461C460B22C4
:10455000FFF778FE052C11D807221DE001320F2A43
:104560000CD803F0010101EB44045B0814F4803F14
:10457000F4D084F4883484F02104EFE73388002BEE
:10458000EAD002360022EAE7531E02A8024402F8EB
:10459000081C240909D01A4604F00F0303F1300166
:1045A0003929F1D903F13701EEE77E2102461A4499
:1045B00002F8081C00E001349C4209D22A5D202A3E
:1045C000F9D105E02021621C2955072A08D8144694
:1045D000072BF7D802AA1A4412F8081C0133F2E795
:1045E00002B070BD01460B220020C30143EA500314
:1045F000087850FA83F3D8B20131013AF5D1704707
:10460000016809B10A4603E04FF0FF3308E00132C8
:1046100013781F2B01D93A2BF9D13A2B02D0002362
:104620001846704710B44C1C0B78303B092B08D847
:10463000A24209D15BB90132026018465DF8044B11
:1046400070474FF0FF33F8E74FF0FF33F5E74FF0D7
:10465000FF33F2E70160002343608360704708B5D1
:1046600030B1006901F0A5FF034610B1012300E05D
:104670000023184608BDF8B5C3780BB90020F8BD73
:104680000446856B00F13C0701232A4639464078F1
:10469000FFF7A2FDA8B90023E370E36AEB1A626A90
:1046A000934210D2A678012E09D9636A1D440123D2
:1046B0002A4639466078FFF78FFD013EF3E7002078
:1046C000DDE70120DBE70020D9E770B5836B8B4283
:1046D00012D004460D46FFF7CEFF064668B9012307
:1046E0002A4604F13C016078FFF76AFD10B101260B
:1046F0004FF0FF35A56300E00026304670BD000096
:1047000010B504460023C3704FF0FF338363FFF7F7
:10471000DCFF18BB04F23A20FFF776FD4AF655237A
:1047200098421DD194F83C30E92B05D0E36B03F09F
:10473000FF130F4A934215D104F17200FFF769FD90
:1047400020F07F400B4B98420ED004F18E00FFF713
:1047500060FD094B984209D1002002E0042000E0EE
:10476000032010BD0220FCE70020FAE70220F8E752
:10477000EB00900046415400464154332DE9F04788
:1047800084B00E46174600230B60FFF739FF051E65
:10479000C0F24D81BC4B03EB85031C6A002C00F07A
:1047A00048812046FFF75BFF002800F04681346017
:1047B00007F0FE07237873B16078FFF7E1FC10F093
:1047C000010F08D1002F00F03A8110F0040F40F0E3
:1047D000388100202EE100232370E8B26070FFF7DB
:1047E000DBFC10F0010F40F02E811FB110F0040F20
:1047F00040F02B8100212046FFF782FF022800F0C5
:10480000B8800026042800F02281012800F22181CE
:1048100004F14700FFF7F8FCB0F5007F40F01B8182
:1048200004F15200FFF7F0FC074620B904F16000E4
:10483000FFF7EFFC0746676294F84C20A270531E06
:10484000DBB2012B00F2098107FB02F594F84980E5
:10485000A4F80A80B8F1000F00F0018108F1FF33DD
:1048600018EA030F40F0FD8004F14D00FFF7CCFC87
:104870008246208110F00F0F40F0F58004F14F00C8
:10488000FFF7C2FC814620B904F15C00FFF7C1FCD0
:10489000814604F14A00FFF7B7FC0146002800F00A
:1048A000E480421902EB1A129145C0F0E080A9EBB6
:1048B0000203B3FBF8F3002B00F0DB804FF6F5703A
:1048C00083426ED94FF0030940F6F570834201D858
:1048D0004FF0010903F10208C4F82080A6628B1989
:1048E000E36232446263B9F1030F5DD0BAF1000FA5
:1048F00000F0C5802B442363B9F1020F65D008EBAB
:10490000480208F0010303EB520303F2FF13B7EB75
:10491000532FC0F0B6804FF0FF33A3616361802353
:104920002371B9F1030F53D084F80090564A938C49
:1049300001339BB29384E3800025E5612046FFF7B5
:1049400063FD284676E0002004AB03EB850343F8C3
:10495000100C0135032D0ED804F13C002B0103F59A
:10496000DF7318440379002BEDD00830FFF751FCBA
:10497000EAE70025EEE700250AE031462046FFF78A
:10498000BFFE01287FF63EAF0135032D3FF63AAF5B
:1049900004AB03EB850353F8106C002EEDD103201C
:1049A000F2E74FF002098FE704F16600FFF72CFCF5
:1049B000002860D1BAF1000F5FD104F16800FFF761
:1049C00028FC20634FEA88039FE74FEA48039CE7EF
:1049D00004F16C00FFF718FC0128A5D1711C2046DA
:1049E000FFF773FE00289FD10023237104F23A20C1
:1049F000FFF70AFC4AF65523984295D104F13C0092
:104A0000FFF707FC214B98428ED104F50870FFF7A1
:104A100000FC1F4B984287D104F50970FFF7F9FBA2
:104A2000A06104F50A70FFF7F4FB60617CE70B20DE
:104A300000E00C2004B0BDE8F0870F20FAE700206A
:104A4000F8E70A20F6E70320F4E70A20F2E701205E
:104A5000F0E70D20EEE70D20ECE70D20EAE70D2052
:104A6000E8E70D20E6E70D20E4E70D20E2E70D2062
:104A7000E0E70D20DEE70D20DCE70D20DAE70D2072
:104A8000D8E70D20D6E700BFA400002052526141B4
:104A9000727241612DE9F04701297AD9036A8B428C
:104AA00079D917460C4606460378022B43D0032BD0
:104AB00054D0012B01D002256EE001EB5108C16AF0
:104AC00001EB5821FFF701FE0546002864D106F1ED
:104AD0003C0A08F10109C8F3080814F001041FD0CA
:104AE0001AF9083003F00F033A0102F47F6213430E
:104AF000DBB20AF808300123F370F16A01EB5921A7
:104B00003046FFF7E2FD0546002845D1C9F3080904
:104B100044B1C7F307120AF809200123F3703BE000
:104B2000FBB2E6E71AF9092022F00F02C7F30327C8
:104B30003A43D2B2EFE7C16A01EB1421FFF7C5FD9A
:104B4000054648BB06F13C00640004F4FF74B9B2AA
:104B50002044FFF769FB0123F3701DE0C16A01EBFC
:104B6000D411FFF7B2FD0546B0B927F0704706F142
:104B70003C03A10001F4FE715C182046FFF749FBDD
:104B800000F0704139432046FFF752FB0123F370D8
:104B900002E0022500E002252846BDE8F087F8B5CE
:104BA0000668012953D9336A8B4252D90C463378AF
:104BB000022B2BD0032B39D0012B01D0012047E051
:104BC00001EB5105F16A01EB55213046FFF77DFD00
:104BD000002840D16F1CC5F30805354495F83C50BA
:104BE000F16A01EB57213046FFF76FFDB0BBC7F309
:104BF0000803334493F83C0045EA002014F0010F09
:104C000001D0000924E0C0F30B0021E0F16A01EBC0
:104C100014213046FFF759FD18BB06F13C00610036
:104C200001F4FF710844FFF7EFFA11E0F16A01EBBC
:104C3000D4113046FFF749FDB0B93C36A10001F46C
:104C4000FE703044FFF7E5FA20F0704000E00120EC
:104C5000F8BD0120FCE74FF0FF30F9E74FF0FF30DF
:104C6000F6E74FF0FF30F3E74FF0FF30F0E72DE9C4
:104C7000F0410768B1F5001F3BD206460D4611F022
:104C80001F0F39D1716184681CB93B78022B00D9A0
:104C90003C6B94B93B89B3EB551F2FD93B6BF36148
:104CA000B461F36993B303EB5523F3613C37C5F368
:104CB00008053D44356200201CE0B7F80A804FEA41
:104CC000482845450FD321463046FFF768FF044684
:104CD000B0F1FF3F14D0012814D93B6A834213D9A5
:104CE000A5EB0805EDE721463846FFF7ABFBF06181
:104CF000D6E70220BDE8F0810220FBE70220F9E7B9
:104D00000120F7E70220F5E70220F3E70220F1E7B0
:104D10002DE9F04107460668884631B975698DB1BD
:104D2000336AAB420FD801250DE0FFF738FF034689
:104D3000012847D9B0F1FF3F49D0326A824246D8B4
:104D4000454600E001252C460CE021463846FFF799
:104D500026FF034670B1012839D0B0F1FF3F36D0AD
:104D6000AC4233D00134336AA342EED8012D2BD9A3
:104D70000224EAE74FF0FF3221463046FFF78AFE71
:104D8000034610B9B8F1000F0ED1A3B97461B2692E
:104D9000336A023B9A4201D8013AB261337943F057
:104DA00001033371234612E0224641463046FFF7A5
:104DB00071FE0346E9E7012B01D0012307E04FF024
:104DC000FF3304E0012302E0002300E00023184643
:104DD000BDE8F081F8B50E46056801292ED90746D1
:104DE00011462B6AB3422CD952B14FF0FF322846FC
:104DF000FFF750FE844618B125E02646A24222D98C
:104E000031463846FFF7CBFE0446F0B101281FD0EB
:104E1000B0F1FF3F1FD0002231462846FFF73AFE8F
:104E2000844680B9AB692A6A911E8B42E5D2013370
:104E3000AB612B7943F001032B71DEE74FF0020CDD
:104E400001E04FF0020C6046F8BD4FF0000CFAE7AD
:104E50004FF0020CF7E74FF0010CF4E72DE9F843AF
:104E600006684569C369002B6ED02035B5F5001F73
:104E70006CD288460446C5F308073FB90133C361C5
:104E8000816979B93389B3EB551F07D9656106F19B
:104E90003C033B4423620020BDE8F8830023C36148
:104EA0000420F9E77389013B13EA5523EED1FFF79C
:104EB00076FE814601284BD9B0F1FF3F4AD0336AD4
:104EC000834239D8B8F1000F11D0A1692046FFF70D
:104ED0001FFF814600283FD001283FD0B0F1FF3F9F
:104EE0003ED03046FFF7C7FB28B10120D4E70023AE
:104EF000E3610420D0E74FF40072002106F13C008A
:104F0000FFF7A9F949463046FFF79CFAB0634FF026
:104F10000008738998450BD20123F3703046FFF7E0
:104F2000AAFBF8B908F10108B36B0133B363F0E7EA
:104F3000B36BA3EB0803B363C4F81890494630463B
:104F4000FFF780FAE061A1E70420A5E70420A3E7CA
:104F50000220A1E701209FE707209DE702209BE7B1
:104F6000012099E7012097E7F8B504460F46066847
:104F70000021FFF77CFE0346C0B9002508E001359B
:104F8000BD4213D001212046FFF768FF034668B9F0
:104F9000E1693046FFF799FB034638B9226A127877
:104FA000E52AECD0002AEAD00025EBE7042B01D05B
:104FB0001846F8BD0723FBE750B108B50C2906D009
:104FC0000B2904D00F2902D0006901F0FCFA08BDBA
:104FD000704738B50D4608B3044603680BB31A781A
:104FE0000AB38188DA88914203D0092000232B601C
:104FF00038BD1846FFF733FBC0B123685878FFF778
:10500000BFF810F0010F02D123680020EFE7002164
:105010002068FFF7D1FF09200023E8E709200023DB
:10502000E5E70920E3E709200023E0E70F2000235C
:10503000DDE700002DE9F04F83B006468A46D1F83F
:1050400000900368DD68002423E0013719F8073079
:105050002F2BFAD05C2BF8D04F44CAF800701F28D1
:1050600034D84FF00408012C33D0022C4FD104F176
:105070000043013B35F813302E2B48D104F1004397
:10508000023B35F813302E2B41D129E025F814804E
:105090003C46671C19F804001F28DDD92F28D5D0FD
:1050A0005C28D3D0FE2C00F2FD80012101F002FA31
:1050B0008046002800F0F8807F28E7D801467C4829
:1050C000FFF7DDF80028E1D00620A2E04FF000084D
:1050D000C9E704F10043013B35F813302E2BC4D14E
:1050E000002325F8143004E02021F21882F824105F
:1050F00001330A2B03D8A342F6D22E21F5E733441D
:1051000048F0200883F82480002082E0013C44B16C
:1051100004F10043013B35F81330202BF6D02E2B41
:10512000F4D0002325F81430002C00F0BF800B22AF
:10513000202106F12400FFF78EF8002300E0013360
:1051400035F81320202AFAD02E2AF8D01BB148F0C7
:10515000030800E0013C6CB104F10042013A35F86B
:1051600012202E2AF6D14FF0080A4FF0000BCDF88E
:1051700004B00AE0A3464FF0080A0022019204E0BE
:105180004C450BD048F003084B4603F1010935F8B4
:105190001370FFB1202FF5D02E2FF1D0D34510D2B0
:1051A0004C450ED07F2F44D8002F50D148F0030833
:1051B0005F2706EB0B0383F824704B460BF1010BC2
:1051C000E3E7BAF10B0F27D04C4501D048F00308B4
:1051D0004C4524D296F82430E52B54D0BAF1080F70
:1051E00055D0019B03F00C020C2A03D003F00303FB
:1051F000032B01D148F0020818F0020F06D1019BE1
:1052000003F00303012B47D0042A48D086F82F80EF
:10521000002003B0BDE8F08F48F00308DAE7019BF7
:105220009B00DBB2019323464FF00B0A4FF0080BB3
:10523000ABE70021384601F03DF9074620B1A0F167
:1052400080071C4B3B441F7C48F00208ACE7394602
:105250001948FFF714F80028A8D1A7F141039BB221
:10526000192B04D8019B43F002030193A1E7A7F196
:1052700061039BB2192B9CD8019B43F0010301935E
:10528000203FBFB295E7052386F82430A6E7019BAF
:105290009B00DBB20193A4E748F01008B4E748F0A4
:1052A0000808B3E70620B4E70620B2E70620B0E717
:1052B00034A7000870A2000840A700082DE9F047B5
:1052C00081460F4601F11A00FEF79EFFB8BB3D78FC
:1052D00005F03F05013D05EB450305EB83054FF068
:1052E0000108002404E04FF6FF7398422ED10134E8
:1052F0000C2C18D8194B185D3844FEF785FF06466C
:10530000B8F1000FEFD0FE2D1CD801F0EFF8804669
:1053100005F1010A39F8150001F0E8F8804513D1CC
:10532000B0465546E3E73B7813F0400F10D0B8F194
:10533000000F0FD039F8153073B9012000E00020BC
:10534000BDE8F0870020FBE70020F9E70020F7E741
:105350000120F5E70120F3E70020F1E770A2000843
:105360002DE9F8430446D0F800800021FFF77FFCC8
:105370000646002864D14FF0FF3323634FF0FF0946
:105380004F460AE04FF0FF332363FF2700212046FA
:10539000FFF764FD0646002852D1E1694046FFF759
:1053A00094F9064600284BD1256A2B78002B46D06D
:1053B000E97A01F03F02A271E52BE3D011F0080F6A
:1053C00001D00F2ADED10F2A16D027B92846FFF7C1
:1053D00009F9484534D094F82F3013F0010F06D165
:1053E0000B2204F124012846FEF73AFF40B34FF0A8
:1053F000FF332363FF27C9E794F82F2012F0400FF3
:10540000C4D113F0400F06D095F80D9003F0BF0300
:10541000626922631F46BB4201D0FF27B6E76B7B60
:105420004B4501D0FF27B1E72946D8F80C00FFF71C
:1054300045FF10B1013FFFB2A8E7FF27A6E704260A
:105440003046BDE8F88370B582B004460191056826
:105450000B782F2B06D05C2B04D0EB69836009E01E
:1054600001330193019B1A782F2AF9D05C2AF7D0D7
:105470000023A360019B1B781F2B1ED8802384F878
:105480002F3000212046FFF7F2FB06462DE013F0F7
:10549000040F2FD0064628E013F0040F2CD1A37977
:1054A00013F0100F2AD005F13C016369C3F3080320
:1054B00019442846FEF7E3FFA06001A92046FFF744
:1054C000B9FD064688B92046FFF74AFF94F82F3009
:1054D0000028E1D004280BD113F0200FD7D013F00F
:1054E000040FEAD0802384F82F30304602B070BD1C
:1054F0000646FAE70526F8E70646F6E70526F4E746
:105500002DE9F04385B0066890F82F3013F0A00F16
:1055100040F08D80002400E00134F36833F814304B
:10552000002BF9D1054600F124070C22394601A8C9
:10553000FEF788FE9DF80F3013F0010F1FD04023B7
:1055400085F82F304FF00108B8F1630F0DD84346AE
:10555000F26801A93846FEF7F5FF2846FFF700FF7D
:10556000814610B908F10108EEE7B8F1640F64D084
:10557000B9F1040F5DD19DF80F3085F82F309DF8FB
:105580000F3013F0020F2AD00C342D4BA3FB043440
:10559000A408013421462846FFF7E6FC814608B9F5
:1055A000013C1ED1B9F1000F43D1E9693046FFF744
:1055B0008CF8814600283CD120220021286AFEF781
:1055C0004AFE0B223946286AFEF73CFE95F82F303A
:1055D0002A6A03F0180313730123F37029E00124EE
:1055E000D8E76969A1EB44112846FFF740FB8146E3
:1055F0000028D7D13846FEF7F5FF8046E9693046E6
:10560000FFF763F881460028CCD14346E2B2296A0D
:10561000F068FEF75BFF0123F37000212846FFF7D7
:105620001DFC81460028BDD1013CE7D1BAE74FF00F
:105630000609484605B0BDE8F0834FF00709F8E7D2
:105640004FECC44E70B50446FFF715F8054648B94F
:105650002378032B08D0002211466078FEF7C8FD9E
:1056600000B10125284670BD2379012BF3D104F147
:105670003C064FF4007200213046FEF7ECFD4AF67E
:10568000552104F23A20FEF7CFFD0F493046FEF7D0
:10569000CFFD0E4904F50870FEF7CAFDA16904F5B7
:1056A0000970FEF7C5FD616904F50A70FEF7C0FDDB
:1056B000A26A0132A263012331466078FEF78CFDB5
:1056C00000232371C7E700BF5252614172724161EA
:1056D00070B584B001900091164604A840F8041DEE
:1056E000FEF78EFF051E2EDB1B4B03EB85031C6AAA
:1056F00044B12046FEF788FE206900F055FF20B334
:1057000000232370019B3BB100221A7001991031D4
:10571000E8B200F039FFD0B1019A0F4B03EB8505D9
:105720002A62B2B1012E03D00024204604B070BD1D
:10573000002201A96846FFF721F8044601460198B6
:10574000FFF73AFCF1E70B24EFE70224EDE7022430
:10575000EBE70024E9E700BFA40000202DE9F043B7
:10576000ADF5137D0191002800F012810546164623
:1057700002F03F073A4683A901A8FEF7FFFF04465F
:1057800058B10CB100232B6021468398FFF714FC1D
:1057900020460DF5137DBDE8F083839B849303AA17
:1057A000DA60019984A8FFF74EFE044660B99DF9BE
:1057B0003F32002B51DB37F0010314BF01210021E0
:1057C00084A8FEF765FD044616F01C0F5BD0002C84
:1057D0004FD0042C43D047F00807002C62D117F0BB
:1057E000080F5FD003F0F6F9064601468C980E309C
:1057F000FEF71EFD31468C981630FEF719FD8C9B86
:105800002022DA72839EDDF8308241463046FEF770
:1058100036FE8146002241463046FEF743FE002117
:105820008C981C30FEF704FD839B0122DA70B9F1DD
:10583000000F37D0839B9E6B0022494684A8FFF758
:10584000C9FA044670BB31468398FEF73EFF044612
:1058500009F1FF33839A536124E00624B4E7FEF78D
:1058600051FD08B91224B6E784A8FFF749FE0446A3
:10587000B1E79DF8163213F0110F12D116F0040F94
:10588000ABD008240EE06CB99DF8163213F0100F5F
:105890004CD116F0020F05D013F0010F02D00724EF
:1058A00016E00724A4B917F0080F01D047F040070D
:1058B000839B9B6B6B628C9BAB6237F0010314BFC5
:1058C0000121002184A8FEF72DFD286100285DD06C
:1058D000002C7FF456AF839EDDF83082414630467F
:1058E000FEF7CDFDA86008F11C00FEF792FCE86011
:1058F0000021E9622E60F388AB802F7569752962FB
:10590000A96105F130084FF400724046FEF7A3FC90
:1059100017F0200F3FF435AFEE68002E3FF431AFA3
:10592000AE61839B5F897F02A96805E00424CFE70D
:10593000B1F1FF3F0BD0F61B5CB9BE4209D9284636
:10594000FFF72DF901460128F2D80224F0E70124DF
:10595000F1E7E961002C7FF414AFC6F30803002BD4
:105960003FF40FAF839F3846FEF76CFD08B9022461
:1059700008E700EB56222A62012341467878FEF7B9
:105980001FFC00283FF4FDAE0124FBE60224F8E6EC
:105990000924FDE62DE9F04F85B004460F46164672
:1059A00099460023C9F80030019003A9FFF711FBC5
:1059B000009070B9637D00935BB9237D13F0010FF4
:1059C0000FD0E568A369ED1AB542C0F08280354674
:1059D0007FE000990398FFF7EFFA009805B0BDE863
:1059E000F08F07210398FFF7E7FA07230093F4E706
:1059F000E36A1BB12046FEF731FD7BE0E1690198C7
:105A0000FFF7CDF876E04FF0020884F815804146A4
:105A10000398FFF7D1FACDF80080DEE74FF00108D8
:105A200084F8158041460398FFF7C6FACDF8008048
:105A3000D3E74FF0020884F8158041465846FFF737
:105A4000BBFACDF80080C8E74FF0010884F8158054
:105A500041460398FFF7B0FACDF80080BDE7206A11
:105A6000A0EB0A0040456DD24FF4007204F1300102
:105A700007EB4020FEF7E6FB64E0226A52450DD0BA
:105A800094F91430002B60DB0123524604F13001FD
:105A900003984078FEF794FB00286ED1C4F820A04C
:105AA000A369C3F30803C3F50076B54200D22E46BE
:105AB00004F13001324619443846FEF7C3FB37443F
:105AC000A3693344A361D9F800303344C9F80030E6
:105AD000AD1B002D5CD0A169C1F30803002BDFD101
