:020000040800F2
:100000000000022019820008CD790008CF7900088D
:10001000D1790008D3790008D579000800000000E4
:1000200000000000000000000000000071640008F3
:10003000D779000800000000116500087565000808
:1000400069820008698200086982000869820008E4
:1000500069820008698200086982000869820008D4
:1000600069820008698200086982000869820008C4
:1000700069820008698200086982000869820008B4
:1000800069820008698200086982000869820008A4
:100090006982000869820008698200086982000894
:1000A00069820008D979000869820008698200081D
:1000B000F1790008017A0008117A000869820008C5
:1000C0006982000869820008698200086982000864
:1000D0006982000869820008698200086982000854
:1000E0006982000869820008698200086982000844
:1000F0006982000869820008698200086982000834
:1001000069820008217A0008698200086982000873
:100110006982000869820008698200086982000813
:10012000317A00086982000869820008417A000873
:1001300069820008000000000000000069820008D9
:1001400069820008698200086982000869820008E3
:1001500069820008517A00086982000869820008F3
:1001600069820008698200086982000869820008C3
:1001700069820008698200086982000800000000A6
:10018000000000006982000800000000000000007C
:100190006982000800000000000000006982000879
:1001A000000000000000000000000000698200085C
:1001B0006982000869820008698200086982000873
:0401C0006982000848
:1001D00010B5054C237833B9044B13B10448AFF381
:1001E00000800123237010BDE80100200000000002
:1001F00068C4000808B5034B1BB103490348AFF3BB
:10020000008008BD00000000EC01002068C4000868
:10021000034613F8012B002AFBD1181A0138704746
:1002200001F0FF01102A2BDB10F0070F08D010F8A7
:10023000013B013A8B422DD010F0070F42B3F6D1AB
:10024000F0B441EA012141EA014122F007047FF0C4
:1002500000070023F0E80256083C85EA010586EA1B
:10026000010685FA47F5A3FA87F586FA47F6A5FA57
:1002700087F68EB9EED1F0BC01F0FF0102F0070263
:1002800032B110F8013B013A83EA010313B1F8D10E
:100290000020704701387047002D06BF35460338EF
:1002A000073815F0010F07D1013015F4807F02BF28
:1002B000013015F4C03F0130F0BC0138704700BF79
:1002C00081F0004102E000BF83F0004330B54FEA07
:1002D00041044FEA430594EA050F08BF90EA020F74
:1002E0001FBF54EA000C55EA020C7FEA645C7FEA07
:1002F000655C00F0E2804FEA5454D4EB5555B8BF2A
:100300006D420CDD2C4480EA020281EA030382EA9A
:10031000000083EA010180EA020281EA0303362D2C
:1003200088BF30BD11F0004F4FEA01314FF4801CFF
:100330004CEA113102D0404261EB410113F0004F11
:100340004FEA03334CEA133302D0524263EB4303C8
:1003500094EA050F00F0A780A4F10104D5F1200E66
:100360000DDB02FA0EFC22FA05F2801841F10001C1
:1003700003FA0EF2801843FA05F359410EE0A5F195
:1003800020050EF1200E012A03FA0EFC28BF4CF0C6
:10039000020C43FA05F3C01851EBE37101F000457C
:1003A00007D54FF0000EDCF1000C7EEB00006EEB89
:1003B0000101B1F5801F1BD3B1F5001F0CD3490813
:1003C0005FEA30004FEA3C0C04F101044FEA44526A
:1003D00012F5800F80F09A80BCF1004F08BF5FEAF1
:1003E000500C50F1000041EB045141EA050130BDD1
:1003F0005FEA4C0C404141EB0101013C28BFB1F5E3
:10040000801FE9D291F0000F04BF01460020B1FA2D
:1004100081F308BF2033A3F10B03B3F120020CDA00
:100420000C3208DD02F1140CC2F10C0201FA0CF0DE
:1004300021FA02F10CE002F11402D8BFC2F1200C43
:1004400001FA02F120FA0CFCDCBF41EA0C019040F9
:10045000E41AA2BF01EB0451294330BD6FEA040442
:100460001F3C1CDA0C340EDC04F11404C4F120022D
:1004700020FA04F001FA02F340EA030021FA04F33F
:1004800045EA030130BDC4F10C04C4F1200220FA96
:1004900002F001FA04F340EA0300294630BD21FAD4
:1004A00004F0294630BD94F0000F83F4801306BF9A
:1004B00081F480110134013D4EE77FEA645C18BF8E
:1004C0007FEA655C29D094EA050F08BF90EA020F25
:1004D00005D054EA000C04BF1946104630BD91EA1D
:1004E000030F1EBF0021002030BD5FEA545C05D120
:1004F0004000494128BF41F0004130BD14F580045F
:100500003CBF01F5801130BD01F0004545F0FE41D2
:1005100041F470014FF0000030BD7FEA645C1ABF07
:10052000194610467FEA655C1CBF0B46024650EA3E
:10053000013406BF52EA033591EA030F41F400216A
:1005400030BD00BF90F0000F04BF0021704730B5F0
:100550004FF4806404F132044FF000054FF00001C5
:1005600050E700BF90F0000F04BF0021704730B586
:100570004FF4806404F1320410F0004548BF40425B
:100580004FF000013EE700BF42004FEAE2014FEAB0
:1005900031014FEA02701FBF12F07F4393F07F4F8B
:1005A00081F06051704732F07F4208BF704793F08E
:1005B0007F4F04BF41F40021704730B54FF46074A1
:1005C00001F0004521F000411CE700BF50EA0102A4
:1005D00008BF704730B54FF000050AE050EA01024D
:1005E00008BF704730B511F0004502D5404261EBBD
:1005F00041014FF4806404F132045FEA915C3FF4FE
:10060000D8AE4FF003025FEADC0C18BF03325FEA9A
:10061000DC0C18BF033202EBDC02C2F1200300FA4B
:1006200003FC20FA02F001FA03FE40EA0E0021FA70
:1006300002F11444BDE600BF70B54FF0FF0C4CF45E
:10064000E06C1CEA11541DBF1CEA135594EA0C0F10
:1006500095EA0C0F00F0DEF82C4481EA030621EA4B
:100660004C5123EA4C5350EA013518BF52EA033586
:1006700041F4801143F4801338D0A0FB02CE4FF038
:100680000005E1FB02E506F00042E0FB03E54FF068
:100690000006E1FB03569CF0000F18BF4EF0010E60
:1006A000A4F1FF04B6F5007F64F5407404D25FEA5C
:1006B0004E0E6D4146EB060642EAC62141EA55510F
:1006C0004FEAC52040EA5E504FEACE2EB4F1FD0C51
:1006D00088BFBCF5E06F1ED8BEF1004F08BF5FEACF
:1006E000500E50F1000041EB045170BD06F0004681
:1006F00046EA010140EA020081EA0301B4EB5C042E
:10070000C2BFD4EB0C0541EA045170BD41F4801125
:100710004FF0000E013C00F3AB8014F1360FDEBF4A
:10072000002001F0004170BDC4F10004203C35DA26
:100730000C341BDC04F11404C4F1200500FA05F3A9
:1007400020FA04F001FA05F240EA020001F000424A
:1007500021F0004110EBD37021FA04F642EB0601C0
:100760005EEA430E08BF20EAD37070BDC4F10C04EA
:10077000C4F1200500FA04F320FA05F001FA04F2AE
:1007800040EA020001F0004110EBD37041F100019A
:100790005EEA430E08BF20EAD37070BDC4F12005A5
:1007A00000FA05F24EEA020E20FA04F301FA05F20D
:1007B00043EA020321FA04F001F0004121FA04F2B5
:1007C00020EA020000EBD3705EEA430E08BF20EA85
:1007D000D37070BD94F0000F0FD101F000464000BF
:1007E00041EB010111F4801F08BF013CF7D041EA41
:1007F000060195F0000F18BF704703F00046520045
:1008000043EB030313F4801F08BF013DF7D043EA15
:100810000603704794EA0C0F0CEA135518BF95EACB
:100820000C0F0CD050EA410618BF52EA4306D1D152
:1008300081EA030101F000414FF0000070BD50EA71
:10084000410606BF1046194652EA430619D094EAFB
:100850000C0F02D150EA013613D195EA0C0F05D1E5
:1008600052EA03361CBF104619460AD181EA030139
:1008700001F0004141F0FE4141F470014FF00000F1
:1008800070BD41F0FE4141F4780170BD70B54FF08C
:10089000FF0C4CF4E06C1CEA11541DBF1CEA13550C
:1008A00094EA0C0F95EA0C0F00F0A7F8A4EB0504EE
:1008B00081EA030E52EA03354FEA013100F08880E5
:1008C0004FEA03334FF0805545EA131343EA1263AE
:1008D0004FEA022245EA111545EA10654FEA002663
:1008E0000EF000419D4208BF964244F1FD0404F51C
:1008F000407402D25B084FEA3202B61A65EB030578
:100900005B084FEA32024FF480104FF4002CB6EB34
:10091000020E75EB030E22BFB61A754640EA0C00B4
:100920005B084FEA3202B6EB020E75EB030E22BFF4
:10093000B61A754640EA5C005B084FEA3202B6EB35
:10094000020E75EB030E22BFB61A754640EA9C00F4
:100950005B084FEA3202B6EB020E75EB030E22BFC4
:10096000B61A754640EADC0055EA060E18D04FEA82
:10097000051545EA16754FEA06164FEAC30343EA22
:1009800052734FEAC2025FEA1C1CC0D111F4801FEF
:100990000BD141EA00014FF000004FF0004CB6E7E8
:1009A00011F4801F04BF01430020B4F1FD0C88BF87
:1009B000BCF5E06F3FF6AFAEB5EB030C04BFB6EB92
:1009C000020C5FEA500C50F1000041EB045170BD85
:1009D0000EF0004E4EEA113114EB5C04C2BFD4EBB2
:1009E0000C0541EA045170BD41F480114FF0000E36
:1009F000013C90E645EA060E8DE60CEA135594EAB2
:100A00000C0F08BF95EA0C0F3FF43BAF94EA0C0FB4
:100A10000AD150EA01347FF434AF95EA0C0F7FF429
:100A200025AF104619462CE795EA0C0F06D152EA7D
:100A300003353FF4FDAE1046194622E750EA410661
:100A400018BF52EA43067FF4C5AE50EA41047FF472
:100A50000DAF52EA43057FF4EBAE12E74FF0FF3CD7
:100A600006E000BF4FF0010C02E000BF4FF0010CA8
:100A70004DF804CD4FEA410C7FEA6C5C4FEA430C21
:100A800018BF7FEA6C5C1BD001B050EA410C0CBF70
:100A900052EA430C91EA030F02BF90EA020F0020D2
:100AA000704710F1000F91EA030F58BF994208BF39
:100AB00090422CBFD8176FEAE37040F001007047F6
:100AC0004FEA410C7FEA6C5C02D150EA013C07D14D
:100AD0004FEA430C7FEA6C5CD6D152EA033CD3D098
:100AE0005DF8040B704700BF8446104662468C4692
:100AF0001946634600E000BF01B5FFF7B7FF0028C5
:100B000048BF10F1000F01BD4DF808EDFFF7F4FFED
:100B10000CBF012000205DF808FB00BF4DF808ED78
:100B2000FFF7EAFF34BF012000205DF808FB00BF9B
:100B30004DF808EDFFF7E0FF94BF012000205DF8BD
:100B400008FB00BF4DF808EDFFF7CEFF94BF012072
:100B500000205DF808FB00BF4DF808EDFFF7C4FF6B
:100B600034BF012000205DF808FB00BF4FEA410CB4
:100B70007FEA6C5C02D150EA013C0AD14FEA430C97
:100B80007FEA6C5C02D152EA033C02D14FF00000D4
:100B900070474FF0010070474FEA410212F5001212
:100BA00015D211D56FF47873B3EB625212D94FEAB4
:100BB000C12343F0004343EA505311F0004F23FA9E
:100BC00002F018BF404270474FF00000704750EAF3
:100BD000013005D111F0004008BF6FF000407047B0
:100BE0004FF00000704700BF4FEA4102B2F1E0430E
:100BF00024BFB3F5001CDCF1FE5C0DD901F0004C04
:100C00004FEAC0024CEA5070B2F1004F40EB830053
:100C100008BF20F00100704711F0804F21D113F17F
:100C20003872BCBF01F00040704741F480114FEAB8
:100C30005252C2F11802C2F1200C10FA0CF320FA41
:100C400002F018BF40F001004FEAC1234FEAD3235E
:100C500003FA0CFC40EA0C0023FA02F34FEA4303C8
:100C6000CCE77FEA625307D150EA01331EBF4FF051
:100C7000FE4040F44000704701F0004040F0FE406C
:100C800040F40000704700BF53B94AB9002908BFBB
:100C900000281CBF4FF0FF314FF0FF3000F074B957
:100CA000ADF1080C6DE904CE00F006F8DDF804E0C3
:100CB000DDE9022304B070472DE9F047089D0446A2
:100CC0008E46002B4DD18A42944669D9B2FA82F2FF
:100CD00052B101FA02F3C2F1200120FA01F10CFA3B
:100CE00002FC41EA030E94404FEA1C48210CBEFB73
:100CF000F8F61FFA8CF708FB16E341EA034306FBFC
:100D000007F199420AD91CEB030306F1FF3080F08A
:100D10001F81994240F21C81023E63445B1AA4B2D7
:100D2000B3FBF8F008FB103344EA034400FB07F779
:100D3000A7420AD91CEB040400F1FF3380F00A81BA
:100D4000A74240F207816444023840EA0640E41BAF
:100D500000261DB1D4400023C5E900433146BDE85B
:100D6000F0878B4209D9002D00F0EF800026C5E9FD
:100D7000000130463146BDE8F087B3FA83F6002E15
:100D80004AD18B4202D3824200F2F980841A61EB8D
:100D9000030301209E46002DE0D0C5E9004EDDE7AB
:100DA00002B9FFDEB2FA82F2002A40F09280A1EB93
:100DB0000C014FEA1C471FFA8CFE0126200CB1FBE8
:100DC000F7F307FB131140EA01410EFB03F08842E1
:100DD00008D91CEB010103F1FF3802D2884200F26E
:100DE000CB804346091AA4B2B1FBF7F007FB101100
:100DF00044EA01440EFB00FEA64508D91CEB04049E
:100E000000F1FF3102D2A64500F2BB800846A4EBF8
:100E10000E0440EA03409CE7C6F12007B34022FAE3
:100E200007FC4CEA030C20FA07F401FA06F31C4312
:100E3000F9404FEA1C4900FA06F3B1FBF9F8200C1F
:100E40001FFA8CFE09FB181140EA014108FB0EF065
:100E5000884202FA06F20BD91CEB010108F1FF3AB5
:100E600080F08880884240F28580A8F102086144C1
:100E7000091AA4B2B1FBF9F009FB101144EA0141CF
:100E800000FB0EFE8E4508D91CEB010100F1FF347A
:100E90006CD28E456AD90238614440EA0840A0FB12
:100EA0000294A1EB0E01A142C846A64656D353D0E8
:100EB0005DB1B3EB080261EB0E0101FA07F722FA0C
:100EC00006F3F1401F43C5E9007100263146BDE835
:100ED000F087C2F12003D8400CFA02FC21FA03F398
:100EE000914001434FEA1C471FFA8CFEB3FBF7F019
:100EF00007FB10360B0C43EA064300FB0EF69E423E
:100F000004FA02F408D91CEB030300F1FF382FD2D6
:100F10009E422DD9023863449B1B89B2B3FBF7F67E
:100F200007FB163341EA034106FB0EF38B4208D957
:100F30001CEB010106F1FF3816D28B4214D9023E98
:100F40006144C91A46EA004638E72E46284605E7B6
:100F50000646E3E61846F8E64B45A9D2B9EB020887
:100F600064EB0C0E0138A3E74646EAE7204694E717
:100F70004046D1E7D0467BE7023B614432E730464A
:100F800009E76444023842E7704700BF08B50B4BDD
:100F90001A6842F400721A601A6842F480621A6099
:100FA0001A6842F480721A60032000F01FFD0520C9
:100FB00006F0CEFC06F0AAFC002008BD003C024072
:100FC000034A1168034B1B780B441360704700BF42
:100FD0000402002000000020014B1868704700BF89
:100FE0000402002038B50446FFF7F6FF0546B4F1C9
:100FF000FF3F02D0044B1B781C44FFF7EDFF401B62
:10100000A042FAD338BD00BF000000204A4B5A6806
:1010100022F440325A605A6841680A435A600268B2
:10102000536823F48073536002685368016943EA8C
:10103000012353600268536823F0407353600268D1
:10104000536881680B4353600268936823F400631C
:10105000936002689368C1680B439360826A374B60
:101060009A4257D00268936823F0706393600268D5
:101070009368816A0B4393600268936823F040533E
:10108000936002689368C16A0B4393600268936837
:1010900023F00203936002689368017E43EA4103F0
:1010A000936090F82030002B3FD00268536843F4DF
:1010B000006353600268536823F46043536001681F
:1010C0004B68426A013A43EA42334B600268D36A92
:1010D00023F47003D3620168CB6AC269013A43EA20
:1010E0000253CB620268936823F400739360026832
:1010F000936890F8301043EA412393600268936844
:1011000023F48063936002689368416943EA812312
:10111000936070470268936823F07063936002687D
:10112000936823F040539360B0E70268536823F458
:1011300000635360CAE700BF002301400100000FB5
:1011400038B310B50446036C43B1236C13F0100F91
:101150000BD00120002384F83C3010BD05F052FD77
:101160000023636484F83C30EFE7236C23F4885356
:1011700023F0020343F0020323642046FFF746FFF7
:1011800000206064236C23F0030343F00103236415
:10119000E0E701207047000010B582B0134600223E
:1011A000019290F83C20012A00F0AE800446012212
:1011B00080F83C200268906810F0010F13D190680D
:1011C00040F001009060534A1068534AA2FB00208F
:1011D000800C00EB4000019002E001980138019082
:1011E00001980028F9D12268906810F4807F03D01C
:1011F000906820F4807090602268906810F0010F71
:1012000077D0206C20F4E06020F0010040F4807082
:101210002064526812F4806F05D0226C22F4405290
:1012200042F480522264226C12F4805F36D0626CE9
:1012300022F006026264002284F83C20A26B374848
:10124000D063A26B36481064A26B3648D064226823
:101250006FF0220010602068426842F080624260B5
:101260002068826842F48072826020680A4600F139
:101270004C01A06B00F0F8FC2B4B5B6813F01F0FC8
:1012800027D12368294A934211D002F580729342F4
:1012900007D0274A934214D0002033E00022626432
:1012A000C9E702F50072526812F01F0FF1D19A6877
:1012B00012F0405F2AD19A6842F080429A60002082
:1012C00020E002F58072526812F0100FEFD000207B
:1012D00018E02368154A934201D0002012E09A6872
:1012E00012F0405F14D19A6842F080429A60002068
:1012F00008E0236C43F010032364636C43F00103A4
:101300006364002002B010BD0220FBE70020F9E773
:101310000020F7E71000002083DE1B435B1300086A
:101320003913000845130008002301400020014044
:10133000002201407047704708B5806BFFF7FBFF44
:1013400008BD704708B5806B40230364436C43F0CD
:1013500004034364FFF7F5FF08BD08B50346806B3F
:10136000026C12F0500F25D1036C43F40073036438
:1013700003689A6812F0405F19D1027EBAB9DA6A3E
:1013800012F4700F03D09A6812F4806F0FD15A686C
:1013900022F020025A60036C23F480730364036C10
:1013A00013F4805F03D1036C43F001030364FFF780
:1013B000C1FF08BD026C12F0100F04D1826BD26C19
:1013C00018469047F5E7FFF7BCFFF2E730B482B06C
:1013D0000023019390F83C30012B00F0C0800123E2
:1013E00080F83C300B68092B41D90468E2689BB255
:1013F00003EB43031E3B4FF0070C0CFA03F322EA06
:101400000303E3600468E2680B8803EB43031E3BBD
:101410008D6805FA03F31343E3604B68062B3DD850
:101420000468626B03EB8303053B4FF01F0C0CFA5F
:1014300003F322EA030363630468626B4B6803EB04
:101440008303053BB1F800C00CFA03F31343636355
:101450000268444B9A4251D00268424B9A425AD099
:10146000002380F83C30184602B030BC7047046856
:1014700022699BB203EB43034FF0070C0CFA03F312
:1014800022EA03032361046822690B8803EB430308
:101490008D6805FA03F313432361BEE70C2B16D8BE
:1014A00005682A6B03EB8303233B1F2404FA03F331
:1014B00022EA03032B6305682A6B4B6803EB830363
:1014C000233B0C8804FA03F313432B63C0E705683E
:1014D000EA6A03EB8303413B1F2404FA03F322EA85
:1014E0000303EB620568EA6A4B6803EB8303413B45
:1014F0000C8804FA03F31343EB62A9E70B68122B81
:10150000AAD1194B5A6822F400025A605A6842F470
:1015100080025A60A0E70B68144A934201D0112B55
:101520009ED1114B5A6822F480025A605A6842F4E4
:1015300000025A600A680D4B9A4291D10C4B1B680D
:101540000C4AA2FB03239B0C03EB83035B00019378
:10155000019B002B84D0019B013B0193F8E7022003
:1015600082E700BF0020014000230140120000106C
:101570001000002083DE1B43002800F0A18038B556
:10158000044690F82030D3B12268136843F0010379
:101590001360FFF721FD054623685A6812F0010F1A
:1015A00010D1FFF719FD401B0A28F5D9636A43F4EF
:1015B00000336362052384F82030012038BD05F034
:1015C0004BFCE1E71A6822F002021A60FFF704FD03
:1015D000054623685A6812F0020F0DD0FFF7FCFC95
:1015E000401B0A28F5D9636A43F40033636205237C
:1015F00084F820300120E1E7227E012A3DD01A68DC
:1016000022F080021A60637E012B3BD022681368AF
:1016100023F040031360A37E012B39D022681368A6
:1016200023F020031360E37E012B37D02268136878
:1016300043F010031360237F012B35D02268136819
:1016400023F008031360637F012B33D022681368F3
:1016500023F004031360A368E26813432269134371
:10166000626913436268013A21681343CB61002029
:101670006062012384F82030A0E71A6842F08002FB
:101680001A60C0E72268136843F040031360C2E7A2
:101690002268136843F020031360C4E722681368CC
:1016A00023F010031360C6E72268136843F00803B1
:1016B0001360C8E72268136843F004031360CAE7A5
:1016C0000120704790F82030013BDBB2012B05D997
:1016D000436A43F4802343620120704730B5464B90
:1016E000D3F8002242F00102C3F80022D3F800220E
:1016F00022F47C52C3F80022D3F80022486A42EA5E
:101700000022C3F800224A6902F01F02012000FAF9
:1017100002F2D3F81C026FEA020C20EA0200C3F8BE
:101720001C02CB69C3B9344BD3F80C020CEA00009D
:10173000C3F80C028C884869CD6844EA05444830F7
:1017400043F830408C68088840EA04404C6904F152
:10175000480E03EBCE035860CB69012B1ED08B697A
:10176000002B33D12448D0F804320CEA0303C0F82C
:1017700004320B698BBB2048D0F814320CEA030307
:10178000C0F814320B6A012B2ED01B4AD2F800325B
:1017900023F00103C2F80032002030BD164BD3F80D
:1017A0000C021043C3F80C028C8848690D6844EAA7
:1017B0000544483043F8304088894C698D6840EAD8
:1017C0000540483403EBC4035860C8E70A48D0F822
:1017D00004321343C0F80432CBE70748D0F8143280
:1017E0001343C0F81432CDE70349D1F81C321A4331
:1017F000C1F81C22C9E700BF0064004070B5044670
:1018000090F82050EDB2012D06D0436A43F4002336
:1018100043620125284670BD022380F8203002680B
:10182000136823F001031360FFF7D6FB0646236815
:101830005B6813F0010F0CD0FFF7CEFB831B0A2B64
:10184000F5D9636A43F400336362052384F82030DA
:10185000E0E700256562DDE790F820C00CF1FF3C71
:101860005FFA8CFCBCF1010F00F2958030B451B9E5
:101870000468E46814F0030F10D1436A43F40013C2
:101880004362012077E00468246914F0030F05D156
:10189000436A43F40013436201206CE001F11B042E
:1018A000240105682C5904F004049460002C64D1D0
:1018B00001F11B04240105682C59640D14600468AF
:1018C00001F11B0C4FEA0C1C54F80C4004F002040C
:1018D000D46004686444646804F00F04146104680C
:1018E00064446468C4F307249461046864446468CD
:1018F000240C5461026802EB0112D2F8B8211A706C
:10190000026802EB0112D2F8B821C2F307225A7022
:10191000026802EB0112D2F8B821C2F307429A70B2
:10192000026802EB0112D2F8B821120EDA700268D6
:1019300002EB0112D2F8BC211A71026802EB01120B
:10194000D2F8BC21C2F307225A71026802EB0112DD
:10195000D2F8BC21C2F307429A71026802EB01126D
:10196000D2F8BC21120EDA7179B90268D36843F05B
:101970002003D360002030BC704701F11B04240118
:1019800005682C59E408546099E70268136943F02C
:1019900020031361EEE7436A43F48023436201208E
:1019A000704790F82030013BDBB2012B01D90020B9
:1019B000704721B90368D86800F0030070470368D6
:1019C000186900F00300704790F82030013BDBB24B
:1019D000012B05D9436A43F48023436201207047F9
:1019E000026853691943516100207047074AD36860
:1019F00023F4E0631B041B0C000200F4E0600343CB
:101A000043F0BF6343F40033D360704700ED00E060
:101A100000B5194BDB68C3F30223C3F1070CBCF11B
:101A2000040F28BF4FF0040C03F1040EBEF1060FA3
:101A300018D9033B4FF0FF3E0EFA0CFC21EA0C01D3
:101A400099400EFA03F322EA0303194300280BDB43
:101A50000901C9B200F1604000F5614080F800134F
:101A60005DF804FB0023E5E700F00F000901C9B2AF
:101A7000024B1954F4E700BF00ED00E014ED00E064
:101A8000002807DB00F01F02400901239340024AAF
:101A900042F82030704700BF00E100E030B4056834
:101AA0002C6824F480242C60046863608368402BD5
:101AB00005D0036899600368DA6030BC704703683A
:101AC0009A600368D960F8E710B40368D9B2103996
:101AD0000C4AA2FB014212090B4CA25CC2655F29B1
:101AE00009D923F47F7323F0030304338365806DE6
:101AF0005DF8044B704723F47F7323F00303836581
:101B0000F5E700BFABAAAAAA80C40008836A82696D
:101B100092B9012B0AD0022B02D00BB100207047E2
:101B2000C36A13F0807F28D100207047C36AB3F1E5
:101B3000C07F24D000207047B2F5005F09D0022B8F
:101B400025D9032B25D1C36A13F0807F23D1002030
:101B50007047032B03D8DFE803F01404140A0020B5
:101B60007047C36A13F0807F0DD100207047C36AAD
:101B7000B3F1C07F09D000207047012070470120D9
:101B800070470120704701207047012070470120F5
:101B900070470020704701207047000070B5044670
:101BA000FFF71AFA002C5BD00546022384F8353083
:101BB000002384F834302268136823F00103136093
:101BC00023681A6812F0010F0AD0FFF705FA431BC9
:101BD000052BF5D920236365032084F8350070BDFB
:101BE0001A68204810406168A2680A43E1680A4305
:101BF00021690A4361690A43A1690A43E1690A4309
:101C0000216A0A430243616A04291ED01A602668C9
:101C1000756925F00705636A1D43042B07D1A36A84
:101C20001D43E36A1BB12046FFF770FF90B9756151
:101C30002046FFF749FFE26D3F2393408360002079
:101C40006065012384F83530C9E7E16A206B014300
:101C50000A43DBE740236365012084F83500BEE7D3
:101C60000120BCE73F8010F038B50446856D90F840
:101C7000340001282BD0012084F8340094F835007A
:101C8000C0B2012804D0002384F83430022038BDCB
:101C9000022084F83500002060652046FFF7FEFE34
:101CA000E26D3F239340AB602268136843F0160354
:101CB0001360236C23B12268136843F00803136098
:101CC0002268136843F0010313600020DFE702205D
:101CD000DDE790F83530DBB2022B03D0802343657B
:101CE00001207047052380F835300268136823F01F
:101CF0000103136000207047F0B583B00446002351
:101D00000193724B1D68724BA3FB0535AD0A876DBD
:101D10003E68C26D08239340334210D003681A68AE
:101D200012F0040F0BD01A6822F004021A60C26D80
:101D300008239340BB60436D43F001034365E26DAC
:101D400001239340334209D02268526912F0800F78
:101D500004D0BB60636D43F002036365E26D04234E
:101D60009340334209D02268126812F0020F04D067
:101D7000BB60636D43F004036365E26D1023934021
:101D8000334224D02268126812F0080F1FD0BB60C3
:101D900023681A6812F4802F0DD01B6813F4002FEB
:101DA00004D1236C9BB12046984710E0A36C73B11B
:101DB000204698470BE01A6812F4807F03D11A6816
:101DC00022F008021A60236C0BB120469847E26D9E
:101DD00020239340334255D02268126812F0100F2E
:101DE00050D0BB6094F83530DBB2052B0ED02368A1
:101DF0001A6812F4802F33D01B6813F4002F2AD1F5
:101E0000636C002B3ED0204698473BE02268136865
:101E100023F0160313602268536923F08003536193
:101E2000236CA3B12268136823F008031360E26DEA
:101E30003F239340BB60012384F83530002384F8AE
:101E40003430236D002B3FD0204698473CE0A36CF4
:101E5000002BE7D1EBE7E36BA3B12046984711E0F5
:101E60001A6812F4807F09D11A6822F010021A60F1
:101E7000012384F83530002384F83430E36B0BB150
:101E800020469847636DFBB1636D13F0010F17D0C7
:101E9000052384F835302268136823F001031360AA
:101EA000019B01330193AB4204D823681B6813F0F4
:101EB000010FF5D1012384F83530002384F8343044
:101EC000E36C0BB12046984703B0F0BD1000002032
:101ED000B5814E1B406D704700230F2B00F2DE8052
:101EE00070B582B060E085685E000324B44025EAE6
:101EF0000405CC68B4402C438460456825EA02059B
:101F00004C68C4F300129A402A4342605AE0DC084D
:101F1000083450F8246003F0070295000F22AA400D
:101F200026EA020E0A69AA4042EA0E0240F824207C
:101F30005CE0062200E0002202FA0EF22A4302349C
:101F4000574D45F82420574A94686FEA0C0224EA5A
:101F50000C054E6816F4801F01D04CEA0405514C64
:101F6000A560E46802EA04054E6816F4001F01D07B
:101F70004CEA04054B4CE560646802EA04054E68CF
:101F800016F4003F01D04CEA0405464C6560246815
:101F900022404D6815F4803F01D04CEA0402414CC8
:101FA000226001330F2B77D801229A400C6804EA93
:101FB000020C32EA0404F4D14C6804F00304013C3E
:101FC000012C90D94A6802F00302032A09D0C468A0
:101FD0005D000322AA4024EA02048A68AA40224340
:101FE000C2604A6802F00302022A90D004684FEAF5
:101FF000430E032202FA0EF224EA02044A6802F0B7
:10200000030202FA0EF2224302604A6812F4403FD1
:10201000C7D000220192244A546C44F48044546492
:10202000526C02F480420192019A9C08A51C1C4A41
:1020300052F8255003F003024FEA820E0F2202FAF3
:102040000EF225EA0205194A90423FF474AF02F5F8
:102050008062904216D002F58062904214D002F560
:102060008062904212D002F58062904210D002F558
:10207000806290420ED002F5806290423FF459AFE8
:10208000072259E7012257E7022255E7032253E7C7
:10209000042251E705224FE702B070BD704700BF30
:1020A00000380140003C014000380240000002407E
:1020B0000369194201D001207047002070470000D9
:1020C00010B582B000230193194B1A6C42F0805274
:1020D0001A641B6C03F080530193019B154B012282
:1020E0001A64FEF779FF0446134B5B6813F4803FD4
:1020F00008D1FEF771FF001BB0F57A7FF4D90320F9
:1021000002B010BD0B4B01225A64FEF765FF044676
:10211000094B5B6813F4003F07D1FEF75DFF001B1E
:10212000B0F57A7FF4D90320EAE70020E8E700BFA2
:102130000038024000000E4200700040002800F00D
:102140009B8070B50D4604464F4B1B6803F00F0390
:102150008B4208D2CBB24C4A1370136803F00F03C2
:102160008B4240F08B80236813F0020F17D013F0DE
:10217000040F04D0454A936843F4E0539360236806
:1021800013F0080F04D0414A936843F4604393600E
:102190003E4A936823F0F003A1680B4393602368E1
:1021A00013F0010F32D06368012B21D09A1E012A4F
:1021B00025D9364A126812F0020F61D033498A6875
:1021C00022F0030213438B60FEF706FF06462F4BF7
:1021D0009B6803F00C036268B3EB820F16D0FEF726
:1021E000FBFE801B41F288339842F0D9032042E085
:1021F000264A126812F4003FE0D101203BE0234A56
:10220000126812F0007FD9D1012034E01E4B1B6808
:1022100003F00F03AB4207D9EAB21B4B1A701B68DD
:1022200003F00F03AB422DD1236813F0040F06D047
:10223000164A936823F4E053E1680B4393602368E4
:1022400013F0080F07D0114A936823F46043216903
:1022500043EAC103936000F09FFA0C4B9B68C3F301
:1022600003130B4AD35CD8400A4B18600A4B18681A
:1022700005F06EFB002070BD012070470120FAE7D9
:102280000120F8E70120F6E7003C02400038024058
:1022900000C500081000002004000020014B186851
:1022A000704700BF1000002008B5FFF7F7FF044B90
:1022B0009B68C3F38223034AD35CD84008BD00BFA8
:1022C0000038024010C5000808B5FFF7E7FF044BCF
:1022D0009B68C3F34233034AD35CD84008BD00BFB8
:1022E0000038024010C500080F2303600B4B9A68AA
:1022F00002F0030242609A6802F0F00282609A687B
:1023000002F4E052C2609B68DB0803F4E05303610F
:10231000034B1B6803F00F030B607047003802404B
:10232000003C0240F0B583B00446066816F0010692
:102330000DD0964AD2F88C3023F0C063816B0B43EA
:10234000C2F88C30836B002B00F09B800026236842
:1023500013F0020F0BD08D4AD2F88C3023F0C0530B
:10236000E16B0B43C2F88C30E36B03B9012625689F
:1023700015F004050FD0854AD2F88C3023F44013B1
:10238000216B0B43C2F88C30236BB3F5801F7AD0DE
:10239000002B7AD00025236813F0080F0ED07B4A5B
:1023A000D2F88C3023F44003616B0B43C2F88C30BD
:1023B000636BB3F5800F6AD003B90125236813F06E
:1023C000200F66D1236813F0100F04D094F8582022
:1023D0006F4BC3F8E021236813F0800F08D06B4ADD
:1023E000D2F8943023F44003E16C0B43C2F89430EC
:1023F000236813F0400F08D0644AD2F8943023F0D9
:102400008063A16C0B43C2F89430236813F4807F7F
:102410000DD05E4AD2F8943023F00063616D0B4317
:10242000C2F89430636DB3F1006F00F09B802368B5
:1024300013F4007F08D0554AD2F8943023F080532B
:10244000616C0B43C2F89430236813F4806F0CD096
:102450004E4AD2F8943023F00053216D0B43C2F85A
:102460009430236DB3F1005F7ED0002E7CD12368C1
:10247000B3F5006F78D0012D00F02581002003B066
:10248000F0BD012663E7012682E7012583E70126E7
:1024900092E7002301933D4B1A6C42F080521A647C
:1024A0001B6C03F080530193019B3A4A136843F479
:1024B00080731360FEF790FD0746364B1B6813F4DC
:1024C000807F06D1FEF788FDC01B0228F5D90320C6
:1024D000D5E72E4B1B6F13F4407314D0226C02F41B
:1024E00040729A420FD0294B1A6F22F440722A4947
:1024F0000120C1F8400E0020C1F8400E1A671B6F82
:1025000013F0010F12D1236C03F44072B2F5407F37
:102510001DD01E4A936823F4F81393601B490B6F78
:10252000226CC2F30B0213430B674BE7FEF754FD1B
:102530000746164B1B6F13F0020FE4D1FEF74CFD5C
:10254000C01B41F288339842F3D9032097E70F4923
:102550008A6822F4F81223F0704323F44073134383
:102560008B60DBE7012562E70B4B00229A66FEF7E2
:1025700033FD0646054B1B6813F0006F0ED0FEF7C7
:102580002BFD801B0228F5D9032078E70038024094
:10259000001047420070004000004742236813F0DB
:1025A000010F01D0A26B22B113F0020F15D0E36B23
:1025B0009BB9774AD2F88400D2F884106368A66881
:1025C00043EA861300F44030034301F070610B438B
:1025D000616943EA0173C2F88430236813F0040F81
:1025E00003D0226BB2F5801F06D013F0080F20D065
:1025F000636BB3F5800F1CD1654AD2F88400D2F822
:1026000084106368A66843EA861300F440300343ED
:10261000206943EA006301F0E0410B43C2F88430D3
:10262000D2F88C3023F01F03A16A01390B43C2F8A2
:102630008C30236813F4806F03D0236DB3F1005FF7
:1026400028D0236813F4006F11D06368A26843EAAE
:102650008213E2685208013A43EA0243226943EADC
:102660000263626943EA0273494AC2F88430494B03
:1026700001229A66FEF7B0FC0646454B1B6813F034
:10268000006F7FF4F8AEFEF7A7FC801B0228F4D998
:102690000320F4E63E48D0F88430C3F301435A1CCB
:1026A000D0F884606368A16843EA8113E16849084F
:1026B000013943EA014343EA426306F0E04213432F
:1026C000C0F88430BDE7334B00221A67FEF784FC64
:1026D00005462F4B1B6813F0005F06D0FEF77CFC0D
:1026E000401B0228F5D90320C9E6236813F0040F24
:1026F00001D0226B22B113F0080F1AD0636BC3B95B
:10270000234AD2F88810A369E06943EA801301F4F0
:1027100040310B43616A43EA0163C2F88830D2F862
:102720008C3023F4F853E16A013943EA0123C2F8FB
:102730008C30236813F4807F03D0636DB3F1006F96
:1027400011D0144B01221A67FEF746FC0446104BC9
:102750001B6813F0005F18D1FEF73EFC001B022837
:10276000F5D903208BE60A48D0F88810A369E269FE
:1027700043EA8213226A5208013A43EA024301F013
:1027800070621343C0F88830DBE7002077E600BFB3
:10279000003802400000474208B55C4B9B6803F0DC
:1027A0000C03082B07D00C2B5BD0042B01D058480E
:1027B00008BD5848FCE7554B5A6802F03F025B6879
:1027C00013F4800F2AD0514B5968C1F3881C4FEA8B
:1027D0004C11B1EB0C006EEB0E0E4FEA8E1343EA78
:1027E00090638101091A63EB0E03DB0043EA517326
:1027F000C90011EB0C0C43F10003590200234FEA0E
:102800004C2041EADC51FEF73FFA404B5B68C3F3D2
:10281000014301335B00B0FBF3F0C9E73B4B596860
:10282000C1F3881C4FEA4C11B1EB0C006EEB0E0E9D
:102830004FEA8E1343EA90638101091A63EB0E039A
:10284000DB0043EA5173C90011EB0C0C43F10003A8
:10285000990200234FEA8C2041EA9C51FEF714FABA
:10286000D3E72A4B5A6802F03F025B6813F4800FEB
:1028700028D0264B5968C1F3881C4FEA4C11B1EBA4
:102880000C006EEB0E0E4FEA8E1343EA906381014B
:10289000091A63EB0E03DB0043EA5173C90011EB25
:1028A0000C0C43F10003590200234FEA4C2041EA8B
:1028B000DC51FEF7E9F9154B5B68C3F30273B0FB1B
:1028C000F3F075E7114B5968C1F3881C4FEA4C11BE
:1028D000B1EB0C006EEB0E0E4FEA8E1343EA9063E1
:1028E0008101091A63EB0E03DB0043EA5173C9004F
:1028F00011EB0C0C43F10003990200234FEA8C20EA
:1029000041EA9C51FEF7C0F9D5E700BF003802400C
:102910000024F40000127A00002800F0018270B553
:1029200082B00446036813F0010F41D0994B9B68B5
:1029300003F00C03042B32D0964B9B6803F00C037E
:10294000082B27D0934B9B6803F00C030C2B59D01A
:102950006368B3F5803F5BD0B3F5A02F5ED08D4B9D
:102960001A6822F480321A601A6822F480221A60EF
:102970006368002B5CD0FEF72FFB0546854B1B6878
:1029800013F4003F14D1FEF727FB401B6428F5D950
:102990000320CCE17F4B5B6813F4800FD2D07D4BDA
:1029A0001B6813F4003F03D06368002B00F0BA816A
:1029B000236813F0020F60D0764B9B6813F00C0F66
:1029C0004AD0744B9B6803F00C03082B3FD0714B2B
:1029D0009B6803F00C030C2B69D0E368002B75D0C7
:1029E0006D4B01221A60FEF7F7FA0546694B1B682A
:1029F00013F0020F61D1FEF7EFFA401B0228F5D960
:102A0000032094E1634B5B6813F4800FA0D0C6E70A
:102A1000604A136843F480331360A9E75D4B1A687A
:102A200042F480221A601A6842F480321A609FE7EA
:102A3000FEF7D2FA0546574B1B6813F4003FB7D098
:102A4000FEF7CAFA401B6428F5D903206FE1514B09
:102A50005B6813F4800FBAD14E4B1B6813F0020F62
:102A600003D0E368012B40F05F814A4A136823F0EA
:102A7000F803216943EAC1031360236813F0080FC8
:102A800049D06369002B33D0434B0122C3F8802E19
:102A9000FEF7A2FA05463F4B5B6F13F0020F3AD1E7
:102AA000FEF79AFA401B0228F5D903203FE1394B83
:102AB0005B6813F4800F90D1CEE7364A136823F099
:102AC000F803216943EAC1031360D6E7324B0022C1
:102AD0001A60FEF781FA05462E4B1B6813F0020FB1
:102AE000CBD0FEF779FA401B0228F5D903201EE16E
:102AF000294B0022C3F8802EFEF76EFA0546254BBF
:102B00005B6F13F0020F06D0FEF766FA401B022837
:102B1000F5D903200BE1236813F0040F76D01D4B89
:102B20001B6C13F0805F33D100230193194B1A6C97
:102B300042F080521A641B6C03F080530193019B96
:102B40000125164B1B6813F4807F29D0A368012B45
:102B50003AD0052B3ED00F4B1A6F22F001021A67B4
:102B60001A6F22F004021A67A368002B3CD0FEF70C
:102B700033FA0646074B1B6F13F0020F45D1FEF7E1
:102B80002BFA801B41F288339842F3D90320CEE020
:102B90000025D6E7003802400000474200700040A0
:102BA0006B4A136843F480731360FEF715FA064608
:102BB000674B1B6813F4807FC8D1FEF70DFA801BAA
:102BC0000228F5D90320B2E0624A136F43F00103F3
:102BD0001367C9E75F4B1A6F42F004021A671A6F56
:102BE00042F001021A67BFE7FEF7F6F90646594BB5
:102BF0001B6F13F0020F08D0FEF7EEF9801B41F2B5
:102C000088339842F3D9032091E0EDB9A369002BF2
:102C100000F08C804F4A926802F00C02082A54D0CF
:102C2000022B17D04C4B00221A66FEF7D5F904464A
:102C3000484B1B6813F0007F45D0FEF7CDF9001B11
:102C40000228F5D9032072E0424A136C23F0805326
:102C50001364DBE7404B00221A66FEF7BDF9054618
:102C60003C4B1B6813F0007F06D0FEF7B5F9401B04
:102C70000228F5D903205AE0E369226A1343626A05
:102C800043EA8213A26A5208013A43EA0243E26A23
:102C900043EA0263226B43EA02732E4A53602E4BCF
:102CA00001221A66FEF798F904462A4B1B6813F0B6
:102CB000007F06D1FEF790F9001B0228F5D903200A
:102CC00035E0002033E0002031E0012B31D0214BF2
:102CD0005B6803F48001E26991422CD103F03F026A
:102CE000216A8A4229D1616A47F6C0721A40B2EB62
:102CF000811F24D103F44031A26A5208013AB1EB9A
:102D0000024F1ED103F07062E16AB2EB016F1AD17B
:102D100003F0E043226BB3EB027F16D1002006E004
:102D200001207047012002E0012000E0002002B0F5
:102D300070BD0120FBE70120F9E70120F7E7012042
:102D4000F5E70120F3E70120F1E70120EFE700BFFD
:102D500000700040003802400000474238B5044689
:102D60000268D36823F0A003D360FEF735F9054667
:102D70002368DB6813F0200F07D1FEF72DF9401B05
:102D8000B0F57A7FF4D9032000E0002038BD70B59B
:102D90000368DA6812F0400F02D00025284670BDA3
:102DA0000446DA6842F08002DA60FEF715F906465A
:102DB00000252368DB6813F0400FEFD1002DEDD123
:102DC000FEF70AF9831BB3F57A7FF2D90423637700
:102DD0000125EEE70268D36823F08003D36003681F
:102DE0009B6813F0200F01D00020704710B50446F7
:102DF000FFF7B4FF10B104236377012010BD002852
:102E000041D010B50446437FE3B1022363772368C2
:102E1000CA225A62236853225A622046FFF7B7FF3C
:102E2000A0B158B92268136C23F48023136422687C
:102E3000136CA1690B431364012363772368FF229A
:102E40005A6210BD037704F0DFFADEE72268936868
:102E500023F4E00323F04003936021688A686368E9
:102E6000206903436069034313438B602368E2686E
:102E70001A6122681369A16843EA0143136120467D
:102E8000FFF7A8FFCDE701207047002303E00133DF
:102E9000DBB20A38C0B20928F9D81B01DBB21843EB
:102EA0007047037F012B59D070B504460E460123AD
:102EB0000377022343774ABB03689B6813F0400FF4
:102EC00001D10023CB703078FFF7DFFF0504707865
:102ED000FFF7DBFF45EA0025B078FFF7D6FF054393
:102EE000F07845EA80552368CA225A622368532243
:102EF0005A622046FFF74BFFD0B108B90123637730
:102F00002368FF225A620023237770BD03689B6801
:102F100013F0400F01D10023CB70337875782D0268
:102F200045EA0345B0780543F07845EA8055DAE78D
:102F3000236805F07F3525F0FE451D602268936803
:102F400023F48023936021688B68F2683069024320
:102F500013438B602046FFF73DFFCEE7022070470A
:102F6000037F012B48D070B504460E46012303773A
:102F7000022343773AB94B7813F0100F03D003F0D4
:102F8000EF030A334B7012BBF078FFF77EFF0504A6
:102F90007078FFF77AFF45EA0025B078FFF775FFF4
:102FA0000543307845EA40352368CA225A622368CF
:102FB00053225A622046FFF7EAFE98B108B901236E
:102FC00063772368FF225A620023237770BDF3786A
:102FD00075782D0245EA0345B0780543307845EA17
:102FE0004035E1E7236825F07F4525F0C0055D60A9
:102FF0002046FFF7EFFEE1E702207047836B1A6877
:10300000D36B43F48073D3637047000070B582B014
:10301000044600230193006801F0D5FC054610B179
:10302000284602B070BD206801F0C6FF38B9012300
:10303000A364A36C012B0BD02E46284614E000237A
:10304000A364206801F0BFFC0028F2D00546E7E742
:103050000021206801F01EFE0028EDD04FF08055C1
:10306000DEE7019B01330193019A4FF6FE739A420A
:1030700013D896B90021206801F00CFEE0B912497E
:10308000206801F0E5FE0646C0B90021206801F085
:1030900085FCC30FE5D01E46E3E7019A4FF6FE73A9
:1030A0009A420ED810F0804302D001236364B7E740
:1030B000002262641D46B3E70546B1E74FF0805534
:1030C000AEE74FF08075ABE7000010C1F8B5846A39
:1030D000C66AA6B9F8BD386801F03BFC2070C0F3A1
:1030E00007236370C0F30743A370000EE07004343D
:1030F000043E0135072DEED9BC62FE62EAE70746C1
:103100000025F7E7F0B583B0046A466ADEB903B07C
:10311000F0BD23780193627843EA02230193A278F9
:1031200043EA02430193E27843EA026301930434E1
:10313000043E01A9386801F00FFC0135072DE8D9DC
:103140003C627E62E3E707460025F7E7F0B589B009
:1031500004460F46FDF740FF064600230093019307
:103160000821206801F0ECFC054610B1284609B0A2
:10317000F0BD216D0904206801F08CFD0546002892
:10318000F4D14FF0FF3302930823039330230493C9
:1031900002230593002306930123079302A92068C5
:1031A00001F0FFFB206801F0A5FD054658B1DDE701
:1031B00001F0CFFB4DF825000135FDF70DFF831B16
:1031C000B3F1FF3F3FD02068436B13F02A0F07D1C4
:1031D000436B13F4001FEBD1436B13F4005FECD18E
:1031E000436B13F0080F25D1436B13F0020F24D16A
:1031F000456B15F0200523D140F23A538363019AC1
:10320000130203F47F0343EA0263110A01F47F41CE
:103210000B4343EA12633B60009A130203F47F03FB
:1032200043EA0263110A01F47F410B4343EA12634C
:103230007B609BE70825856398E70225856395E712
:103240002025856392E74FF000458FE710B582B0E7
:103250000446002100910191006801F09FFB10F0ED
:10326000007F13D169462046FFF770FF80B9019BAC
:1032700013F4802F0ED0216D0904206801F00AFD9F
:1032800030B90221206801F01DFD01E04FF400601B
:1032900002B010BD4FF08060FAE710B582B004466E
:1032A000002100910191006801F078FB10F0007F8F
:1032B00013D169462046FFF749FF80B9019B13F4FB
:1032C000803F0ED0216D0904206801F0E3FC30B985
:1032D0000021206801F0F6FC01E04FF4006002B02C
:1032E00010BD4FF08060FAE770B581B104460E461C
:1032F000016D0904006801F015FD054608B1284676
:1033000070BD0021206801F049FB3060F7E74FF005
:103310000065F4E72DE9F04387B0044691B1164605
:103320001F460A4690F83450EDB2012D7DD100239E
:103330008363F019E36D98420AD9A36B43F00073DD
:10334000A36373E0836B43F00063836301256DE047
:10335000032384F8343021680023CB622068C16BDA
:1033600041F49571C163216C3348C863216C3348C3
:10337000C864216C0B65216C8B60206C01680B6844
:1033800023F0C003806803430B6021684FEA47299C
:103390004FEA99038031206CFEF766FC804668BBDB
:1033A000274B0122C3F88C25636C934200D0760230
:1033B0004FF0FF330093CDF8049090230293022343
:1033C000039300230493012305936946206801F0C9
:1033D000E8FA012F22D9822323633146206801F0C5
:1033E000DFFB38B32368174A9A63A36B1843A063C3
:1033F000012384F834300023236317E02268D36B61
:1034000023F49573D36323680E4A9A63A36B43F046
:103410008043A363012384F8343007E081232363CE
:103420003146206801F0A4FBDBE70225284607B0FF
:10343000BDE8F0834546F9E77B350008653A0008AA
:1034400000802542FF054000F0B587B00446002902
:1034500038D01E460F4690F83450EDB2012D7FD182
:10346000002383639319C16D8B4231D8032380F805
:10347000343003680021D9620068C36B43F01A033B
:10348000C363E36B3848D863E36B3848D864E36BB5
:103490001965636C012B00D05202012E1DD9A023A7
:1034A00023631146206801F0ABFBE8B12368304A82
:1034B0009A63A36B1843A063012384F8343000237C
:1034C00023634EE0836B43F000638363012548E090
:1034D000836B43F00073836343E0902323631146BF
:1034E000206801F075FBE0E7224B0122C3F88C2530
:1034F000E36B40229A60E16B0A68136823F0C00313
:1035000089680B43136022687602B308803239461B
:10351000E06BFEF7A9FB074688B12268D36B23F066
:103520001A03D3632368124A9A63A36B43F0804360
:10353000A363012384F834300023236311E04FF0A8
:10354000FF33009301969023029300230393049387
:10355000012305936946206801F023FA3D4600E007
:103560000225284607B0F0BDFD2F0008653A000887
:10357000FF05400000802542704710B5846B236B27
:10358000822B11D02268D36A23F00803D362236808
:1035900040F23A529A63012384F8343000232363C3
:1035A000204603F0E2FB10BD206801F041FB03461A
:1035B0000028E7D0A26B1343A3632046FFF7DCFF8C
:1035C000E0E70000436E9B0F0B70436EC3F3836311
:1035D0004B7090F8673003F003038B7090F86630FF
:1035E000CB7090F865300B7190F864304B71836E3E
:1035F0001B0DCB80B0F86A3003F00F030B72836EA3
:10360000C3F3C0334B72836EC3F380338B72836E0C
:10361000C3F34033CB72836EC3F300330B730023C9
:103620004B73436C002B40F08680826E40F6FC7337
:1036300003EA8203C26E43EA92730B61C36EC3F363
:10364000C2630B7590F86F3003F007034B75C36EC0
:10365000C3F342538B75C36EC3F38243CB75C36E02
:10366000C3F3C2330B760B69013343650A7E02F064
:1036700007020232934043650A7A02F00F0C0122DE
:1036800002FA0CF28265520A02FB03F3C3654FF49F
:1036900000730366C36EC3F380334B76C36EC3F30C
:1036A000C6138B76C36E03F07F03CB76036FDB0FFD
:1036B0000B77036FC3F341734B77036FC3F38263DD
:1036C0008B77036FC3F38353CB77036FC3F34053FD
:1036D00081F82030002381F82130B0F8722002F008
:1036E000010281F82220026FC2F3C03281F8232048
:1036F000026FC2F3803281F82420026FC2F340329D
:1037000081F82520026FC2F3003281F82620026F73
:10371000C2F3812281F82720026FC2F3012281F8CF
:103720002820026FC2F3460281F82920012281F885
:103730002A2018467047012B11D1836E1B0403F415
:103740007C13B0F86E2013430B610B6901339B02AD
:103750004365C3654FF40073836503669AE70368A6
:10376000054A9A63836B43F080538363012380F897
:1037700034301846704700BFFF05400070B590B068
:1037800004460123ADF81230006801F0EEF800287D
:103790006CD0636C032B45D1636C032B5DD1636CE0
:1037A000032B1DD0BDF8121021650904206801F01B
:1037B00014FB054600285BD10021206801F0EEF8DB
:1037C00060660421206801F0E9F8A06608212068FD
:1037D00001F0E4F8E0660C21206801F0DFF82067D2
:1037E0000421206801F0DAF8000DE06405A9204604
:1037F000FFF7E8FE00283ED1226D12040023206866
:1038000001F030FA054698BB234653F8106B93E855
:1038100007008DE80700043494E80E00304601F0FC
:103820007FF825E0206801F0C3FA054600BB0021BF
:10383000206801F0B3F860670421206801F0AEF859
:10384000A0670821206801F0A9F8E0670C21206832
:1038500001F0A4F8C4F880009EE70DF11201206881
:1038600001F060FB0546002899D001E04FF080652B
:10387000284610B070BD4FF08055F9E770B58AB09A
:103880000446002304930593069307930893762335
:1038900009930AAB13E907008DE8070004AB0ECBD0
:1038A000206801F03DF818B1012528460AB070BD26
:1038B00005461A4E0023C6F8A030206801F051F8E2
:1038C0000123C6F8A0300220FDF78CFB2046FFF74D
:1038D0009DFB30B1012584F83450A36B0343A363EF
:1038E000E3E72046FFF74AFF30B1012584F8345062
:1038F000A36B0343A363D8E74FF40071206801F082
:103900001FF90028D1D0236805499963A36B0343AD
:10391000A363012584F83450C7E700BF0080254227
:10392000FF054000A8B110B5044690F8343063B1EB
:10393000032384F834302046FFF7A0FF58B9A06372
:103940002063012384F8343010BD037703F0E0FED8
:10395000EEE7012070470120F6E7436C0B60836CB3
:103960004B60C36C8B60036DCB60436D0B61836DEB
:103970004B61C36D8B61036ECB610020704700000B
:1039800030B58BB004460D46032380F83430436CC9
:10399000032B1CD0B1F5805F08D0B1F5006F0AD0C1
:1039A00079B1836B43F00063836314E0836B43F06E
:1039B000805383630FE0FFF749FCA36B0343A363CA
:1039C00009E0FFF76AFCA36B0343A36303E0836B87
:1039D00043F080538363A36BC3B12368174A9A6390
:1039E000012584F834504FF40071206801F0A8F8E4
:1039F00030B1236811499963A36B0343A363012585
:103A0000012384F8343028460BB030BD636804933A
:103A1000A3680593E3680693079563690893A36910
:103A200009930AAB13E907008DE8070004AB0ECB3E
:103A3000206800F075FF0025D5E700BFFF054000B6
:103A400010B582B004460023019301A9FFF74CFC96
:103A500010B1A36B0343A3630198C0F3432002B0EA
:103A600010BD000010B5846BFEF734FA02280AD0AE
:103A7000236C5B6DE26B526D012B05D0012A03D0E4
:103A80002046FFF779FD10BD23680F4A9A6322682C
:103A9000D36B23F49D73D363A36B43F08043A36381
:103AA0002046FFF7CDFF0538012805D9012384F80A
:103AB000343000232363E3E7206801F0B9F8A36BF7
:103AC0000343A363F2E700BFFF05400010B5846B1A
:103AD000236840F23A529A632046FFF7B1FF012370
:103AE00084F83430002323630538012805D9A36BFB
:103AF00053B9204603F031F910BD206801F098F861
:103B0000A36B0343A363F2E72046FFF735FDF3E71A
:103B100010B5846B236840F23A529A632046FFF74F
:103B20008FFF012384F834300023236305380128F4
:103B300005D9A36B53B9204603F00FF910BD2068D7
:103B400001F076F8A36B0343A363F2E72046FFF787
:103B500013FDF3E738B50446056B03685A6B12F49E
:103B6000004F02D015F0080F28D15A6B12F4807F55
:103B70005AD04FF480729A632268D36B23F4414386
:103B800023F03A03D3632268D36A23F00103D3629C
:103B900015F0080F26D015F0220F12D1236840F23D
:103BA0003A529A63012384F834300023236315F0DA
:103BB000030F13D0204603F0D8F801E0FFF786FA90
:103BC00038BD206801F034F803460028E6D0A26B27
:103BD0001343A3632046FFF7CFFCDFE7204603F043
:103BE000C0F8EDE715F0800FEAD015F0200F0ED1E8
:103BF00015F0030FE4D12268D36A23F00803D362DF
:103C0000012384F83430204603F0ABF8D8E720686D
:103C100001F00EF803460028EAD0A26B1343A36319
:103C20002046FFF7A9FCE3E75A6B12F4804F02D05D
:103C300015F0080F4AD15A6B12F03A0FC0D05A6BE8
:103C400012F0020F03D0A26B42F00202A2635A6B81
:103C500012F0080F03D0A26B42F00802A2635A6B65
:103C600012F0200F03D0A26B42F02002A2635A6B25
:103C700012F0100F03D0A26B42F01002A26340F2C8
:103C80003A529A632268D36B23F49D73D3632068FE
:103C900000F0CEFFA36B0343A36315F0080F19D107
:103CA00015F0800F8CD015F0300F1CD115F0030FDC
:103CB00026D0236C174A1A65206CFEF70AF80028F4
:103CC0003FF47EAF206CFFF723FF79E72046FFF734
:103CD00019FA75E7012384F8343000232363204662
:103CE000FFF74AFC6CE7E36B0B4A1A65E06BFDF7E4
:103CF000F0FF00283FF464AFE06BFFF7E7FE5FE7FB
:103D00000023A363012284F834202363204603F0B8
:103D100024F855E7113B0008CD3A000810B4036AB7
:103D2000046A24F001040462846924F0F00C4CEA73
:103D3000021223F00A030B43826103625DF8044B15
:103D4000704730B4046A24F0100404628469056A80
:103D500024F4407C4CEA022C2CF4704C1B039BB2E4
:103D600043EA0C0325F0A005090101F0A001294355
:103D70008361016230BC704710B4046A24F01004FF
:103D800004628469036A24F4704C4CEA023223F022
:103D9000A00343EA0113826103625DF8044B70479C
:103DA00030B4046A24F480740462C469056A24F09F
:103DB000030C4CEA020C2CF0F00C1B01DBB243EAC2
:103DC0000C0325F42065090201F420612943C36135
:103DD000016230BC704730B4046A24F48054046239
:103DE000C469056A24F4407C4CEA022C2CF4704C23
:103DF0001B039BB243EA0C0325F42045090301F49D
:103E000020412943C361016230BC7047836823F0BD
:103E100070030B4343F007038360704790F83D3015
:103E2000DBB2012B37D1022380F83D300268D36822
:103E300043F00103D3600368194A934220D0B3F1E1
:103E4000804F1DD0A2F57C42934219D002F58062CA
:103E5000934215D002F58062934211D002F5784268
:103E600093420DD002F57052934209D0A2F59432DC
:103E7000934205D01A6842F001021A600020704790
:103E80009A6802F00702062A07D01A6842F0010277
:103E90001A6000207047012070470020704700BF63
:103EA0000000014070477047704710B50446036832
:103EB0001A6912F0020F11D0DA6812F0020F0DD059
:103EC0006FF002021A610123037703689B6913F004
:103ED000030F70D004F058F90023237723681A6980
:103EE00012F0040F12D0DA6812F0040F0ED06FF047
:103EF00004021A610223237723689B6913F4407F2D
:103F00005FD0204604F040F90023237723681A6924
:103F100012F0080F12D0DA6812F0080F0ED06FF00E
:103F200008021A61042323772368DB6913F0030F67
:103F30004ED0204604F028F90023237723681A691D
:103F400012F0100F12D0DA6812F0100F0ED06FF0CE
:103F500010021A61082323772368DB6913F4407F7A
:103F60003DD0204604F010F90023237723681A6916
:103F700012F0010F03D0DA6812F0010F36D1236876
:103F80001A6912F0800F03D0DA6812F0800F34D172
:103F900023681A6912F0400F03D0DA6812F0400F5C
:103FA00032D123681A6912F0200F03D0DA6812F0B8
:103FB000200F30D110BDFFF775FF2046FFF773FFCC
:103FC0008AE72046FFF76EFF2046FFF76CFF9BE76E
:103FD0002046FFF767FF2046FFF765FFACE7204666
:103FE000FFF760FF2046FFF75EFFBDE76FF00102BD
:103FF0001A61204603F098F9C1E76FF080021A6158
:10400000204600F008FBC3E76FF040021A6120462B
:10401000FFF74AFFC5E76FF020021A61204600F063
:10402000F9FAC7E70368304A904212D0B0F1804FE6
:104030000FD0A2F57C4290420BD002F580629042F4
:1040400007D002F58062904203D002F57842904298
:1040500003D123F070034A681343234A90422AD0C5
:10406000B0F1804F27D0A2F57C42904223D002F5D8
:10407000806290421FD002F5806290421BD002F510
:104080007842904217D002F57052904213D002F558
:10409000806290420FD002F5806290420BD0A2F570
:1040A0009832904207D002F58062904203D002F528
:1040B0008062904203D123F44073CA68134323F013
:1040C00080034A69134303608B68C3620B68836291
:1040D000054B984203D003F58063984201D10B69E8
:1040E00003630123436170470000014040B310B5F2
:1040F000044690F83D30F3B1022384F83D30214668
:1041000051F8040BFFF78EFF012384F8463084F842
:104110003E3084F83F3084F8403084F8413084F8F1
:10412000423084F8433084F8443084F8453084F8D1
:104130003D30002010BD80F83C3003F0FBFEDBE793
:104140000120704740B310B5044690F83D30F3B1FC
:10415000022384F83D30214651F8040BFFF762FF3B
:10416000012384F8463084F83E3084F83F3084F8E8
:10417000403084F8413084F8423084F8433084F889
:10418000443084F8453084F83D30002010BD80F87C
:104190003C3003F055FFDBE70120704770B49446D4
:1041A000046A24F0010404628469066A184DA84276
:1041B0001CD0B0F1804F19D0164A904216D002F5AB
:1041C0008062904212D002F5806290420ED002F5D9
:1041D000784290420AD002F57052904206D0A2F581
:1041E0009432904202D044F0010203E024F0030232
:1041F00042EA0C0222F0F0021B01DBB2134326F06C
:104200000A0201F00A0111438361016270BC704728
:10421000000001400004004038B590F83C30012B0C
:104220005AD004460D46012380F83C3052B1042A8E
:104230001AD0082A2BD00C2A3BD00120002384F866
:104240003C3038BDCB684A6809680068FFF7A6FFB4
:104250002268936923F00C03936122689369A9682B
:104260000B4393610020E9E7CB684A68096800685E
:10427000FFF767FD2268936923F440639361226826
:104280009369A96843EA012393610020D6E7CB68CC
:104290004A6809680068FFF783FD2268D36923F044
:1042A0000C03D3612268D369A9680B43D361002052
:1042B000C4E7CB684A6809680068FFF78CFD22688C
:1042C000D36923F44063D3612268D369A96843EAC0
:1042D0000123D3610020B1E70220B2E710B4846863
:1042E00024F47F4C42EA03220A4342EA0C02826031
:1042F0005DF8044B704790F83C30012B78D010B536
:104300000446012380F83C30022380F83D300268E7
:10431000936823F47F4323F0770393600B68602B4B
:104320004CD029D8402B54D00CD9502B22D1CA685C
:1043300049680068FFF7F2FC50212068FFF766FD2E
:10434000002005E0202B0DD009D9302B0AD0012008
:10435000012384F83D30002384F83C3010BD0BB1BC
:10436000102B05D119462068FFF750FD0020EFE71C
:104370000120EDE70120EBE7B3F5805F34D0B3F522
:10438000005F0CD1CB684A6889680068FFF7A6FF18
:104390002268936843F4804393600020D8E7702B31
:1043A00024D1CB684A6889680068FFF797FF2268C4
:1043B000936843F0770393600020C9E7CA684968AF
:1043C0000068FFF7D9FC60212068FFF71FFD00207F
:1043D000BEE7CA6849680068FFF7A0FC4021206872
:1043E000FFF714FD0020B3E70020B1E70120AFE79D
:1043F0000220704701F01F01012303FA01FC036A48
:1044000023EA0C030362036A02FA01F10B4303621D
:104410007047000010B504460B4609BB90F83E00FB
:10442000C0B26BBB94F84220D2B2012840F0A48005
:10443000012A40F0A2809BBB022184F83E10002B91
:104440003ED1022184F842100C2B00F29780DFE865
:1044500003F047959595769595957C959595820071
:10446000042905D0082907D090F84100C0B2D8E748
:1044700090F83F00C0B2D4E790F84000C0B2D0E757
:10448000042B05D0082B07D094F84520D2B2CCE7F6
:1044900094F84320D2B2C8E794F84420D2B2C4E7DB
:1044A000042B05D0082B07D0022184F84110C6E761
:1044B000022184F83F10C2E7022184F84010BEE7D1
:1044C000042B05D0082B07D0022184F84510BBE748
:1044D000022184F84310B7E7022184F84410B3E7BF
:1044E0002168CA6842F00202CA60012219462068A7
:1044F000FFF780FF2368234A934232D0B3F1804F05
:104500002FD0A2F57C4293422BD002F580629342D9
:1045100027D002F58062934223D002F5784293427D
:104520001FD002F5705293421BD0A2F594329342F1
:1045300017D01A6842F001021A6000201DE02168BD
:10454000CA6842F00402CA60CFE72168CA6842F034
:104550000802CA60C9E72168CA6842F01002CA604E
:10456000C3E79A6802F00702062A09D01A6842F0E7
:1045700001021A60002000E0012010BD1046FCE797
:104580000020FAE70000014090F83C30012B3DD0BC
:1045900010B4012380F83C30022380F83D300368DA
:1045A0005A689C6822F0700C0A6842EA0C025A6051
:1045B0000368174A93421AD0B3F1804F17D0A2F57F
:1045C0007C42934213D002F5806293420FD002F5F1
:1045D000806293420BD002F57842934207D002F5F5
:1045E0007052934203D0A2F59432934204D124F046
:1045F00080044A6814439C60012380F83D30002306
:1046000080F83C3018465DF8044B70470220704734
:10461000000001407047704738B5044602681369CE
:1046200023F44053C1680B43136183680269134349
:1046300042691343C2691A430168CB6823F41643E5
:1046400023F00C031343CB600268536923F44073D7
:1046500081690B4353610368314A934206D002F5E6
:104660008062934202D0FDF71FFE01E0FDF72CFEB1
:10467000E369B3F5004F29D00021031849411B1805
:1046800041F10001C90041EA5371DB001818636869
:104690004FEA83024FEA937341F10001FCF7F4FA09
:1046A000204DA5FB00325109642303FB11031B01BC
:1046B0003233A5FB03235B0903F0F00202EB011286
:1046C00003F00F03216813448B6038BD00230218E8
:1046D00043EB0301121841F10001C90041EA527194
:1046E000D200101841F10001626892185B41FCF79A
:1046F000CBFA0C4DA5FB00325109642303FB1103D7
:10470000DB003233A5FB03235B095A0002F4F87285
:1047100002EB011203F00703216813448B60D4E716
:10472000001001401F85EB512DE9F84305460F4667
:1047300016469946DDF820802C68246837EA040381
:104740000CBF4FF0010C4FF0000CB4452DD1B8F167
:10475000FF3FF1D0B8F1000F05D0FCF73DFCA0EB16
:1047600009004045E8D92A6802F10C0353E8003FEC
:1047700023F4D0730C3242E800310029F3D12A68C7
:1047800002F1140353E8003F23F00103143242E81E
:1047900000310029F3D1202385F83D3085F83E30E3
:1047A000002385F83C30032000E00020BDE8F883BA
:1047B00058B310B5044690F83D300BB3242384F869
:1047C0003D302268D36823F40053D3602046FFF7BE
:1047D00023FF2268136923F490431361226853690D
:1047E00023F02A0353612268D36843F40053D36053
:1047F00000202064202384F83D3084F83E3010BD32
:1048000080F83C3003F086FCD8E7012070472DE9A2
:10481000F04182B01E4690F83D30DBB2202B54D1DF
:1048200004460D469046002953D0002A53D090F8F4
:104830003C30012B51D0012380F83C30002303642D
:10484000212380F83D30FCF7C7FB0746A4F82480FD
:10485000A4F82680A368B3F5805F05D04FF0000868
:10486000002384F83C3012E0236913B14FF00008B4
:10487000F6E7A8460025F3E738F8023B2268C3F3C1
:1048800008035360E28C92B2013A92B2E284E38C64
:104890009BB273B100963B46002280212046FFF771
:1048A00043FFE0B9002DE7D015F8012B23685A60CB
:1048B000E8E700963B46002240212046FFF734FF00
:1048C00078B9202384F83D3000E0022002B0BDE832
:1048D000F0810120FAE70120F8E70220F6E7032043
:1048E000F4E70320F2E700000B4B1B680B4AA2FB26
:1048F00003235B0A41F2883202FB03F31A46013BB1
:104900003AB1426B12F0800FF8D0C52383630020C8
:1049100070474FF00040704710000020D34D6210E8
:1049200084B00DF1040C8CE80E000B461343039A7F
:104930001343049A1343059A1343069A1343426898
:1049400022F4FD4222F07F0213434360002004B0B2
:104950007047D0F8800070470B68C0F880300020A6
:1049600070470323036000207047006800F00300D5
:1049700070470B6883604B688A681343CA681343A7
:104980000A691343C26822F47F6222F00F021343C4
:10499000C360002070470069C0B2704714304058AF
:1049A00070470B6843624B6883628B68CA68134325
:1049B0000A6913434A691343C26A22F0F702134398
:1049C000C3620020704710B586B0044600230193EF
:1049D0000293039304934FF48063059301A9FFF7B7
:1049E000C8FF2046FFF780FF06B010BD38B504466B
:1049F0000D46504B1B685049A1FB03135B0A03FB98
:104A000002F21346013A002B5DD0636B13F0450FA1
:104A1000F7D013F4006FF4D1636B13F0040F06D1D9
:104A2000636B13F0010F05D00120A0634DE004205B
:104A3000A0634AE0C523A3632046FFF7ACFFA8426A
:104A400001D0012041E000212046FFF7A7FF0346E7
:104A50003A481840C8B3002B38DB13F0804F38D1E8
:104A600013F0005F37D113F0805F36D113F0006F81
:104A700036D113F0806F36D113F0807F36D113F426
:104A8000000F36D113F4800F36D113F4001F36D146
:104A900013F4801F36D113F4802F36D113F4003F66
:104AA00036D113F4803F36D113F4004F36D113F4CE
:104AB000804F36D113F4005F36D113F0080F36D093
:104AC0004FF4000001E04FF0004038BD4FF000709F
:104AD000FBE74020F9E78020F7E74FF48070F4E728
:104AE0004FF40070F1E74FF48060EEE74FF40060A0
:104AF000EBE74FF48050E8E74FF40050E5E74FF460
:104B00008040E2E74FF40040DFE74FF40030DCE79D
:104B10004FF48020D9E74FF40020D6E74FF48010FF
:104B2000D3E74FF40010D0E74FF48000CDE74FF407
:104B30008030CAE710000020D34D621008E0FFFD6E
:104B400030B587B0044601911025029540230393A8
:104B5000002304934FF48063059301A9FFF709FF35
:104B600041F2883229462046FFF740FF07B030BDAA
:104B700030B587B004460191112502954023039377
:104B8000002304934FF48063059301A9FFF7F1FE1E
:104B900041F2883229462046FFF728FF07B030BD92
:104BA00030B587B004460191122502954023039346
:104BB000002304934FF48063059301A9FFF7D9FE06
:104BC00041F2883229462046FFF710FF07B030BD7A
:104BD00030B587B004460191182502954023039310
:104BE000002304934FF48063059301A9FFF7C1FEEE
:104BF00041F2883229462046FFF7F8FE07B030BD63
:104C000030B587B0044601911925029540230393DE
:104C1000002304934FF48063059301A9FFF7A9FED5
:104C200041F2883229462046FFF7E0FE07B030BD4A
:104C300030B587B00446002301930C25029540222D
:104C4000039204934FF48063059301A9FFF791FE4B
:104C5000034A29462046FFF7C9FE07B030BD00BF12
:104C600000E1F50530B587B00446019207250295AD
:104C700040230393002304934FF48063059301A919
:104C8000FFF777FE41F2883229462046FFF7AEFE55
:104C900007B030BD30B587B0044601913725029585
:104CA00040230393002304934FF48063059301A9E9
:104CB000FFF75FFE41F2883229462046FFF796FE55
:104CC00007B030BD30B587B0044601910625029586
:104CD00040230393002304934FF48063059301A9B9
:104CE000FFF747FE41F2883229462046FFF77EFE55
:104CF00007B030BD30B587B004460023019333259B
:104D000002954022039204934FF48063059301A916
:104D1000FFF72FFE41F2883229462046FFF766FE54
:104D200007B030BD30B587B0044601910D2502951E
:104D300040230393002304934FF48063059301A958
:104D4000FFF717FE41F2883229462046FFF74EFE54
:104D500007B030BD0146144B1B68144AA2FB032365
:104D60005B0A41F2883202FB03F31A46013BBAB1F7
:104D70004A6B12F0450FF8D012F4006FF5D14B6B6F
:104D800013F0040F06D1486B10F0010005D1C523C4
:104D90008B637047042088637047012088637047E5
:104DA0004FF00040704700BF10000020D34D62104C
:104DB00010B586B004460023019302220292C0225D
:104DC000039204934FF48063059301A9FFF7D1FD8B
:104DD0002046FFF7BFFF06B010BD10B586B00446F1
:104DE000019109230293C0230393002304934FF4FA
:104DF0008063059301A9FFF7BCFD2046FFF7AAFFDA
:104E000006B010BD0146104B1B68104AA2FB0323DD
:104E10005B0A41F2883202FB03F31A46013B82B17E
:104E20004A6B12F0450FF8D012F4006FF5D1486BC1
:104E300010F0040002D1C5238B63704704208863FF
:104E400070474FF00040704710000020D34D6210B3
:104E500010B586B0044641F0004141F48011019143
:104E60002923029340230393002304934FF4806388
:104E7000059301A9FFF77DFD2046FFF7C3FF06B0AC
:104E800010BD0000F8B505460E461746234B1B68BB
:104E9000234AA2FB03235B0A41F2883202FB03F39D
:104EA0001A46013B8AB36C6B14F0450FF8D014F42A
:104EB000006FF5D16B6B13F0040F06D16B6B13F021
:104EC000010F05D00120A86321E00420A8631EE0A3
:104ED0002846FFF760FDB04201D0012017E0C5234E
:104EE000AB6300212846FFF759FD034610F46040EC
:104EF00008D013F4804F0BD113F4004F0BD04FF4B4
:104F0000805004E01B0C3B8001E04FF00040F8BDF6
:104F10004FF40050FBE74FF48030F8E7100000201A
:104F2000D34D621070B586B004460D460023019340
:104F3000032602964022039204934FF48063059364
:104F400001A9FFF716FD2A4631462046FFF79AFFD2
:104F500006B070BD0146164B1B68164AA2FB032320
:104F60005B0A41F2883202FB03F31A46013BE2B1CD
:104F70004A6B12F0450FF8D012F4006FF5D14B6B6D
:104F800013F0040F0BD14B6B13F001030AD1486BE4
:104F900010F040000BD040228A631846704704206E
:104FA000886370470120886370474FF00040704766
:104FB00010000020D34D621010B586B004464FF4A7
:104FC000D573019308230293402303930023049392
:104FD0004FF48063059301A9FFF7CBFC2046FFF750
:104FE000B9FF06B010BD0000134B5B7A13BB10B5C0
:104FF000044603F0FF00104B93F809C05FFA8CFCE5
:105000004FF0000E03F80CE093F809C003EB8C0C92
:10501000CCF804405C7A1C4422725A7A541CE4B2E4
:105020005C7230320A703A234B702F238B7081F8F8
:1050300003E010BD012070470802002008B50022DF
:10504000FFF7D2FF08BD842801D00330704700204D
:105050007047EFF30580003818BF0120704708B58E
:1050600000F0B2FE002008BD08B501F03FF90128AC
:1050700001D0012008BD0020FCE708B5FFF7E9FFDB
:1050800010B100F0EFFE08BD00F0E6FEFBE72DE9F1
:10509000F04387B004460F464569BDB18669AEB19D
:1050A000D0F80480D0F80090B0F90800FFF7CBFFEB
:1050B0000296019500903B4622694946404600F021
:1050C00013FE0590059807B0BDE8F0836568266873
:1050D000D4F81080B4F90800FFF7B5FF05AB0193D1
:1050E00000903B461FFA88F23146284600F037FE12
:1050F0000128E7D00020E6E708B500B9012000F05C
:10510000BFFF002008BD00B583B0826842B1C3680C
:1051100033B1002100914168006800F0B5F904E066
:1051200000224168006800F0F9F903B05DF804FB63
:1051300030B585B00446019100230393154602B9AA
:105140000125FFF786FFA8B1002303AA01A9204685
:1051500000F0CCFA012818D1039BC3B14FF0E02333
:105160004FF08052C3F8042DBFF34F8FBFF36F8F02
:10517000002008E000232A4601A9204600F0F2F9A9
:10518000012806D1002005B030BDFF20FBE700203C
:10519000F9E7FF20F7E770B584B0044602910023D9
:1051A0000193E1B10D46164600230393FFF751FF2B
:1051B00000B303AA01A9284600F0AEFB012816D0CF
:1051C00000230093039BFBB14FF0E0234FF080528C
:1051D000C3F8042DBFF34F8FBFF36F8F14E080230C
:1051E00000936B4693E8070084E8070011E0102362
:1051F0000093E7E7324601A9284600F0DEFA0128CD
:105200000AD006B1402600966B4693E8070084E872
:105210000700204604B070BD10230093F4E700F1AE
:10522000080343604FF0FF328260C36003610023D4
:105230000360704700230361704743684B609A68BE
:105240008A605160996008610368013303607047A8
:1052500030B40D68B5F1FF3F11D000F108031C46D2
:105260005B681A68AA42FAD963684B6099608C60DF
:105270006160086103680133036030BC70470469F2
:10528000F2E70369416882688A60416851605A6840
:10529000824206D0002202611A68013A1A60186838
:1052A000704782685A60F5E710B5044601F0F2F8DD
:1052B000A26BE36B9A4204D0002401F00DF9204662
:1052C00010BD0124F9E710B5044601F0E3F8A36B23
:1052D00023B9012401F000F9204610BD0024F9E7AC
:1052E00070B504461546866B026C5AB903681BB14B
:1052F00000200136A66370BD806801F007F8002326
:10530000A360F6E76DB9406803F0CDF8226C6368DE
:1053100013446360A268934219D3236863602846EC
:10532000E7E7C06803F0BFF8226C5142E3689B1ABC
:10533000E3602268934202D2A3680B44E360022D2B
:1053400001D00020D5E726B1013E0020D1E7284654
:10535000CFE70020CDE70346026C6AB110B50846DE
:10536000D9681144D9609C68A14201D31968D960F9
:10537000D96803F098F810BD704738B5054601F0BC
:1053800089F895F8454064B201E0013C64B2002C14
:105390000ADD6B6A43B105F1240000F011FF00281B
:1053A000F3D000F09BFFF0E7FF2385F8453001F0D4
:1053B00093F801F06FF895F8444064B201E0013CC5
:1053C00064B2002C0ADD2B6943B105F1100000F036
:1053D000F7FE0028F3D000F081FFF0E7FF2385F807
:1053E000443001F079F838BD38B5E0B10D460446D7
:1053F00001F050F82368E26B216C01FB0230A060E1
:105400000020A0636360013A02FB0133E360FF23E5
:1054100084F8443084F84530FDB9236963B901F05C
:105420005BF8012038BD4FF0500383F31188BFF3C0
:105430006F8FBFF34F8FFEE704F1100000F0C0FE46
:105440000028ECD04FF0E0234FF08052C3F8042D39
:10545000BFF34F8FBFF36F8FE1E704F11000FFF749
:10546000DEFE04F12400FFF7DAFED8E710B50346AC
:1054700002980C4631B90060C36304640121FFF750
:10548000B3FF10BD0260F7E740B94FF0500383F35C
:105490001188BFF36F8FBFF34F8FFEE710B584B055
:1054A0001C46844653B192B189B94FF0500383F33F
:1054B0001188BFF36F8FBFF34F8FFEE74FF050039C
:1054C00083F31188BFF36F8FBFF34F8FFEE76AB18D
:1054D00048230393039B482B13D04FF0500383F3CF
:1054E0001188BFF36F8FBFF34F8FFEE70029EFD016
:1054F0004FF0500383F31188BFF36F8FBFF34F8FCB
:10550000FEE7039B012384F8463000949DF8183091
:105510006046FFF7ABFF204604B010BD40B94FF026
:10552000500383F31188BFF36F8FBFF34F8FFEE7F4
:10553000F0B583B00D461446064601FB00F0483036
:1055400001F04EF9074650B1002380F84630009034
:10555000234600F1480229463046FFF787FF3846C8
:1055600003B0F0BDF0B585B0019288B10F461D467D
:105570000446B1B1022D20D1E36B012B1DD04FF0B9
:10558000500383F31188BFF36F8FBFF34F8FFEE794
:105590004FF0500383F31188BFF36F8FBFF34F8F2A
:1055A000FEE7036C002BE5D04FF0500383F3118826
:1055B000BFF36F8FBFF34F8FFEE700F097FE0646F5
:1055C00058B9019B002B48D04FF0500383F311884A
:1055D000BFF36F8FBFF34F8FFEE700263DE02A46F3
:1055E00039462046FFF77CFE636A7BB948B14FF02D
:1055F000E0234FF08052C3F8042DBFF34F8FBFF369
:105600006F8F00F069FF012005B0F0BD04F12400A8
:1056100000F0D6FD0028F4D04FF0E0234FF0805288
:10562000C3F8042DBFF34F8FBFF36F8FE9E700F08E
:1056300053FF0020E8E702A800F004FE012619E06D
:10564000002384F8443021E0002384F8453023E02F
:105650002046FFF792FE00F09BFC00F01BFFA26BC0
:10566000E36B9A42BBD3022DB9D0019B002BDED055
:10567000002EE0D000F030FF00F0E4FB00F00AFF65
:1056800094F8442052B2B2F1FF3FD9D094F84520AB
:1056900052B2B2F1FF3FD7D000F01EFF01A902A81D
:1056A00000F0DAFDD8B92046FFF7FEFD0028CFD084
:1056B000019904F1100000F069FD2046FFF75DFE3E
:1056C00000F066FC0028C8D14FF0E0234FF0805274
:1056D000C3F8042DBFF34F8FBFF36F8FBDE7204694
:1056E000FFF74BFE00F054FC00208DE72DE9F84356
:1056F00090B10F4616461C460546B1B1022C20D18A
:10570000EB6B012B1DD04FF0500383F31188BFF3D7
:105710006F8FBFF34F8FFEE74FF0500383F3118875
:10572000BFF36F8FBFF34F8FFEE7036C002BE5D005
:105730004FF0500383F31188BFF36F8FBFF34F8F88
:10574000FEE700F0CBFFEFF311894FF0500383F336
:105750001188BFF36F8FBFF34F8FAA6BEB6B9A4229
:1057600006D3022C04D0002089F31188BDE8F88309
:1057700095F845804FFA88F8AB6B224639462846A3
:10578000FFF7AEFDB8F1FF3F06D008F101035BB2B1
:1057900085F845300120E7E76B6A0BB90120E3E7A4
:1057A00005F1240000F00CFD18B126B10120306095
:1057B000DAE70120D8E70120D6E7F0B585B00192FD
:1057C00090B10F460446C1B100F090FD064600BB03
:1057D000019B002B5ED04FF0500383F31188BFF381
:1057E0006F8FBFF34F8FFEE74FF0500383F31188A5
:1057F000BFF36F8FBFF34F8FFEE7036C002BE3D037
:105800004FF0500383F31188BFF36F8FBFF34F8FB7
:10581000FEE700263EE039462046FFF79CFD013DAD
:10582000A563236923B900F057FE012005B0F0BD40
:1058300004F1100000F0C4FC0028F4D04FF0E02385
:105840004FF08052C3F8042DBFF34F8FBFF36F8F1B
:10585000E9E700F041FE0020E8E702A800F0F2FCD2
:10586000012621E0002384F8443029E0002384F855
:1058700045302BE02046FFF780FD00F089FB09E072
:105880002046FFF77AFD00F083FB2046FFF71BFD63
:1058900000283FD100F0FEFDA56B002DBBD1019B80
:1058A000002BD6D0002ED8D000F016FE00F0CAFA99
:1058B00000F0F0FD94F844305BB2B3F1FF3FD1D07B
:1058C00094F845305BB2B3F1FF3FCFD000F004FE57
:1058D00001A902A800F0C0FC0028D1D12046FFF7A2
:1058E000F2FC0028C6D0019904F1240000F04EFC1F
:1058F0002046FFF742FD00F04BFB0028CAD14FF0D5
:10590000E0234FF08052C3F8042DBFF34F8FBFF355
:105910006F8FBFE7002089E72DE9F843B0B10D464E
:1059200016460446D9B100F0D9FEEFF311884FF0C6
:10593000500383F31188BFF36F8FBFF34F8FA76BB3
:10594000CFB9002088F31188BDE8F8834FF05003E9
:1059500083F31188BFF36F8FBFF34F8FFEE7036CA4
:10596000002BE0D04FF0500383F31188BFF36F8F0B
:10597000BFF34F8FFEE794F844904FFA89F9294618
:105980002046FFF7E8FC013FA763B9F1FF3F06D0CF
:1059900009F101035BB284F844300120D2E72369A6
:1059A0000BB90120CEE704F1100000F009FC18B19A
:1059B00026B101203060C5E70120C3E70120C1E71F
:1059C000074B9B6A1B6823B9054B4FF0FF32DA6225
:1059D0007047034B9A6AD268D2685268DA6270479D
:1059E000140200202DE9F04707469846089DDDF88F
:1059F00024900A9C266B02F18042013A06EB820653
:105A000026F00706002948D08E464FF0000CBCF166
:105A10000F0F0BD81EF80C2004EB0C0383F8342076
:105A20001EF80C3013B10CF1010CF0E7002384F8E0
:105A30004330062D00D90625E56265644FF0000A63
:105A4000C4F848A0201DFFF7F5FB04F11800FFF78C
:105A5000F1FB2461C5F10705A5616462C4F84CA09F
:105A6000C4F8B0A084F8B4A06022514604F15000FC
:105A700002F027FD0B4B63650B4BA3650B4BE365F6
:105A800042463946304600F0DBFC2060B9F1000F99
:105A900001D0C9F80040BDE8F087002384F8343015
:105AA000C7E700BF94C50008B4C5000874C5000866
:105AB00070B5002407E004EB8402930010481844FA
:105AC000FFF7ADFB0134062CF5D90E4C04F1BC06F2
:105AD0003046FFF7A4FB04F1D0052846FFF79FFBF3
