:020000040800F2
:1000000000000220992A0008252A0008272A000853
:10001000292A00082B2A00082D2A000800000000C9
:10002000000000000000000000000000D1230008D4
:100030002F2A00080000000001240008312A0008CF
:10004000E92A0008E92A0008E92A0008E92A000844
:10005000E92A0008E92A0008E92A0008E92A000834
:10006000E92A0008E92A0008E92A0008E92A000824
:10007000E92A0008E92A0008E92A0008E92A000814
:10008000E92A0008E92A0008E92A0008E92A000804
:10009000E92A0008E92A0008E92A0008E92A0008F4
:1000A000E92A0008E92A0008E92A0008E92A0008E4
:1000B000E92A0008E92A0008E92A0008E92A0008D4
:1000C000E92A0008E92A0008E92A0008E92A0008C4
:1000D000E92A0008E92A0008E92A0008E92A0008B4
:1000E000E92A0008E92A0008E92A0008E92A0008A4
:1000F000E92A0008E92A0008E92A0008E92A000894
:10010000E92A0008E92A0008E92A0008E92A000883
:10011000E92A0008E92A0008E92A0008E92A000873
:100120003D2A0008E92A0008E92A0008E92A00080F
:10013000E92A00080000000000000000E92A000889
:10014000E92A0008E92A0008E92A0008E92A000843
:10015000E92A0008E92A0008E92A0008E92A000833
:10016000E92A0008E92A0008E92A0008E92A000823
:10017000E92A0008E92A0008E92A0008000000002E
:1001800000000000E92A0008000000000000000054
:10019000E92A00080000000000000000E92A000829
:1001A000000000000000000000000000E92A000834
:1001B000E92A0008E92A0008E92A0008E92A0008D3
:0401C000E92A000820
:1001D00010B5054C237833B9044B13B10448AFF381
:1001E00000800123237010BD0C00002000000000DF
:1001F000442B000808B5034B1BB103490348AFF378
:10020000008008BD0000000010000020442B000802
:1002100053B94AB9002908BF00281CBF4FF0FF316D
:100220004FF0FF3000F072B9ADF1080C6DE904CE6B
:1002300000F006F8DDF804E0DDE9022304B07047C1
:100240002DE9F047089E04468846002B4BD18A4290
:10025000154667D9B2FA82F24AB1C2F1200701FA13
:1002600002F320FA07F7954047EA030894404FEA63
:10027000154E230CB8FBFEF71FFA85FC0EFB178802
:1002800043EA084307FB0CF1994209D9EB1807F13F
:10029000FF3080F01B81994240F21881023F2B44CD
:1002A0005B1AA4B2B3FBFEF00EFB103344EA034426
:1002B00000FB0CFCA44509D92C1900F1FF3380F098
:1002C0000781A44540F2048102382C4440EA0740EB
:1002D000A4EB0C0400271EB1D4400023C6E9004360
:1002E0003946BDE8F0878B4209D9002E00F0EB803B
:1002F0000027C6E9000138463946BDE8F087B3FA61
:1003000083F7002F47D18B4202D3824200F2FA805A
:10031000841A61EB030301209846002EE0D0C6E961
:100320000048DDE702B9FFDEB2FA82F2002A40F0AF
:100330008F80491B4FEA154E1FFA85F80127B1FB44
:10034000FEFC230C0EFB1C1143EA014308FB0CF1DD
:10035000994207D9EB180CF1FF3002D2994200F212
:10036000CD808446591AA3B2B1FBFEF00EFB1014E7
:1003700043EA044408FB00F8A04507D92C1900F112
:10038000FF3302D2A04500F2B6801846A4EB080461
:1003900040EA0C409FE7C7F1200CBB4022FA0CFE5C
:1003A0004EEA030E01FA07F420FA0CF521FA0CF3D9
:1003B0004FEA1E482543B3FBF8F92C0C08FB193310
:1003C0001FFA8EFA44EA034309FB0AF49C4202FA3C
:1003D00007F200FA07F10BD91EEB030309F1FF3016
:1003E00080F087809C4240F28480A9F10209734426
:1003F0001B1BADB2B3FBF8F008FB103345EA034416
:1004000000FB0AFAA24508D91EEB040400F1FF33F1
:100410006BD2A24569D90238744440EA0940A0FB76
:100420000289A4EB0A044C45C2464B4654D351D032
:10043000002E69D0B1EB0A0564EB030404FA0CFC4E
:10044000FD40FC404CEA0505C6E90054002747E79B
:10045000C2F1200320FA03F7954001FA02F021FAD5
:1004600003F34FEA154E3843010CB3FBFEF71FFAB6
:1004700085F80EFB173341EA034107FB08F38B4273
:1004800004FA02F407D9691807F1FF3C2FD28B4216
:100490002DD9023F2944CB1A81B2B3FBFEF00EFBEB
:1004A000103341EA034100FB08F38B4207D9691876
:1004B00000F1FF3C17D28B4215D902382944C91AE2
:1004C00040EA07473BE73746304609E70746E7E695
:1004D0001846FBE64145ABD2B8EB020A69EB0E02C7
:1004E00001381346A4E76046E9E7184695E76746F2
:1004F000D1E781467CE702382C4447E7ACF1020C97
:100500002B442FE7384608E73746E9E6704700BF37
:1005100010B504460E4B18784FF47A73B3FBF0F322
:100520000C4A1068B0FBF3F000F0C0FB68B90F2C68
:1005300001D901200AE0002221464FF0FF3000F0EF
:1005400075FB034B5C60002000E0012010BD00BF84
:10055000000000200800002008B50B4B1A6842F488
:1005600000721A601A6842F480621A601A6842F4D3
:1005700080721A60032000F047FB0F20FFF7C8FFCE
:1005800002F03EF9002008BD003C0240034A116819
:10059000034B1B780B441360704700BF54010020CD
:1005A00000000020014B1868704700BF5401002074
:1005B00038B50446FFF7F6FF0546B4F1FF3F02D019
:1005C000044B1B781C44FFF7EDFF401BA042FAD3FD
:1005D00038BD00BF00000020494B5A6822F4403269
:1005E0005A605A6841680A435A600268536823F4A3
:1005F0008073536002685368016943EA01235360C2
:100600000268536823F0407353600268536881683E
:100610000B4353600268936823F40063936002689D
:100620009368C1680B439360826A364B9A4249D003
:100630000268936823F07063936002689368816A2C
:100640000B4393600268936823F040539360026801
:100650009368C16A0B4393600268936823F00203B6
:10066000936002689368816943EA41039360036A77
:10067000002B32D10268536823F400635360026890
:10068000D36A23F47003D3620168CB6AC269013A6A
:1006900043EA0253CB620268936823F400739360C9
:1006A00002689368016B43EA412393600268936890
:1006B00023F48063936002689368416943EA81236D
:1006C000936070470268936823F0706393600268D8
:1006D000936823F040539360BEE70268536843F485
:1006E000006353600268536823F4604353600168F9
:1006F0004B68426A013A43EA42334B60BFE700BFAE
:10070000002301400100000F30B310B50446036C14
:1007100043B1236C13F0100F0AD00120002384F89A
:100720003C3010BD436480F83C3002F08BF8F0E7B9
:10073000236C23F4885323F0020343F00203236461
:100740002046FFF749FF00206064236C23F0030379
:1007500043F001032364E1E70120704730B583B023
:100760000023019390F83C30012B00F0818001239D
:1007700080F83C300468A36813F0010F13D1A3681C
:1007800043F00103A3603F4B1C683F4BA3FB0434C1
:10079000A40C04EB4404019402E0019C013C01948C
:1007A000019C002CF9D103689C6814F0010F61D002
:1007B000046C24F4E06424F0010444F480740464C0
:1007C0005B6813F4806F05D0036C23F4405343F44B
:1007D00080530364036C13F4805F36D0436C23F0C2
:1007E0000603436413460446002280F83C20826BD3
:1007F0002648D063A26B26481064A26B2548D064BB
:1008000022686FF0220010602568686840F0806000
:1008100068602568A86840F48070A86020680A466F
:1008200000F14C01A06B00F039FB1B4B5B6813F02F
:100830001F0F0DD123689A6812F0405F1DD19A688E
:1008400042F080429A60002015E000234364C9E72B
:100850002368124A934201D000200CE09A6812F0FB
:10086000405F0CD19A6842F080429A60002002E01A
:10087000022000E0002003B030BD0020FBE7002094
:10088000F9E700BF0800002083DE1B43A108000831
:10089000050900081109000800230140002001405B
:1008A00008B5836B1A6C12F0500F03D09B6BDB6C96
:1008B000984708BD1A6C42F400721A641A6891686D
:1008C00011F0405F19D19969B9B9D16A11F4700F6B
:1008D00003D0916811F4806F0FD1516821F020018D
:1008E00051601A6C22F480721A641A6C12F4805FE0
:1008F00003D11A6C42F001021A64184601F0F4FEAA
:10090000D7E7704708B5806BFFF7FBFF08BD70475E
:1009100008B5806B40230364436C43F004034364D5
:10092000FFF7F5FF08BD000030B482B0002301934B
:1009300090F83C30012B00F0B580012380F83C306A
:100940000B68092B3ED90568EA689BB203EB4303A9
:100950001E3B072404FA03F322EA0303EB60056855
:10096000EA688C680B8803EB43031E3B04FA03F32D
:100970001343EB604B68062B3AD805686A6B03EBB0
:100980008303053B1F2404FA03F322EA03036B638A
:1009900005686A6B4B6803EB8303053B0C8804FA1C
:1009A00003F313436B6302683F4B9A4250D00268D3
:1009B0003D4B9A4255D0002380F83C30184602B097
:1009C00030BC704705682A699BB203EB43030724D8
:1009D00004FA03F322EA03032B6105682A698C6891
:1009E0000B8803EB430304FA03F313432B61C1E7C2
:1009F0000C2B16D805682A6B03EB8303233B1F24BB
:100A000004FA03F322EA03032B6305682A6B4B689D
:100A100003EB8303233B0C8804FA03F313432B6398
:100A2000C1E70568EA6A03EB8303413B1F2404FA2C
:100A300003F322EA0303EB620568EA6A4B6803EBFF
:100A40008303413B0C8804FA03F31343EB62AAE7E8
:100A50000B68122BABD1154A536843F480035360E3
:100A6000A5E70B68124A934201D0112BA3D10F4A7C
:100A7000536843F4000353600A680D4B9A429AD1BD
:100A80000C4B1B680C4AA2FB03239B0C03EB830358
:100A90005A00019202E0019B013B0193019B002B54
:100AA000F9D188E702208AE70020014000230140B5
:100AB000120000100800002083DE1B43002800F015
:100AC000A18038B5044690F82030D3B1226813686D
:100AD00023F002031360FFF765FD054623685A689B
:100AE00012F0020F10D0FFF75DFD401B0A28F5D968
:100AF000636A43F400336362052384F820300120E5
:100B000038BD01F01BFFE1E71A6842F001021A60EC
:100B1000FFF748FD054623685A6812F0010F0DD112
:100B2000FFF740FD401B0A28F5D9636A43F4003300
:100B30006362052384F820300120E1E7227E012A48
:100B40003DD01A6822F080021A60637E012B3BD0F0
:100B50002268136823F040031360A37E012B39D071
:100B60002268136823F020031360E37E012B37D043
:100B70002268136843F010031360237F012B35D0E4
:100B80002268136823F008031360637F012B33D0BE
:100B90002268136823F004031360A368E268134318
:100BA00022691343626913436268013A216813435F
:100BB000CB6100206062012384F82030A0E71A682E
:100BC00042F080021A60C0E72268136843F04003D5
:100BD0001360C2E72268136843F020031360C4E780
:100BE0002268136823F010031360C6E722681368B5
:100BF00043F008031360C8E72268136843F0040356
:100C00001360CAE701207047074AD36823F4E06302
:100C10001B041B0C000200F4E060184340F0BF60AE
:100C200040F40030D060704700ED00E030B4174B66
:100C3000DB68C3F30223C3F10704042C28BF042498
:100C40001D1D062D18D9033B4FF0FF3505FA04F49E
:100C500021EA0401994005FA03F322EA0303194348
:100C600000280BDB0901C9B200F1604000F56140CA
:100C700080F8001330BC70470023E5E700F00F0058
:100C80000901C9B2024B1954F4E700BF00ED00E0BE
:100C900014ED00E000F01F02400901239340024AD6
:100CA00042F82030704700BF00E100E00138B0F1A9
:100CB000807F0AD2064B5860064AF02182F8231042
:100CC0000020986007221A6070470120704700BF1B
:100CD00010E000E000ED00E030B405682C6824F47A
:100CE00080242C60046863608368402B05D003680F
:100CF00099600368DA6030BC704703689A600368E3
:100D0000D960F8E70268D3B2103B0B49A1FB03138B
:100D10001B090A49C95CC165032B06D822F47F72FE
:100D200022F003028265806D704722F47F7222F008
:100D3000030204328265F6E7ABAAAAAA5C2B00087C
:100D4000836A826992B9012B0AD01BB1022B01D0B0
:100D500000207047C36A13F0807F2CD100207047B9
:100D6000C36AB3F1C07F28D000207047B2F5005F9E
:100D700005D0022B29D9032B15D000207047032B57
:100D800003D8DFE803F01C041C0A00207047C36A84
:100D900013F0807F15D100207047C36AB3F1C07F84
:100DA00011D000207047C36A13F0807F01D001206A
:100DB00070470020704701207047012070470120D4
:100DC00070470120704701207047012070470000E4
:100DD00070B50446FFF7E6FB002C5BD00546002308
:100DE00084F83430022384F835302268136823F005
:100DF0000103136023681A6812F0010F0AD0FFF78D
:100E0000D1FB401B0528F5D920236365032084F816
:100E1000350070BD1A68204810406168A2680A4316
:100E2000E1680A4321690A4361690A43A1690A43E7
:100E3000E1690A43216A0A430243616A04291ED018
:100E40001A602668756925F00705636A1D43042B3F
:100E500007D1A36A1D43E36A1BB12046FFF770FF69
:100E600090B975612046FFF74DFFE26D3F23934037
:100E7000836000206065012384F83530C9E7E16AAA
:100E8000206B01430A43DBE740236365012084F8BC
:100E90003500BEE70120BCE73F8010F038B5856D16
:100EA00090F83440012C31D0012480F8344090F87F
:100EB0003540E4B2012C04D0002380F83430022005
:100EC00038BD0446022084F83500002060652046C5
:100ED000FFF702FFE26D3F239340AB602268136887
:100EE00043F0160313602268536943F08003536193
:100EF000236C23B12268136843F00803136022684F
:100F0000136843F0010313600020D9E70220D7E7FC
:100F1000F0B583B0044600230193724B1D68724BF9
:100F2000A3FB0535AD0A876D3E68C26D082393406B
:100F3000334210D003681A6812F0040F0BD01A68FD
:100F400022F004021A60C26D08239340BB60436D17
:100F500043F001034365E26D01239340334209D01E
:100F60002268526912F0800F04D0BB60636D43F0B9
:100F700002036365E26D04239340334209D0226883
:100F8000126812F0020F04D0BB60636D43F00403DB
:100F90006365E26D10239340334224D022681268C7
:100FA00012F0080F1FD0BB6023681A6812F4802F5C
:100FB0000DD01B6813F4002F04D1236C9BB1204685
:100FC000984710E0A36C73B1204698470BE01A686D
:100FD00012F4807F03D11A6822F008021A60236C91
:100FE0000BB120469847E26D20239340334255D001
:100FF0002268126812F0100F50D0BB6094F83530A0
:10100000DBB2052B0ED023681A6812F4802F33D080
:101010001B6813F4002F2AD1636C002B3ED02046AE
:1010200098473BE02268136823F016031360226898
:10103000536923F080035361236CA3B122681368C2
:1010400023F008031360E26D3F239340BB6000234D
:1010500084F83430012384F83530236D002B3FD0E1
:10106000204698473CE0A36C002BE7D1EBE7E36B0D
:10107000A3B12046984711E01A6812F4807F09D185
:101080001A6822F010021A60002384F83430012319
:1010900084F83530E36B0BB120469847636DFBB1A4
:1010A000636D13F0010F17D0052384F835302268E3
:1010B000136823F001031360019B01330193AB42DA
:1010C00004D823681B6813F0010FF5D1002384F8BE
:1010D0003430012384F83530E36C0BB12046984757
:1010E00003B0F0BD08000020B5814E1B00230F2B7C
:1010F00000F2D180F0B482B039E0062200E0002294
:10110000B2403A430234644E46F82420634A1468DD
:10111000EA4302EA04064F6817F4803F01D045EA2B
:1011200004065E4C2660646802EA04064F6817F401
:10113000003F01D045EA0406584C6660A46802EA04
:1011400004064F6817F4801F01D045EA0406534C8B
:10115000A660E46822404E6816F4001F01D045EAFC
:1011600004024E4CE26001330F2B00F29180012209
:101170009A400C6804EA0205AA42F4D14C68022C99
:1011800001D0122C10D1DE08083650F826C003F02A
:101190000704A7000F24BC402CEA040C0C69BC40D7
:1011A00044EA0C0440F8264004685F000326BE4071
:1011B000F64306EA040C4C6804F00304BC4044EA1D
:1011C0000C0404604C6804F1FF3CBCF1010F03D92E
:1011D000112C01D0122C10D1846806EA040CCC68C2
:1011E000BC4044EA0C048460446824EA02024C686F
:1011F000C4F300149C4014434460C26816408A68DB
:10120000BA403243C2604A6812F0805FABD000221D
:101210000192234A546C44F480445464526C02F4A6
:1012200080420192019A9C08A61C1B4A52F8267023
:1012300003F0030296000F22B24027EA0207194A80
:1012400090423FF45CAF02F58062904216D002F506
:101250008062904214D002F58062904212D002F572
:101260008062904210D002F5806290420ED002F56A
:10127000806290423FF441AF072241E701223FE7FD
:1012800002223DE703223BE7042239E7052237E744
:1012900002B0F0BC7047704700380140003C01408C
:1012A0000038024000000240002800F09D8070B528
:1012B00004464F4B1B6803F00F038B4209D2CBB29D
:1012C0004B4A1370136803F00F038B4201D00120C7
:1012D00070BD236813F0020F17D013F0040F04D071
:1012E000444A936843F4E0539360236813F0080F73
:1012F00004D0404A936843F4604393603D4A936846
:1013000023F0F003A068034393600D46236813F0B5
:10131000010F32D06368012B21D09A1E012A25D9F2
:10132000344A126812F0020F60D032498A6822F003
:10133000030213438B60FFF735F906462D4B9B687C
:1013400003F00C036268B3EB820F16D0FFF72AF9A3
:10135000801B41F288339842F0D90320B8E7254A30
:10136000126812F4003FE0D10120B1E7214A12686F
:1013700012F0007FD9D10120AAE71D4B1B6803F0B2
:101380000F03AB4209D9EAB2194B1A701B6803F07C
:101390000F03AB4201D001209AE7236813F0040F3A
:1013A00006D0144A936823F4E053E1680B4393603A
:1013B000236813F0080F07D00E4A936823F46043A4
:1013C000216943EAC103936000F07EFA094B9B68F0
:1013D000C3F30313084AD35CD840084B18600F20AE
:1013E000FFF796F8002073E70120704701206FE7B0
:1013F000003C024000380240642B00080800002036
:10140000014B1868704700BF0800002008B5FFF7BF
:10141000F7FF044B9B68C3F38223034AD35CD84095
:1014200008BD00BF00380240742B000808B5FFF764
:10143000E7FF044B9B68C3F34233034AD35CD840B5
:1014400008BD00BF00380240742B0008F0B583B01F
:101450000446036813F0010F0CD0964AD2F88C3082
:1014600023F0C063816B0B43C2F88C30836B3BB3BA
:10147000002600E00026236813F0020F0BD08D4AEF
:10148000D2F88C3023F0C053E16B0B43C2F88C30A0
:10149000E36B03B90126236813F0040F14D0854AC7
:1014A000D2F88C3023F44013216B0B43C2F88C30FC
:1014B000236BB3F5801F05D0002B7BD0002504E003
:1014C0000126D8E70126F7E70025236813F0080F67
:1014D0000ED0784AD2F88C3023F44003616B0B4372
:1014E000C2F88C30636BB3F5800F65D003B901256A
:1014F000236813F0200F61D1236813F0100F03D07D
:1015000094F858206C4B1A60236813F0800F08D0B1
:10151000684AD2F8943023F44003E16C0B43C2F8DC
:101520009430236813F0400F08D0624AD2F8943008
:1015300023F08063A16C0B43C2F89430236813F44A
:10154000807F0DD05B4AD2F8943023F00063616D48
:101550000B43C2F89430636DB3F1006F00F09580D7
:10156000236813F4007F08D0524AD2F8943023F055
:101570008053616C0B43C2F89430236813F4806F7E
:101580000CD04C4AD2F8943023F00053216D0B4319
:10159000C2F89430236DB3F1005F78D0002E76D17D
:1015A0002368B3F5006F72D0002D40F02281002037
:1015B00003B0F0BD012588E7012697E700230193DA
:1015C0003C4B1A6C42F080521A641B6C03F080533F
:1015D0000193019B394A136843F480731360FEF74B
:1015E000E1FF0746354B1B6813F4807F06D1FEF7F9
:1015F000D9FFC01B0228F5D90320D9E72D4B1B6F5B
:1016000013F4407312D0226C02F440729A420DD04F
:10161000284B1A6F22F440722949012008600020EB
:1016200008601A671B6F13F0010F12D1236C03F4CB
:101630004072B2F5407F1DD01E4A936823F4F81320
:1016400093601C490B6F226CC2F30B0213430B67B0
:1016500052E7FEF7A7FF0746164B1B6F13F0020F6A
:10166000E4D1FEF79FFFC01B41F288339842F3D9C3
:1016700003209DE70F498A6822F4F81223F0704393
:1016800023F4407313438B60DBE7012568E70D4BC0
:1016900000221A60FEF786FF0646064B1B6813F011
:1016A000006F11D0FEF77EFF801B0228F5D90320C2
:1016B0007EE700BF00380240E01147420070004062
:1016C000400E474268004742236813F0010F01D0E3
:1016D000A26B22B113F0020F15D0E36B9BB9774ACE
:1016E000D2F88400D2F884106368A66843EA8613AF
:1016F00000F44030034301F070610B43616943EA39
:101700000173C2F88430236813F0040F03D0226BF6
:10171000B2F5801F06D013F0080F20D0636BB3F52D
:10172000800F1CD1654AD2F88400D2F88410636817
:10173000A66843EA861300F440300343206943EA75
:10174000006301F0E0410B43C2F88430D2F88C30E2
:1017500023F01F03A16A01390B43C2F88C302368C0
:1017600013F4806F03D0236DB3F1005F28D023689A
:1017700013F4006F11D06368A26843EA8213E26831
:101780005208013A43EA0243226943EA026362696A
:1017900043EA0273494AC2F88430494B01221A6075
:1017A000FEF700FF0646454B1B6813F0006F7FF401
:1017B000FBAEFEF7F7FE801B0228F4D90320F7E604
:1017C0003E48D0F88430C3F301435A1CD0F88460FB
:1017D0006368A16843EA8113E1684908013943EA73
:1017E000014343EA426306F0E0421343C0F8843009
:1017F000BDE7344B00221A60FEF7D4FE05462F4B9E
:101800001B6813F0005F06D0FEF7CCFE401B0228D9
:10181000F5D90320CCE6236813F0040F01D0226B26
:1018200022B113F0080F1AD0636BC3B9234AD2F860
:101830008810A369E06943EA801301F440310B4347
:10184000616A43EA0163C2F88830D2F88C3023F42D
:10185000F853E16A013943EA0123C2F88C30236866
:1018600013F4807F03D0636DB3F1006F11D0154B7B
:1018700001221A60FEF796FE0446104B1B6813F017
:10188000005F18D1FEF78EFE001B0228F5D9032059
:101890008EE60A48D0F88810A369E26943EA821309
:1018A000226A5208013A43EA024301F0706213438C
:1018B000C0F88830DBE700207AE600BF003802403D
:1018C00068004742700047422DE9F04B5C4B9B6833
:1018D00003F00C03082B07D00C2B5BD0042B00F07B
:1018E000AD805848BDE8F08B554B5A6802F03F0276
:1018F0005B6813F4800F2AD0514B5B68C3F38813E5
:101900001E4600275C010025E41A65EB0705A901C6
:1019100041EA9461A001001B61EB0501CB0043EAA1
:101920005073C400A01943EB07014B0243EAD053A4
:101930004402204619460023FEF76AFC404B5B68D0
:10194000C3F3014301335B00B0FBF3F0CAE73C4B48
:101950005B68C3F388131E4600275C010025E41A68
:1019600065EB0705A90141EA9461A001001B61EB49
:101970000501CB0043EA5073C400A01943EB0701F3
:101980008B0243EA90538402204619460023FEF757
:101990003FFCD3E72A4B5A6802F03F025B6813F41E
:1019A000800F28D0264B5B68C3F388131E460027A0
:1019B0005C010025E41A65EB0705A90141EA946181
:1019C000A001001B61EB0501CB0043EA5073C4008A
:1019D000A01943EB07014B0243EAD05344022046CF
:1019E00019460023FEF714FC154B5B68C3F3027322
:1019F000B0FBF3F076E7124B5B68C3F388131E4627
:101A000000275C010025E41A65EB0705A90141EAFE
:101A10009461A001001B61EB0501CB0043EA507308
:101A2000C400A01943EB07018B0243EA90538402E0
:101A3000204619460023FEF7EBFBD5E7024851E7A5
:101A4000003802400024F40000127A0070B582B021
:101A50000446036813F0010F41D0A64B9B6803F0C6
:101A60000C03042B32D0A34B9B6803F00C03082B10
:101A700027D0A04B9B6803F00C030C2B59D0636854
:101A8000B3F5803F5BD0B3F5A02F5ED0994B1A68B9
:101A900022F480321A601A6822F480221A60636885
:101AA000002B5CD0FEF77EFD0546924B1B6813F4BD
:101AB000003F14D1FEF776FD401B6428F5D90320C2
:101AC0009DE18C4B5B6813F4800FD2D0894B1B686F
:101AD00013F4003F03D06368002B00F08D8123686E
:101AE00013F0020F67D0834B9B6813F00C0F4AD0A2
:101AF000804B9B6803F00C03082B3FD07D4B9B6809
:101B000003F00C030C2B48D0E368002B74D07A4B05
:101B100001221A60FEF746FD0546764B1B6813F05E
:101B2000020F60D1FEF73EFD401B0228F5D90320CD
:101B300065E1704B5B6813F4800FA0D0C6E76D4A77
:101B4000136843F480331360A9E76A4B1A6842F4C0
:101B500080221A601A6842F480321A609FE7FEF70A
:101B600021FD0546634B1B6813F4003FB7D0FEF719
:101B700019FD401B6428F5D9032040E15D4B5B68EB
:101B800013F4800FBAD15B4B1B6813F0020F0AD01D
:101B9000E368012B07D0012031E1564B5B6813F459
:101BA000800FB1D1EFE7534A136823F0F80321699E
:101BB00043EAC1031360236813F0080F40D0636940
:101BC00063B34E4B01221A60FEF7ECFC0546494B0D
:101BD0005B6F13F0020F33D1FEF7E4FC401B0228C9
:101BE000F5D903200BE1434A136823F0F803216978
:101BF00043EAC1031360DEE73F4B00221A60FEF7A1
:101C0000D1FC05463B4B1B6813F0020FD3D0FEF707
:101C1000C9FC401B0228F5D90320F0E0374B002215
:101C20001A60FEF7BFFC0546324B5B6F13F0020FE4
:101C300006D0FEF7B7FC401B0228F5D90320DEE0F2
:101C4000236813F0040F79D02A4B1B6C13F0805FCC
:101C500033D100230193274B1A6C42F080521A644F
:101C60001B6C03F080530193019B0125244B1B68DF
:101C700013F4807F23D0A368012B34D0052B41D0EF
:101C80001C4B1A6F22F001021A671A6F22F004022D
:101C90001A67A368002B3FD0FEF784FC0646154B5D
:101CA0001B6F13F0020F48D1FEF77CFC801B41F242
:101CB00088339842F3D90320A1E00025D6E7104AE3
:101CC000136843F480731360FEF76CFC06460C4BFC
:101CD0001B6813F4807FCED1FEF764FC801B0228C2
:101CE000F5D903208BE0034A136F43F00103136718
:101CF000CFE700BF0038024000004742800E474255
:101D000000700040404B1A6F42F004021A671A6FCD
:101D100042F001021A67BCE7FEF744FC06463A4B64
:101D20001B6F13F0020F08D0FEF73CFC801B41F242
:101D300088339842F3D9032061E0E5B9A369002B09
:101D40005CD0314A926802F00C02082A59D0022B6A
:101D500017D02E4B00221A60FEF724FC04462A4BB3
:101D60001B6813F0007F45D0FEF71CFC001B022807
:101D7000F5D9032043E0244A136C23F08053136405
:101D8000DCE7224B00221A60FEF70CFC05461E4BD6
:101D90001B6813F0007F06D0FEF704FC401B0228EE
:101DA000F5D903202BE0E369226A1343626A43EA10
:101DB0008213A26A5208013A43EA0243E26A43EA02
:101DC0000263226B43EA02730F4A53600F4B0122F6
:101DD0001A60FEF7E7FB04460B4B1B6813F0007F0D
:101DE00006D1FEF7DFFB001B0228F5D9032006E031
:101DF000002004E0002002E0012000E0002002B00A
:101E000070BD0120FBE700BF003802406000474280
:101E10002DE9F843044601680A6922F44052C36878
:101E200013430B610168CA6822F4164222F00C02C7
:101E300083680069034360690343E0690343134314
:101E4000CB6021684A6922F44072A36913434B6155
:101E5000E369B3F5004F60D02368B84A934200F0BD
:101E6000148102F58062934200F00F81FFF7CEFAF1
:101E700000EB800000EB80006568AD00B0FBF5F57D
:101E8000AF4FA7FB05356D092E01FFF7BFFA00EB39
:101E9000800000EB80006568AD00B0FBF5F9FFF74E
:101EA000B5FA00EB800000EB80006568AD00B0FB88
:101EB000F5F5A7FB05356D094FF0640808FB15958E
:101EC0002D013235A7FB05356D0905F0F0053544C8
:101ED000FFF79CFA00EB800000EB80006668B6001C
:101EE000B0FBF6F6FFF792FA00EB800000EB800003
:101EF00063689B00B0FBF3F0A7FB0030400908FBD0
:101F000010684FEA081808F13208A7FB0837C7F332
:101F1000431723682F449F600DE12368874A93424B
:101F20005BD002F58062934257D0FFF76FFA00EB67
:101F3000800000EB800065686D00B0FBF5F5804F18
:101F4000A7FB05356D092E01FFF760FA00EB800055
:101F500000EB800065686D00B0FBF5F9FFF756FAFD
:101F600000EB800000EB800065686D00B0FBF5F5CC
:101F7000A7FB05356D094FF0640808FB1595ED00CA
:101F80003235A7FB05356D096D0005F4F87535444C
:101F9000FFF73CFA00EB800000EB800066687600FB
:101FA000B0FBF6F6FFF732FA00EB800000EB8000A2
:101FB00063685B00B0FBF3F3A7FB03235B0908FB3B
:101FC00013684FEAC80808F13208A7FB0837C7F3BF
:101FD000421723682F449F60ADE0FFF727FA00EB1C
:101FE000800000EB800065686D00B0FBF5F5544F94
:101FF000A7FB05356D092E01FFF718FA00EB8000ED
:1020000000EB800065686D00B0FBF5F9FFF70EFA94
:1020100000EB800000EB800065686D00B0FBF5F51B
:10202000A7FB05356D094FF0640808FB1595ED0019
:102030003235A7FB05356D096D0005F4F87535449B
:10204000FFF7F4F900EB800000EB80006668760093
:10205000B0FBF6F6FFF7EAF900EB800000EB80003A
:1020600063685B00B0FBF3F3A7FB03235B0908FB8A
:1020700013684FEAC80808F13208A7FB0837C7F30E
:10208000421723682F449F6055E0FFF7CFF900EB1C
:10209000800000EB80006568AD00B0FBF5F5284FCF
:1020A000A7FB05356D092E01FFF7C0F900EB800095
:1020B00000EB80006568AD00B0FBF5F9FFF7B6F9FD
:1020C00000EB800000EB80006568AD00B0FBF5F52B
:1020D000A7FB05356D094FF0640808FB15952D0128
:1020E0003235A7FB05356D0905F0F0053544FFF7DE
:1020F0009DF900EB800000EB80006668B600B0FB45
:10210000F6F6FFF793F900EB800000EB80006368C0
:102110009B00B0FBF3F0A7FB0030400908FB106800
:102120004FEA081808F13208A7FB0837C7F343172E
:1021300023682F449F60BDE8F88300BF0010014072
:102140001F85EB5158B310B5044690F839300BB3E6
:10215000242384F839302268D36823F40053D360F1
:102160002046FFF755FE2268136923F4904313615C
:102170002268536923F02A0353612268D36843F429
:102180000053D3600020E063202384F8393084F8C2
:102190003A3010BD80F8383000F008FCD8E7012054
:1021A000704708B500F004F9012801D000F05AF991
:1021B00008BD43684B609A688A609A68516099606C
:1021C00008610368013303607047036942688168EE
:1021D00091608268416851605A68824205D000224D
:1021E0000261186801381860704782685A60F6E723
:1021F000074B9B6A1B6833B1054B9A6AD268D26859
:102200005268DA627047024B4FF0FF32DA62704771
:10221000280000202DE9F041404BD3F81831002B65
:102220006CD13E4BD3F810510135C3F81051CDB9E4
:102230009B6A1B6843B14FF0500383F31188BFF3CF
:102240006F8FBFF34F8FFEE7344B9A6AD3F8F810C5
:102250009962C3F8F820D3F820210132C3F8202175
:10226000FFF7C6FF2D4BDB6AAB423DD900242B4A5A
:10227000D2F80031DB6A03EB830399000A44136B45
:10228000012B42D9012440E00124244B9B6A1B68A6
:1022900063B3224B9B6ADB68DE6873689D422AD376
:1022A00006F104084046FFF790FFB36A1BB106F140
:1022B0001800FFF78AFFF36A01229A40174FD7F8F8
:1022C0000C110A43C7F80C2107F1300003EB83031C
:1022D0009A0041461044FFF76CFFF26AD7F80031CC
:1022E000DB6A9A42D0D2D0E70024CEE70B4B4FF006
:1022F000FF32DA62BBE7094AD362B8E7074AD2F88D
:1023000024310133C2F824310024044BD3F828319E
:1023100003B101242046BDE8F08100BF2800002061
:10232000224BD3F8183123B1204B0122C3F82821C6
:1023300070471E4A0023C2F82831D2F80C31B3FA94
:1023400083F3DBB2C3F11F0303EB830081000A4474
:10235000126B42B94FF0500383F31188BFF36F8FB4
:10236000BFF34F8FFEE710B4104A9900CC18A000BD
:102370001044446B64684463303219448800083068
:10238000024494420BD0094903EB83039A000A44A8
:10239000536BDB68C1F800315DF8044B704761682E
:1023A0000248142202FB03025163ECE728000020DC
:1023B000064BD3F804313BB1044BD3F818310BB1C1
:1023C000002070470220704701207047280000203D
:1023D000074B19680868B0E8F04F80F30988BFF32D
:1023E0006F8F4FF0000080F311887047AFF30080CB
:1023F0002801002000000000000000000000000094
:10240000EFF30980BFF36F8F154B1A681EF0100FA2
:1024100008BF20ED108A20E9F04F10604DF8043D10
:102420004FF0500080F31188BFF34F8FBFF36F8FD1
:10243000FFF776FF4FF0000080F3118808BC1968A1
:102440000868B0E8F04F1EF0100F08BFB0EC108A1B
:1024500080F30988BFF36F8F704700BFAFF3008030
:102460002801002008B54FF0500383F31188BFF313
:102470006F8FBFF34F8FFFF7CDFE18B1034B4FF0B7
:1024800080521A60002383F3118808BD04ED00E038
:10249000054B064A1A6000225A609A60DA601A6197
:1024A0005A619A61704700BF44020020002C01402D
:1024B00000B58BB0002207920892099201921A4B44
:1024C000196B41F004011963196B01F004010191CA
:1024D00001990292196B41F001011963196B01F026
:1024E0000101029102990392196B41F002011963F3
:1024F000196B01F002010391039904921A6B42F0E7
:1025000008021A631B6B03F008030493049B4FF447
:1025100000530593054B069305A90548FEF7E6FD14
:102520000BB05DF804FB00BF003802400000211032
:102530000008024000B583B000220192094B196BDC
:1025400041F4800119631B6B03F480030193019B29
:1025500005213820FEF76AFB3820FEF79BFB03B00D
:102560005DF804FB00380240F0B585B00025009509
:10257000019502950395424C424B23606560A5602E
:1025800001262661A6612562E5623F4BA362E560F4
:102590001027E761266365612046FEF7B5F80095D0
:1025A0000196029569462046FEF7BEF9009602257F
:1025B000019569462046FEF7B7F900950325019578
:1025C00069462046FEF7B0F9009504250195694655
:1025D0002046FEF7A9F90095052501956946204694
:1025E000FEF7A2F900950625019569462046FEF7FB
:1025F0009BF900950725019569462046FEF794F959
:1026000000950825019569462046FEF78DF900954D
:102610000925019569462046FEF786F900950A25A9
:10262000019569462046FEF77FF900950B25019537
:1026300069462046FEF778F900950C250195694614
:102640002046FEF771F900950D2501956946204653
:10265000FEF76AF900950E25019569462046FEF7BA
:1026600063F900950F25019569462046FEF75CF950
:102670000095019769462046FEF756F905B0F0BD72
:102680005C010020002001400100000F08B508484F
:10269000084B03604FF4E133436000238360C36061
:1026A00003610C2242618361C361FFF74BFD08BDEA
:1026B000A40100200010014008B50948094B03603F
:1026C0001023436000238360C3600361436103768A
:1026D00043768376C37603774377FEF7EFF908BD39
:1026E000C80200200064004008B5002304E0064A48
:1026F000002142F8231001330F2BF8DD102202498C
:102700000248FEF72BF808BDF00200205C01002013
:1027100030B5ADB0342200211FA800F00BFA002420
:102720001A941B941C941D941E945C22214603A8A9
:1027300000F000FA0194204B1A6C42F080521A64A7
:102740001B6C03F080530193019B02941B4A136896
:1027500023F4404343F480431360136803F440437D
:102760000293029B02251F9501232293102323939A
:1027700025952694082327934823289329950323F6
:102780002A932B951FA8FFF761F90F231A931B9526
:102790001C944FF480531D931E9429461AA8FEF7EB
:1027A00083FD4FF4407303931894149403A8FEF729
:1027B0004DFE2DB030BD00BF00380240007000401B
:1027C00008B5FDF7C9FEFFF7A3FFFFF771FEFFF79E
:1027D000B1FEFFF7C9FEFFF759FFFFF76DFFFFF7E7
:1027E00057FE102203490448FDF7B8FF0A20FDF701
:1027F000DFFEFBE7F00200205C01002070470000D4
:1028000000B583B0002200920D4B596C41F4804119
:102810005964596C01F48041009100990192196C3E
:1028200041F0805119641B6C03F080530193019BAC
:102830000F216FF00100FEF7F9F903B05DF804FB1A
:102840000038024070B58AB00023059306930793C1
:1028500008930993026803F1804303F590339A4289
:1028600001D00AB070BD04460025019503F58C33F4
:102870005A6C42F480725A645A6C02F4807201926B
:10288000019A02951A6B42F004021A631A6B02F065
:1028900004020292029A03951A6B42F001021A6333
:1028A0001A6B02F001020392039A04951A6B42F02C
:1028B00002021A631B6B03F002030493049B3F2381
:1028C00005930326069605A91748FEF70FFCFF237C
:1028D00005930696079505A91448FEF707FC05968B
:1028E0000696079505A91248FEF700FC1148124B01
:1028F000036045608560C5604FF4806303614FF4F9
:10290000805343614FF4804383614FF48073C3610C
:1029100005624562FEF75CFA18B9064BA3639C6337
:102920009FE7FFF76BFFF8E7000802400000024056
:1029300000040240E40100201064024000B589B0A8
:102940000023039304930593069307930268154BA2
:102950009A4202D009B05DF804FB0021019103F511
:10296000EA331A6C42F000721A641A6C02F00072B8
:102970000192019A02911A6B42F001021A631B6BD9
:1029800003F001030293029B4FF4C053039302230D
:102990000493032306930923079303A90248FEF730
:1029A000A5FBD7E7006400400000024000B589B0F5
:1029B000002303930493059306930793026803F19E
:1029C000804303F588339A4202D009B05DF804FBD6
:1029D0000021019103F594335A6C42F010025A64BD
:1029E0005A6C02F010020192019A02911A6B42F0A5
:1029F00001021A631B6B03F001030293029B4FF465
:102A0000C0630393022304930123059303230693D6
:102A10000723079303A90248FEF768FBD5E700BF29
:102A2000000002407047FEE7FEE7FEE7FEE7704762
:102A300008B5FDF7ABFDFFF7B4FB08BD08B50248CC
:102A4000FEF766FA08BD00BFE40100200F49D1F887
:102A5000883043F47003C1F888300D4B1A6842F097
:102A600001021A60002098601A6822F0847222F431
:102A700080321A60074A5A601A6822F480221A606B
:102A8000D8604FF000638B60704700BF00ED00E03E
:102A90000038024010300024DFF834D0002103E079
:102AA0000C4B5B58435004310B480C4B42189A4274
:102AB000F6D30B4A02E0002342F8043B094B9A424A
:102AC000F9D3FFF7C3FF00F011F8FFF779FE704765
:102AD000000002208C2B0008000000200C000020C9
:102AE0000C00002030030020FEE7000070B50D4E02
:102AF0000D4CA41BA4100025A54209D10B4E0C4C73
:102B000000F020F8A41BA4100025A54205D170BD3B
:102B100056F8253098470135EEE756F825309847A6
:102B20000135F2E7842B0008842B0008842B000871
:102B3000882B000802440346934200D1704703F8F3
:102B4000011BF9E7F8B500BFF8BC08BC9E4670470A
:0C2B5000F8B500BFF8BC08BC9E467047FA
:102B5C000006101600061016000000000000000011
:102B6C000102030406070809000000000102030427
:082B7C00C4D6FF7F0100000038
:042B8400F50100084F
:042B8800D10100086F
:0C2B8C0001000000100000000024F40014
:0400000508002A992C
:00000001FF
