:020000040800F2
:100000000000022005B300083DA800083FA8000832
:1000100041A8000843A8000845A800080000000007
:10002000000000000000000000000000E190000857
:1000300047A800080000000081910008E591000831
:1000400055B3000855B3000855B3000855B3000870
:1000500055B3000855B3000855B3000855B3000860
:1000600055B3000855B3000855B3000855B3000850
:1000700055B3000855B3000855B3000855B3000840
:1000800055B3000855B3000855B3000855B3000830
:1000900055B3000855B3000855B3000855B3000820
:1000A00055B3000849A8000855B3000855B3000827
:1000B00061A8000871A8000881A8000855B30008CD
:1000C00055B3000855B3000855B3000855B30008F0
:1000D00055B3000855B3000855B3000855B30008E0
:1000E00055B3000855B3000855B3000855B30008D0
:1000F00055B3000855B3000855B3000855B30008C0
:1001000055B3000891A8000855B3000855B300087E
:1001100055B3000855B3000855B3000855B300089F
:10012000A1A8000855B3000855B30008B1A80008FD
:1001300055B30008000000000000000055B300089F
:1001400055B3000855B3000855B3000855B300086F
:1001500055B30008C1A8000855B3000855B30008FE
:1001600055B3000855B3000855B3000855B300084F
:1001700055B3000855B3000855B30008000000004F
:100180000000000055B3000800000000000000005F
:1001900055B30008000000000000000055B300083F
:1001A00000000000000000000000000055B300083F
:1001B00055B3000855B3000855B3000855B30008FF
:0401C00055B300082B
:1001D00010B5054C237833B9044B13B10448AFF381
:1001E00000800123237010BDF801002000000000F2
:1001F00050F5000808B5034B1BB103490348AFF3A2
:10020000008008BD00000000FC01002050F500083F
:10021000034613F8012B002AFBD1181A0138704746
:1002200001F0FF01102A2BDB10F0070F08D010F8A7
:10023000013B013A8B422DD010F0070F42B3F6D1AB
:10024000F0B441EA012141EA014122F007047FF0C4
:1002500000070023F0E80256083C85EA010586EA1B
:10026000010685FA47F5A3FA87F586FA47F6A5FA57
:1002700087F68EB9EED1F0BC01F0FF0102F0070263
:1002800032B110F8013B013A83EA010313B1F8D10E
:100290000020704701387047002D06BF35460338EF
:1002A000073815F0010F07D1013015F4807F02BF28
:1002B000013015F4C03F0130F0BC0138704700BF79
:1002C00081F0004102E000BF83F0004330B54FEA07
:1002D00041044FEA430594EA050F08BF90EA020F74
:1002E0001FBF54EA000C55EA020C7FEA645C7FEA07
:1002F000655C00F0E2804FEA5454D4EB5555B8BF2A
:100300006D420CDD2C4480EA020281EA030382EA9A
:10031000000083EA010180EA020281EA0303362D2C
:1003200088BF30BD11F0004F4FEA01314FF4801CFF
:100330004CEA113102D0404261EB410113F0004F11
:100340004FEA03334CEA133302D0524263EB4303C8
:1003500094EA050F00F0A780A4F10104D5F1200E66
:100360000DDB02FA0EFC22FA05F2801841F10001C1
:1003700003FA0EF2801843FA05F359410EE0A5F195
:1003800020050EF1200E012A03FA0EFC28BF4CF0C6
:10039000020C43FA05F3C01851EBE37101F000457C
:1003A00007D54FF0000EDCF1000C7EEB00006EEB89
:1003B0000101B1F5801F1BD3B1F5001F0CD3490813
:1003C0005FEA30004FEA3C0C04F101044FEA44526A
:1003D00012F5800F80F09A80BCF1004F08BF5FEAF1
:1003E000500C50F1000041EB045141EA050130BDD1
:1003F0005FEA4C0C404141EB0101013C28BFB1F5E3
:10040000801FE9D291F0000F04BF01460020B1FA2D
:1004100081F308BF2033A3F10B03B3F120020CDA00
:100420000C3208DD02F1140CC2F10C0201FA0CF0DE
:1004300021FA02F10CE002F11402D8BFC2F1200C43
:1004400001FA02F120FA0CFCDCBF41EA0C019040F9
:10045000E41AA2BF01EB0451294330BD6FEA040442
:100460001F3C1CDA0C340EDC04F11404C4F120022D
:1004700020FA04F001FA02F340EA030021FA04F33F
:1004800045EA030130BDC4F10C04C4F1200220FA96
:1004900002F001FA04F340EA0300294630BD21FAD4
:1004A00004F0294630BD94F0000F83F4801306BF9A
:1004B00081F480110134013D4EE77FEA645C18BF8E
:1004C0007FEA655C29D094EA050F08BF90EA020F25
:1004D00005D054EA000C04BF1946104630BD91EA1D
:1004E000030F1EBF0021002030BD5FEA545C05D120
:1004F0004000494128BF41F0004130BD14F580045F
:100500003CBF01F5801130BD01F0004545F0FE41D2
:1005100041F470014FF0000030BD7FEA645C1ABF07
:10052000194610467FEA655C1CBF0B46024650EA3E
:10053000013406BF52EA033591EA030F41F400216A
:1005400030BD00BF90F0000F04BF0021704730B5F0
:100550004FF4806404F132044FF000054FF00001C5
:1005600050E700BF90F0000F04BF0021704730B586
:100570004FF4806404F1320410F0004548BF40425B
:100580004FF000013EE700BF42004FEAE2014FEAB0
:1005900031014FEA02701FBF12F07F4393F07F4F8B
:1005A00081F06051704732F07F4208BF704793F08E
:1005B0007F4F04BF41F40021704730B54FF46074A1
:1005C00001F0004521F000411CE700BF50EA0102A4
:1005D00008BF704730B54FF000050AE050EA01024D
:1005E00008BF704730B511F0004502D5404261EBBD
:1005F00041014FF4806404F132045FEA915C3FF4FE
:10060000D8AE4FF003025FEADC0C18BF03325FEA9A
:10061000DC0C18BF033202EBDC02C2F1200300FA4B
:1006200003FC20FA02F001FA03FE40EA0E0021FA70
:1006300002F11444BDE600BF70B54FF0FF0C4CF45E
:10064000E06C1CEA11541DBF1CEA135594EA0C0F10
:1006500095EA0C0F00F0DEF82C4481EA030621EA4B
:100660004C5123EA4C5350EA013518BF52EA033586
:1006700041F4801143F4801338D0A0FB02CE4FF038
:100680000005E1FB02E506F00042E0FB03E54FF068
:100690000006E1FB03569CF0000F18BF4EF0010E60
:1006A000A4F1FF04B6F5007F64F5407404D25FEA5C
:1006B0004E0E6D4146EB060642EAC62141EA55510F
:1006C0004FEAC52040EA5E504FEACE2EB4F1FD0C51
:1006D00088BFBCF5E06F1ED8BEF1004F08BF5FEACF
:1006E000500E50F1000041EB045170BD06F0004681
:1006F00046EA010140EA020081EA0301B4EB5C042E
:10070000C2BFD4EB0C0541EA045170BD41F4801125
:100710004FF0000E013C00F3AB8014F1360FDEBF4A
:10072000002001F0004170BDC4F10004203C35DA26
:100730000C341BDC04F11404C4F1200500FA05F3A9
:1007400020FA04F001FA05F240EA020001F000424A
:1007500021F0004110EBD37021FA04F642EB0601C0
:100760005EEA430E08BF20EAD37070BDC4F10C04EA
:10077000C4F1200500FA04F320FA05F001FA04F2AE
:1007800040EA020001F0004110EBD37041F100019A
:100790005EEA430E08BF20EAD37070BDC4F12005A5
:1007A00000FA05F24EEA020E20FA04F301FA05F20D
:1007B00043EA020321FA04F001F0004121FA04F2B5
:1007C00020EA020000EBD3705EEA430E08BF20EA85
:1007D000D37070BD94F0000F0FD101F000464000BF
:1007E00041EB010111F4801F08BF013CF7D041EA41
:1007F000060195F0000F18BF704703F00046520045
:1008000043EB030313F4801F08BF013DF7D043EA15
:100810000603704794EA0C0F0CEA135518BF95EACB
:100820000C0F0CD050EA410618BF52EA4306D1D152
:1008300081EA030101F000414FF0000070BD50EA71
:10084000410606BF1046194652EA430619D094EAFB
:100850000C0F02D150EA013613D195EA0C0F05D1E5
:1008600052EA03361CBF104619460AD181EA030139
:1008700001F0004141F0FE4141F470014FF00000F1
:1008800070BD41F0FE4141F4780170BD70B54FF08C
:10089000FF0C4CF4E06C1CEA11541DBF1CEA13550C
:1008A00094EA0C0F95EA0C0F00F0A7F8A4EB0504EE
:1008B00081EA030E52EA03354FEA013100F08880E5
:1008C0004FEA03334FF0805545EA131343EA1263AE
:1008D0004FEA022245EA111545EA10654FEA002663
:1008E0000EF000419D4208BF964244F1FD0404F51C
:1008F000407402D25B084FEA3202B61A65EB030578
:100900005B084FEA32024FF480104FF4002CB6EB34
:10091000020E75EB030E22BFB61A754640EA0C00B4
:100920005B084FEA3202B6EB020E75EB030E22BFF4
:10093000B61A754640EA5C005B084FEA3202B6EB35
:10094000020E75EB030E22BFB61A754640EA9C00F4
:100950005B084FEA3202B6EB020E75EB030E22BFC4
:10096000B61A754640EADC0055EA060E18D04FEA82
:10097000051545EA16754FEA06164FEAC30343EA22
:1009800052734FEAC2025FEA1C1CC0D111F4801FEF
:100990000BD141EA00014FF000004FF0004CB6E7E8
:1009A00011F4801F04BF01430020B4F1FD0C88BF87
:1009B000BCF5E06F3FF6AFAEB5EB030C04BFB6EB92
:1009C000020C5FEA500C50F1000041EB045170BD85
:1009D0000EF0004E4EEA113114EB5C04C2BFD4EBB2
:1009E0000C0541EA045170BD41F480114FF0000E36
:1009F000013C90E645EA060E8DE60CEA135594EAB2
:100A00000C0F08BF95EA0C0F3FF43BAF94EA0C0FB4
:100A10000AD150EA01347FF434AF95EA0C0F7FF429
:100A200025AF104619462CE795EA0C0F06D152EA7D
:100A300003353FF4FDAE1046194622E750EA410661
:100A400018BF52EA43067FF4C5AE50EA41047FF472
:100A50000DAF52EA43057FF4EBAE12E74FF0FF3CD7
:100A600006E000BF4FF0010C02E000BF4FF0010CA8
:100A70004DF804CD4FEA410C7FEA6C5C4FEA430C21
:100A800018BF7FEA6C5C1BD001B050EA410C0CBF70
:100A900052EA430C91EA030F02BF90EA020F0020D2
:100AA000704710F1000F91EA030F58BF994208BF39
:100AB00090422CBFD8176FEAE37040F001007047F6
:100AC0004FEA410C7FEA6C5C02D150EA013C07D14D
:100AD0004FEA430C7FEA6C5CD6D152EA033CD3D098
:100AE0005DF8040B704700BF8446104662468C4692
:100AF0001946634600E000BF01B5FFF7B7FF0028C5
:100B000048BF10F1000F01BD4DF808EDFFF7F4FFED
:100B10000CBF012000205DF808FB00BF4DF808ED78
:100B2000FFF7EAFF34BF012000205DF808FB00BF9B
:100B30004DF808EDFFF7E0FF94BF012000205DF8BD
:100B400008FB00BF4DF808EDFFF7CEFF94BF012072
:100B500000205DF808FB00BF4DF808EDFFF7C4FF6B
:100B600034BF012000205DF808FB00BF4FEA410CB4
:100B70007FEA6C5C02D150EA013C0AD14FEA430C97
:100B80007FEA6C5C02D152EA033C02D14FF00000D4
:100B900070474FF0010070474FEA410212F5001212
:100BA00015D211D56FF47873B3EB625212D94FEAB4
:100BB000C12343F0004343EA505311F0004F23FA9E
:100BC00002F018BF404270474FF00000704750EAF3
:100BD000013005D111F0004008BF6FF000407047B0
:100BE0004FF00000704700BF4FEA4102B2F1E0430E
:100BF00024BFB3F5001CDCF1FE5C0DD901F0004C04
:100C00004FEAC0024CEA5070B2F1004F40EB830053
:100C100008BF20F00100704711F0804F21D113F17F
:100C20003872BCBF01F00040704741F480114FEAB8
:100C30005252C2F11802C2F1200C10FA0CF320FA41
:100C400002F018BF40F001004FEAC1234FEAD3235E
:100C500003FA0CFC40EA0C0023FA02F34FEA4303C8
:100C6000CCE77FEA625307D150EA01331EBF4FF051
:100C7000FE4040F44000704701F0004040F0FE406C
:100C800040F40000704700BF80F0004002E000BF69
:100C900081F0004142001FBF5FEA410392EA030F67
:100CA0007FEA226C7FEA236C6AD04FEA1262D2EBB1
:100CB0001363C1BFD218414048404140B8BF5B42B6
:100CC000192B88BF704710F0004F40F4000020F04F
:100CD0007F4018BF404211F0004F41F4000121F065
:100CE0007F4118BF494292EA030F3FD0A2F10102AF
:100CF00041FA03FC10EB0C00C3F1200301FA03F1ED
:100D000000F0004302D5494260EB4000B0F5000F0F
:100D100013D3B0F1807F06D340084FEA310102F1CE
:100D20000102FE2A51D2B1F1004F40EBC25008BF80
:100D300020F0010040EA03007047490040EB00004A
:100D4000013A28BFB0F5000FEDD2B0FA80FCACF14B
:100D5000080CB2EB0C0200FA0CF0AABF00EBC25078
:100D600052421843BCBFD0401843704792F0000F66
:100D700081F4000106BF80F400000132013BB5E7B9
:100D80004FEA41037FEA226C18BF7FEA236C21D02F
:100D900092EA030F04D092F0000F08BF0846704794
:100DA00090EA010F1CBF0020704712F07F4F04D162
:100DB000400028BF40F00040704712F100723CBF75
:100DC00000F50000704700F0004343F0FE4040F49F
:100DD000000070477FEA226216BF08467FEA23635D
:100DE0000146420206BF5FEA412390EA010F40F448
:100DF000800070474FF0000304E000BF10F0004394
:100E000048BF40425FEA000C08BF704743F096437A
:100E100001464FF000001CE050EA010208BF704795
:100E20004FF000030AE000BF50EA010208BF70471C
:100E300011F0004302D5404261EB41015FEA010C31
:100E400002BF84460146002043F0B64308BFA3F129
:100E50008053A3F50003BCFA8CF2083AA3EBC2530B
:100E600010DB01FA02FC634400FA02FCC2F120022A
:100E7000BCF1004F20FA02F243EB020008BF20F061
:100E80000100704702F1200201FA02FCC2F12002C7
:100E900050EA4C0021FA02F243EB020008BF20EABC
:100EA000DC70704753B94AB9002908BF00281CBF3D
:100EB0004FF0FF314FF0FF3000F074B9ADF1080C86
:100EC0006DE904CE00F006F8DDF804E0DDE9022368
:100ED00004B070472DE9F047089D04468E46002B6C
:100EE0004DD18A42944669D9B2FA82F252B101FADE
:100EF00002F3C2F1200120FA01F10CFA02FC41EAEE
:100F0000030E94404FEA1C48210CBEFBF8F61FFA72
:100F10008CF708FB16E341EA034306FB07F199420D
:100F20000AD91CEB030306F1FF3080F01F819942C0
:100F300040F21C81023E63445B1AA4B2B3FBF8F09A
:100F400008FB103344EA034400FB07F7A7420AD921
:100F50001CEB040400F1FF3380F00A81A74240F249
:100F600007816444023840EA0640E41B00261DB1B4
:100F7000D4400023C5E900433146BDE8F0878B42E9
:100F800009D9002D00F0EF800026C5E900013046A8
:100F90003146BDE8F087B3FA83F6002E4AD18B4282
:100FA00002D3824200F2F980841A61EB030301202C
:100FB0009E46002DE0D0C5E9004EDDE702B9FFDE18
:100FC000B2FA82F2002A40F09280A1EB0C014FEAC3
:100FD0001C471FFA8CFE0126200CB1FBF7F307FB20
:100FE000131140EA01410EFB03F0884208D91CEBC3
:100FF000010103F1FF3802D2884200F2CB80434660
:10100000091AA4B2B1FBF7F007FB101144EA01443E
:101010000EFB00FEA64508D91CEB040400F1FF31CD
:1010200002D2A64500F2BB800846A4EB0E0440EABB
:1010300003409CE7C6F12007B34022FA07FC4CEAC4
:10104000030C20FA07F401FA06F31C43F9404FEAB7
:101050001C4900FA06F3B1FBF9F8200C1FFA8CFECC
:1010600009FB181140EA014108FB0EF0884202FA20
:1010700006F20BD91CEB010108F1FF3A80F08880E1
:10108000884240F28580A8F102086144091AA4B29E
:10109000B1FBF9F009FB101144EA014100FB0EFE1F
:1010A0008E4508D91CEB010100F1FF346CD28E454E
:1010B0006AD90238614440EA0840A0FB0294A1EBDF
:1010C0000E01A142C846A64656D353D05DB1B3EB3C
:1010D000080261EB0E0101FA07F722FA06F3F1406C
:1010E0001F43C5E9007100263146BDE8F087C2F113
:1010F0002003D8400CFA02FC21FA03F3914001438B
:101100004FEA1C471FFA8CFEB3FBF7F007FB1036C3
:101110000B0C43EA064300FB0EF69E4204FA02F46F
:1011200008D91CEB030300F1FF382FD29E422DD9C2
:10113000023863449B1B89B2B3FBF7F607FB1633F7
:1011400041EA034106FB0EF38B4208D91CEB010177
:1011500006F1FF3816D28B4214D9023E6144C91AF7
:1011600046EA004638E72E46284605E70646E3E607
:101170001846F8E64B45A9D2B9EB020864EB0C0E11
:101180000138A3E74646EAE7204694E74046D1E720
:10119000D0467BE7023B614432E7304609E76444CE
:1011A000023842E7704700BF08B50B4B1A6842F49B
:1011B00000721A601A6842F480621A601A6842F477
:1011C00080721A60032000F043FC052009F0EAFA5F
:1011D00009F0C6FA002008BD003C0240034A11682D
:1011E000034B1B780B441360704700BF14020020B0
:1011F00000000020014B1868704700BF1402002057
:1012000038B50446FFF7F6FF0546B4F1FF3F02D0BC
:10121000044B1B781C44FFF7EDFF401BA042FAD3A0
:1012200038BD00BF000000204A4B5A6822F440320B
:101230005A605A6841680A435A600268536823F446
:101240008073536002685368016943EA0123536065
:101250000268536823F040735360026853688168E2
:101260000B4353600268936823F400639360026841
:101270009368C1680B439360826A374B9A4257D098
:101280000268936823F07063936002689368816AD0
:101290000B4393600268936823F0405393600268A5
:1012A0009368C16A0B4393600268936823F002035A
:1012B000936002689368017E43EA4103936090F86B
:1012C0002030002B3FD00268536843F40063536022
:1012D0000268536823F46043536001684B68426AB4
:1012E000013A43EA42334B600268D36A23F4700345
:1012F000D3620168CB6AC269013A43EA0253CB6206
:101300000268936823F4007393600268936890F80E
:10131000301043EA412393600268936823F48063AA
:10132000936002689368416943EA81239360704740
:101330000268936823F0706393600268936823F0F7
:1013400040539360B0E70268536823F4006353602E
:10135000CAE700BF002301400100000F38B310B5F9
:101360000446036C43B1236C13F0100F0BD0012023
:10137000002384F83C3010BD08F0A0FA0023636419
:1013800084F83C30EFE7236C23F4885323F0020306
:1013900043F0020323642046FFF746FF0020606409
:1013A000236C23F0030343F001032364E0E70120EF
:1013B0007047000010B582B013460022019290F8E9
:1013C0003C20012A00F0AE800446012280F83C2037
:1013D0000268906810F0010F13D1906840F001008E
:1013E0009060534A1068534AA2FB0020800C00EB27
:1013F0004000019002E00198013801900198002816
:10140000F9D12268906810F4807F03D0906820F4AE
:10141000807090602268906810F0010F77D0206C87
:1014200020F4E06020F0010040F4807020645268F5
:1014300012F4806F05D0226C22F4405242F48052A4
:101440002264226C12F4805F36D0626C22F00602B5
:101450006264002284F83C20A26B3748D063A26B00
:1014600036481064A26B3648D06422686FF02200C0
:1014700010602068426842F08062426020688268A2
:1014800042F48072826020680A4600F14C01A06B31
:1014900000F01CFC2B4B5B6813F01F0F27D1236857
:1014A000294A934211D002F58072934207D0274A0D
:1014B000934214D0002033E000226264C9E702F5B1
:1014C0000072526812F01F0FF1D19A6812F0405F5B
:1014D0002AD19A6842F080429A60002020E002F50A
:1014E0008072526812F0100FEFD0002018E02368CD
:1014F000154A934201D0002012E09A6812F0405F32
:1015000014D19A6842F080429A60002008E0236C6F
:1015100043F010032364636C43F001036364002011
:1015200002B010BD0220FBE70020F9E70020F7E73A
:101530002000002083DE1B437515000853150008AA
:101540005F150008002301400020014000220140F7
:10155000704708B5806BFFF7FBFF08BD704708B503
:10156000806B40230364436C43F004034364FFF740
:10157000F5FF08BD08B50346806B026C12F0500FF2
:1015800025D1036C43F40073036403689A6812F076
:10159000405F19D1027EBAB9DA6A12F4700F03D033
:1015A0009A6812F4806F0FD15A6822F020025A60B4
:1015B000036C23F480730364036C13F4805F03D122
:1015C000036C43F00103036409F0C2FA08BD026C26
:1015D00012F0100F04D1826BD26C18469047F5E7D9
:1015E000FFF7BCFFF2E7000030B482B000230193A4
:1015F00090F83C30012B00F0C080012380F83C3093
:101600000B68092B41D90468E2689BB203EB4303E2
:101610001E3B4FF0070C0CFA03F322EA0303E360CE
:101620000468E2680B8803EB43031E3B8D6805FAF0
:1016300003F31343E3604B68062B3DD80468626BE9
:1016400003EB8303053B4FF01F0C0CFA03F322EA74
:10165000030363630468626B4B6803EB8303053B1E
:10166000B1F800C00CFA03F3134363630268444B00
:101670009A4251D00268424B9A425AD0002380F8D5
:101680003C30184602B030BC7047046822699BB2F7
:1016900003EB43034FF0070C0CFA03F322EA0303B6
:1016A0002361046822690B8803EB43038D6805FA04
:1016B00003F313432361BEE70C2B16D805682A6B8E
:1016C00003EB8303233B1F2404FA03F322EA0303FF
:1016D0002B6305682A6B4B6803EB8303233B0C8861
:1016E00004FA03F313432B63C0E70568EA6A03EBCC
:1016F0008303413B1F2404FA03F322EA0303EB6252
:101700000568EA6A4B6803EB8303413B0C8804FAE3
:1017100003F31343EB62A9E70B68122BAAD1194B11
:101720005A6822F400025A605A6842F480025A60F1
:10173000A0E70B68144A934201D0112B9ED1114BA4
:101740005A6822F480025A605A6842F400025A60D1
:101750000A680D4B9A4291D10C4B1B680C4AA2FBB4
:1017600003239B0C03EB83035B000193019B002B82
:1017700084D0019B013B0193F8E7022082E700BF80
:101780000020014000230140120000102000002032
:1017900083DE1B43002800F0A18038B5044690F892
:1017A0002030D3B12268136843F001031360FFF7C0
:1017B00021FD054623685A6812F0010F10D1FFF78A
:1017C00019FD401B0A28F5D9636A43F400336362AC
:1017D000052384F82030012038BD08F095F9E1E7B1
:1017E0001A6822F002021A60FFF704FD054623681A
:1017F0005A6812F0020F0DD0FFF7FCFC401B0A28BC
:10180000F5D9636A43F400336362052384F820301A
:101810000120E1E7227E012A3DD01A6822F08002F1
:101820001A60637E012B3BD02268136823F04003CB
:101830001360A37E012B39D02268136823F02003A4
:101840001360E37E012B37D02268136843F0100346
:101850001360237F012B35D02268136823F008031F
:101860001360637F012B33D02268136823F00403D5
:101870001360A368E2681343226913436269134348
:101880006268013A21681343CB6100206062012342
:1018900084F82030A0E71A6842F080021A60C0E79E
:1018A0002268136843F040031360C2E7226813689C
:1018B00043F020031360C4E72268136823F0100389
:1018C0001360C6E72268136843F008031360C8E793
:1018D0002268136843F004031360CAE701207047CD
:1018E00090F820C00CF1FF3C5FFA8CFCBCF1010FBA
:1018F00000F2958030B451B90468E46814F0030F25
:1019000010D1436A43F400134362012077E0046876
:10191000246914F0030F05D1436A43F400134362B2
:1019200001206CE001F11B04240105682C5904F02E
:1019300004049460002C64D101F11B0424010568A7
:101940002C59640D1460046801F11B0C4FEA0C1C47
:1019500054F80C4004F00204D460046864446468E1
:1019600004F00F041461046864446468C4F3072439
:101970009461046864446468240C5461026802EB56
:101980000112D2F8B8211A70026802EB0112D2F8E3
:10199000B821C2F307225A70026802EB0112D2F892
:1019A000B821C2F307429A70026802EB0112D2F822
:1019B000B821120EDA70026802EB0112D2F8BC21D3
:1019C0001A71026802EB0112D2F8BC21C2F307229D
:1019D0005A71026802EB0112D2F8BC21C2F307422D
:1019E0009A71026802EB0112D2F8BC21120EDA7170
:1019F00079B90268D36843F02003D360002030BC7B
:101A0000704701F11B04240105682C59E408546057
:101A100099E70268136943F020031361EEE7436A14
:101A200043F4802343620120704790F82030013B4B
:101A3000DBB2012B01D90020704721B90368D868B7
:101A400000F0030070470368186900F00300704756
:101A5000074AD36823F4E0631B041B0C000200F464
:101A6000E060034343F0BF6343F40033D360704747
:101A700000ED00E000B5194BDB68C3F30223C3F1AE
:101A8000070CBCF1040F28BF4FF0040C03F1040E47
:101A9000BEF1060F18D9033B4FF0FF3E0EFA0CFCC7
:101AA00021EA0C0199400EFA03F322EA03031943D9
:101AB00000280BDB0901C9B200F1604000F561406C
:101AC00080F800135DF804FB0023E5E700F00F0049
:101AD0000901C9B2024B1954F4E700BF00ED00E060
:101AE00014ED00E0002807DB00F01F02400901238D
:101AF0009340024A42F82030704700BF00E100E006
:101B000030B405682C6824F480242C600468636079
:101B10008368402B05D0036899600368DA6030BCA5
:101B2000704703689A600368D960F8E710B40368E7
:101B3000D9B210390C4AA2FB014212090B4CA25C2B
:101B4000C2655F2909D923F47F7323F003030433AB
:101B50008365806D5DF8044B704723F47F7323F039
:101B600003038365F5E700BFABAAAAAA68F50008DE
:101B7000836A826992B9012B0AD0022B02D00BB181
:101B800000207047C36A13F0807F28D1002070477F
:101B9000C36AB3F1C07F24D000207047B2F5005F64
:101BA00009D0022B25D9032B25D1C36A13F0807FDE
:101BB00023D100207047032B03D8DFE803F014047F
:101BC000140A00207047C36A13F0807F0DD10020F3
:101BD0007047C36AB3F1C07F09D00020704701206D
:101BE0007047012070470120704701207047012095
:101BF00070470120704700207047012070470000A7
:101C000070B50446FFF7F6FA002C5BD005460223B8
:101C100084F83530002384F834302268136823F0C8
:101C20000103136023681A6812F0010F0AD0FFF74E
:101C3000E1FA431B052BF5D920236365032084F8C3
:101C4000350070BD1A68204810406168A2680A43D8
:101C5000E1680A4321690A4361690A43A1690A43A9
:101C6000E1690A43216A0A430243616A04291ED0DA
:101C70001A602668756925F00705636A1D43042B01
:101C800007D1A36A1D43E36A1BB12046FFF770FF2B
:101C900090B975612046FFF749FFE26D3F239340FD
:101CA000836000206065012384F83530C9E7E16A6C
:101CB000206B01430A43DBE740236365012084F87E
:101CC0003500BEE70120BCE73F8010F038B5044680
:101CD000856D90F8340001282BD0012084F8340061
:101CE00094F83500C0B2012804D0002384F83430C1
:101CF000022038BD022084F83500002060652046AF
:101D0000FFF7FEFEE26D3F239340AB60226813684D
:101D100043F016031360236C23B12268136843F069
:101D2000080313602268136843F001031360002066
:101D3000DFE70220DDE790F83530DBB2022B03D07D
:101D40008023436501207047052380F83530026801
:101D5000136823F00103136000207047F0B583B0CF
:101D6000044600230193724B1D68724BA3FB05359B
:101D7000AD0A876D3E68C26D08239340334210D090
:101D800003681A6812F0040F0BD01A6822F00402DC
:101D90001A60C26D08239340BB60436D43F001039A
:101DA0004365E26D01239340334209D022685269B2
:101DB00012F0800F04D0BB60636D43F002036365D3
:101DC000E26D04239340334209D02268126812F076
:101DD000020F04D0BB60636D43F004036365E26DE2
:101DE00010239340334224D02268126812F0080F67
:101DF0001FD0BB6023681A6812F4802F0DD01B68B7
:101E000013F4002F04D1236C9BB12046984710E0B7
:101E1000A36C73B1204698470BE01A6812F4807FD8
:101E200003D11A6822F008021A60236C0BB1204615
:101E30009847E26D20239340334255D022681268C0
:101E400012F0100F50D0BB6094F83530DBB2052B88
:101E50000ED023681A6812F4802F33D01B6813F455
:101E6000002F2AD1636C002B3ED0204698473BE0E0
:101E70002268136823F0160313602268536923F065
:101E800080035361236CA3B12268136823F0080315
:101E90001360E26D3F239340BB60012384F835302B
:101EA000002384F83430236D002B3FD02046984720
:101EB0003CE0A36C002BE7D1EBE7E36BA3B120463A
:101EC000984711E01A6812F4807F09D11A6822F04D
:101ED00010021A60012384F83530002384F834306E
:101EE000E36B0BB120469847636DFBB1636D13F054
:101EF000010F17D0052384F835302268136823F0CA
:101F000001031360019B01330193AB4204D82368A2
:101F10001B6813F0010FF5D1012384F8353000233D
:101F200084F83430E36C0BB12046984703B0F0BD21
:101F300020000020B5814E1B406D704700230F2B01
:101F400000F2DE8070B582B060E085685E00032438
:101F5000B44025EA0405CC68B4402C43846045684D
:101F600025EA02054C68C4F300129A402A434260F5
:101F70005AE0DC08083450F8246003F007029500AA
:101F80000F22AA4026EA020E0A69AA4042EA0E027D
:101F900040F824205CE0062200E0002202FA0EF263
:101FA0002A430234574D45F82420574A94686FEA73
:101FB0000C0224EA0C054E6816F4801F01D04CEA8E
:101FC0000405514CA560E46802EA04054E6816F465
:101FD000001F01D04CEA04054B4CE560646802EA3E
:101FE00004054E6816F4003F01D04CEA0405464C47
:101FF0006560246822404D6815F4803F01D04CEAAA
:102000000402414C226001330F2B77D801229A4001
:102010000C6804EA020C32EA0404F4D14C6804F0BF
:102020000304013C012C90D94A6802F00302032A00
:1020300009D0C4685D000322AA4024EA02048A6829
:10204000AA402243C2604A6802F00302022A90D0EA
:1020500004684FEA430E032202FA0EF224EA020455
:102060004A6802F0030202FA0EF2224302604A6852
:1020700012F4403FC7D000220192244A546C44F429
:1020800080445464526C02F480420192019A9C088C
:10209000A51C1C4A52F8255003F003024FEA820E99
:1020A0000F2202FA0EF225EA0205194A90423FF485
:1020B00074AF02F58062904216D002F580629042C1
:1020C00014D002F58062904212D002F580629042F4
:1020D00010D002F5806290420ED002F580629042EC
:1020E0003FF459AF072259E7012257E7022255E78B
:1020F000032253E7042251E705224FE702B070BDE7
:10210000704700BF00380140003C014000380240E9
:10211000000002400369194201D0012070470020ED
:102120007047000010B582B000230193194B1A6C60
:1021300042F080521A641B6C03F080530193019BA0
:10214000154B01221A64FFF755F80446134B5B68E0
:1021500013F4803F08D1FFF74DF8001BB0F57A7FEC
:10216000F4D9032002B010BD0B4B01225A64FFF7D3
:1021700041F80446094B5B6813F4003F07D1FFF7B1
:1021800039F8001BB0F57A7FF4D90320EAE7002084
:10219000E8E700BF0038024000000E420070004037
:1021A000002800F09B8070B50D4604464F4B1B681D
:1021B00003F00F038B4208D2CBB24C4A1370136862
:1021C00003F00F038B4240F08B80236813F0020F63
:1021D00017D013F0040F04D0454A936843F4E0533A
:1021E0009360236813F0080F04D0414A936843F4C6
:1021F000604393603E4A936823F0F003A1680B4369
:102200009360236813F0010F32D06368012B21D053
:102210009A1E012A25D9364A126812F0020F61D09F
:1022200033498A6822F0030213438B60FEF7E2FF12
:1022300006462F4B9B6803F00C036268B3EB820FDA
:1022400016D0FEF7D7FF801B41F288339842F0D9B1
:10225000032042E0264A126812F4003FE0D1012038
:102260003BE0234A126812F0007FD9D1012034E00C
:102270001E4B1B6803F00F03AB4207D9EAB21B4B9E
:102280001A701B6803F00F03AB422DD1236813F0C3
:10229000040F06D0164A936823F4E053E1680B4319
:1022A0009360236813F0080F07D0114A936823F452
:1022B0006043216943EAC103936000F09FFA0C4B2D
:1022C0009B68C3F303130B4AD35CD8400A4B1860D6
:1022D0000A4B186808F066FA002070BD01207047AC
:1022E0000120FAE70120F8E70120F6E7003C024070
:1022F000003802401CFA00082000002004000020E2
:10230000014B1868704700BF2000002008B5FFF798
:10231000F7FF044B9B68C3F38223034AD35CD84086
:1023200008BD00BF003802402CFA000808B5FFF7CE
:10233000E7FF044B9B68C3F34233034AD35CD840A6
:1023400008BD00BF003802402CFA00080F230360CC
:102350000B4B9A6802F0030242609A6802F0F002A6
:1023600082609A6802F4E052C2609B68DB0803F462
:10237000E0530361034B1B6803F00F030B607047CE
:1023800000380240003C0240F0B583B004460668C5
:1023900016F001060DD0964AD2F88C3023F0C063B7
:1023A000816B0B43C2F88C30836B002B00F09B8059
:1023B0000026236813F0020F0BD08D4AD2F88C3020
:1023C00023F0C053E16B0B43C2F88C30E36B03B9CD
:1023D0000126256815F004050FD0854AD2F88C3007
:1023E00023F44013216B0B43C2F88C30236BB3F5FD
:1023F000801F7AD0002B7AD00025236813F0080FB5
:102400000ED07B4AD2F88C3023F44003616B0B432F
:10241000C2F88C30636BB3F5800F6AD003B9012525
:10242000236813F0200F66D1236813F0100F04D037
:1024300094F858206F4BC3F8E021236813F0800F05
:1024400008D06B4AD2F8943023F44003E16C0B437C
:10245000C2F89430236813F0400F08D0644AD2F8D1
:10246000943023F08063A16C0B43C2F8943023684E
:1024700013F4807F0DD05E4AD2F8943023F00063CD
:10248000616D0B43C2F89430636DB3F1006F00F0DF
:102490009B80236813F4007F08D0554AD2F894300B
:1024A00023F08053616C0B43C2F89430236813F41B
:1024B000806F0CD04E4AD2F8943023F00053216D37
:1024C0000B43C2F89430236DB3F1005F7ED0002E31
:1024D0007CD12368B3F5006F78D0012D00F0258101
:1024E000002003B0F0BD012663E7012682E7012545
:1024F00083E7012692E7002301933D4B1A6C42F0DB
:1025000080521A641B6C03F080530193019B3A4A7A
:10251000136843F480731360FEF76CFE0746364B76
:102520001B6813F4807F06D1FEF764FEC01B0228EF
:10253000F5D90320D5E72E4B1B6F13F4407314D04D
:10254000226C02F440729A420FD0294B1A6F22F487
:1025500040722A490120C1F8400E0020C1F8400E07
:102560001A671B6F13F0010F12D1236C03F4407232
:10257000B2F5407F1DD01E4A936823F4F813936090
:102580001B490B6F226CC2F30B0213430B674BE723
:10259000FEF730FE0746164B1B6F13F0020FE4D117
:1025A000FEF728FEC01B41F288339842F3D903207E
:1025B00097E70F498A6822F4F81223F0704323F456
:1025C000407313438B60DBE7012562E70B4B00226E
:1025D0009A66FEF70FFE0646054B1B6813F0006F68
:1025E0000ED0FEF707FE801B0228F5D9032078E7FE
:1025F000003802400010474200700040000047428F
:10260000236813F0010F01D0A26B22B113F0020F67
:1026100015D0E36B9BB9774AD2F88400D2F88410C6
:102620006368A66843EA861300F44030034301F070
:1026300070610B43616943EA0173C2F88430236817
:1026400013F0040F03D0226BB2F5801F06D013F0F5
:10265000080F20D0636BB3F5800F1CD1654AD2F808
:102660008400D2F884106368A66843EA861300F4F5
:1026700040300343206943EA006301F0E0410B432B
:10268000C2F88430D2F88C3023F01F03A16A0139DC
:102690000B43C2F88C30236813F4806F03D0236D92
:1026A000B3F1005F28D0236813F4006F11D0636882
:1026B000A26843EA8213E2685208013A43EA0243FD
:1026C000226943EA0263626943EA0273494AC2F833
:1026D0008430494B01229A66FEF78CFD0646454B35
:1026E0001B6813F0006F7FF4F8AEFEF783FD801BCC
:1026F0000228F4D90320F4E63E48D0F88430C3F32E
:1027000001435A1CD0F884606368A16843EA8113CE
:10271000E1684908013943EA014343EA426306F0AC
:10272000E0421343C0F88430BDE7334B00221A6700
:10273000FEF760FD05462F4B1B6813F0005F06D0C7
:10274000FEF758FD401B0228F5D90320C9E623688F
:1027500013F0040F01D0226B22B113F0080F1AD02E
:10276000636BC3B9234AD2F88810A369E06943EACE
:10277000801301F440310B43616A43EA0163C2F8FC
:102780008830D2F88C3023F4F853E16A013943EAF7
:102790000123C2F88C30236813F4807F03D0636D6B
:1027A000B3F1006F11D0144B01221A67FEF722FD1E
:1027B0000446104B1B6813F0005F18D1FEF71AFD9A
:1027C000001B0228F5D903208BE60A48D0F88810B0
:1027D000A369E26943EA8213226A5208013A43EA92
:1027E000024301F070621343C0F88830DBE7002039
:1027F00077E600BF003802400000474208B55C4B56
:102800009B6803F00C03082B07D00C2B5BD0042B28
:1028100001D0584808BD5848FCE7554B5A6802F0AB
:102820003F025B6813F4800F2AD0514B5968C1F303
:10283000881C4FEA4C11B1EB0C006EEB0E0E4FEA08
:102840008E1343EA90638101091A63EB0E03DB00E8
:1028500043EA5173C90011EB0C0C43F10003590218
:1028600000234FEA4C2041EADC51FEF71BFB404BB2
:102870005B68C3F3014301335B00B0FBF3F0C9E7CE
:102880003B4B5968C1F3881C4FEA4C11B1EB0C006B
:102890006EEB0E0E4FEA8E1343EA90638101091A24
:1028A00063EB0E03DB0043EA5173C90011EB0C0C20
:1028B00043F10003990200234FEA8C2041EA9C5126
:1028C000FEF7F0FAD3E72A4B5A6802F03F025B6842
:1028D00013F4800F28D0264B5968C1F3881C4FEAA7
:1028E0004C11B1EB0C006EEB0E0E4FEA8E1343EA67
:1028F00090638101091A63EB0E03DB0043EA517315
:10290000C90011EB0C0C43F10003590200234FEAFC
:102910004C2041EADC51FEF7C5FA154B5B68C3F366
:102920000273B0FBF3F075E7114B5968C1F3881CD3
:102930004FEA4C11B1EB0C006EEB0E0E4FEA8E130A
:1029400043EA90638101091A63EB0E03DB0043EA5B
:102950005173C90011EB0C0C43F1000399020023E1
:102960004FEA8C2041EA9C51FEF79CFAD5E700BF64
:10297000003802400024F40000127A00002800F021
:10298000018270B582B00446036813F0010F41D094
:10299000994B9B6803F00C03042B32D0964B9B6839
:1029A00003F00C03082B27D0934B9B6803F00C0318
:1029B0000C2B59D06368B3F5803F5BD0B3F5A02FE3
:1029C0005ED08D4B1A6822F480321A601A6822F4A5
:1029D00080221A606368002B5CD0FEF70BFC054672
:1029E000854B1B6813F4003F14D1FEF703FC401B1A
:1029F0006428F5D90320CCE17F4B5B6813F4800F8A
:102A0000D2D07D4B1B6813F4003F03D06368002BCA
:102A100000F0BA81236813F0020F60D0764B9B68F8
:102A200013F00C0F4AD0744B9B6803F00C03082B77
:102A30003FD0714B9B6803F00C030C2B69D0E3680B
:102A4000002B75D06D4B01221A60FEF7D3FB0546B3
:102A5000694B1B6813F0020F61D1FEF7CBFB401BE3
:102A60000228F5D9032094E1634B5B6813F4800FCF
:102A7000A0D0C6E7604A136843F480331360A9E727
:102A80005D4B1A6842F480221A601A6842F4803260
:102A90001A609FE7FEF7AEFB0546574B1B6813F421
:102AA000003FB7D0FEF7A6FB401B6428F5D90320F2
:102AB0006FE1514B5B6813F4800FBAD14E4B1B682A
:102AC00013F0020F03D0E368012B40F05F814A4A04
:102AD000136823F0F803216943EAC10313602368F4
:102AE00013F0080F49D06369002B33D0434B012208
:102AF000C3F8802EFEF77EFB05463F4B5B6F13F05D
:102B0000020F3AD1FEF776FB401B0228F5D90320CD
:102B10003FE1394B5B6813F4800F90D1CEE7364A22
:102B2000136823F0F803216943EAC1031360D6E771
:102B3000324B00221A60FEF75DFB05462E4B1B68E8
:102B400013F0020FCBD0FEF755FB401B0228F5D93E
:102B500003201EE1294B0022C3F8802EFEF74AFB1A
:102B60000546254B5B6F13F0020F06D0FEF742FBC4
:102B7000401B0228F5D903200BE1236813F0040F52
:102B800076D01D4B1B6C13F0805F33D10023019373
:102B9000194B1A6C42F080521A641B6C03F080537C
:102BA0000193019B0125164B1B6813F4807F29D0EC
:102BB000A368012B3AD0052B3ED00F4B1A6F22F0A1
:102BC00001021A671A6F22F004021A67A368002B29
:102BD0003CD0FEF70FFB0646074B1B6F13F0020FAE
:102BE00045D1FEF707FB801B41F288339842F3D9A9
:102BF0000320CEE00025D6E700380240000047421F
:102C0000007000406B4A136843F480731360FEF752
:102C1000F1FA0646674B1B6813F4807FC8D1FEF7B4
:102C2000E9FA801B0228F5D90320B2E0624A136F4B
:102C300043F001031367C9E75F4B1A6F42F00402C8
:102C40001A671A6F42F001021A67BFE7FEF7D2FA5D
:102C50000646594B1B6F13F0020F08D0FEF7CAFA55
:102C6000801B41F288339842F3D9032091E0EDB9FB
:102C7000A369002B00F08C804F4A926802F00C028E
:102C8000082A54D0022B17D04C4B00221A66FEF7AC
:102C9000B1FA0446484B1B6813F0007F45D0FEF79D
:102CA000A9FA001B0228F5D9032072E0424A136CEE
:102CB00023F080531364DBE7404B00221A66FEF7D3
:102CC00099FA05463C4B1B6813F0007F06D0FEF7CF
:102CD00091FA401B0228F5D903205AE0E369226AE1
:102CE0001343626A43EA8213A26A5208013A43EA32
:102CF0000243E26A43EA0263226B43EA02732E4A0A
:102D000053602E4B01221A66FEF774FA04462A4BD2
:102D10001B6813F0007F06D1FEF76CFA001B022837
:102D2000F5D9032035E0002033E0002031E0012B0D
:102D300031D0214B5B6803F48001E26991422CD1D0
:102D400003F03F02216A8A4229D1616A47F6C072C4
:102D50001A40B2EB811F24D103F44031A26A520819
:102D6000013AB1EB024F1ED103F07062E16AB2EB9F
:102D7000016F1AD103F0E043226BB3EB027F16D14F
:102D8000002006E001207047012002E0012000E061
:102D9000002002B070BD0120FBE70120F9E701200F
:102DA000F7E70120F5E70120F3E70120F1E7012033
:102DB000EFE700BF007000400038024000004742CB
:102DC00038B504460268D36823F0A003D360FEF749
:102DD00011FA05462368DB6813F0200F07D1FEF7D0
:102DE00009FA401BB0F57A7FF4D9032000E00020F7
:102DF00038BD70B50368DA6812F0400F02D00025C4
:102E0000284670BD0446DA6842F08002DA60FEF7B8
:102E1000F1F9064600252368DB6813F0400FEFD177
:102E2000002DEDD1FEF7E6F9831BB3F57A7FF2D9D9
:102E3000042363770125EEE70268D36823F080035B
:102E4000D36003689B6813F0200F01D00020704707
:102E500010B50446FFF7B4FF10B1042363770120D7
:102E600010BD002841D010B50446437FE3B10223D2
:102E700063772368CA225A62236853225A62204623
:102E8000FFF7B7FFA0B158B92268136C23F4802371
:102E900013642268136CA1690B43136401236377E5
:102EA0002368FF225A6210BD037707F02BF8DEE794
:102EB0002268936823F4E00323F0400393602168C1
:102EC0008A686368206903436069034313438B6026
:102ED0002368E2681A6122681369A16843EA014322
:102EE00013612046FFF7A8FFCDE7012070470023BC
:102EF00003E00133DBB20A38C0B20928F9D81B015C
:102F0000DBB218437047037F012B59D070B50446DC
:102F10000E4601230377022343774ABB03689B686D
:102F200013F0400F01D10023CB703078FFF7DFFFA3
:102F300005047078FFF7DBFF45EA0025B078FFF75E
:102F4000D6FF0543F07845EA80552368CA225A62C5
:102F5000236853225A622046FFF74BFFD0B108B9CD
:102F6000012363772368FF225A620023237770BD11
:102F700003689B6813F0400F01D10023CB703378B6
:102F800075782D0245EA0345B0780543F07845EAA7
:102F90008055DAE7236805F07F3525F0FE451D6092
:102FA0002268936823F48023936021688B68F26819
:102FB0003069024313438B602046FFF73DFFCEE7A5
:102FC00002207047037F012B48D070B504460E469F
:102FD00001230377022343773AB94B7813F0100F9C
:102FE00003D003F0EF030A334B7012BBF078FFF706
:102FF0007EFF05047078FFF77AFF45EA0025B07878
:10300000FFF775FF0543307845EA40352368CA224B
:103010005A62236853225A622046FFF7EAFE98B1AB
:1030200008B9012363772368FF225A6200232377BC
:1030300070BDF37875782D0245EA0345B0780543F5
:10304000307845EA4035E1E7236825F07F4525F0F3
:10305000C0055D602046FFF7EFFEE1E70220704704
:10306000030903EB830300F00F0000EB4300C0B241
:10307000704770B503689B6A4B6003681B69C3F3B4
:103080000E038B6003681B68C3F305400870C3F32D
:1030900006264E7003F07F058D70C3F38053CB700E
:1030A0005AB90C46FFF7DCFF20703046FFF7D8FF17
:1030B00060702846FFF7D4FFA070002070BD836BBE
:1030C0001A68D36B43F48073D363704770B582B0D2
:1030D000044600230193006801F0D5FC054610B1B9
:1030E000284602B070BD206801F0C6FF38B9012340
:1030F000A364A36C012B0BD02E46284614E00023BA
:10310000A364206801F0BFFC0028F2D00546E7E781
:103110000021206801F01EFE0028EDD04FF0805500
:10312000DEE7019B01330193019A4FF6FE739A4249
:1031300013D896B90021206801F00CFEE0B91249BD
:10314000206801F0E5FE0646C0B90021206801F0C4
:1031500085FCC30FE5D01E46E3E7019A4FF6FE73E8
:103160009A420ED810F0804302D001236364B7E77F
:10317000002262641D46B3E70546B1E74FF0805573
:10318000AEE74FF08075ABE7000010C1F8B5846A78
:10319000C66AA6B9F8BD386801F03BFC2070C0F3E0
:1031A00007236370C0F30743A370000EE07004347C
:1031B000043E0135072DEED9BC62FE62EAE7074600
:1031C0000025F7E7F0B583B0046A466ADEB903B0BC
:1031D000F0BD23780193627843EA02230193A27839
:1031E00043EA02430193E27843EA02630193043421
:1031F000043E01A9386801F00FFC0135072DE8D91C
:103200003C627E62E3E707460025F7E7F0B589B048
:1032100004460F46FDF7EEFF064600230093019398
:103220000821206801F0ECFC054610B1284609B0E1
:10323000F0BD216D0904206801F08CFD05460028D1
:10324000F4D14FF0FF330293082303933023049308
:1032500002230593002306930123079302A9206804
:1032600001F0FFFB206801F0A5FD054658B1DDE740
:1032700001F0CFFB4DF825000135FDF7BBFF831BA7
:10328000B3F1FF3F3FD02068436B13F02A0F07D103
:10329000436B13F4001FEBD1436B13F4005FECD1CD
:1032A000436B13F0080F25D1436B13F0020F24D1A9
:1032B000456B15F0200523D140F23A538363019A00
:1032C000130203F47F0343EA0263110A01F47F410E
:1032D0000B4343EA12633B60009A130203F47F033B
:1032E00043EA0263110A01F47F410B4343EA12638C
:1032F0007B609BE70825856398E70225856395E752
:103300002025856392E74FF000458FE710B582B026
:103310000446002100910191006801F09FFB10F02C
:10332000007F13D169462046FFF770FF80B9019BEB
:1033300013F4802F0ED0216D0904206801F00AFDDE
:1033400030B90221206801F01DFD01E04FF400605A
:1033500002B010BD4FF08060FAE710B582B00446AD
:10336000002100910191006801F078FB10F0007FCE
:1033700013D169462046FFF749FF80B9019B13F43A
:10338000803F0ED0216D0904206801F0E3FC30B9C4
:103390000021206801F0F6FC01E04FF4006002B06B
:1033A00010BD4FF08060FAE770B581B104460E465B
:1033B000016D0904006801F015FD054608B12846B5
:1033C00070BD0021206801F049FB3060F7E74FF045
:1033D0000065F4E72DE9F04387B0044691B1164645
:1033E0001F460A4690F83450EDB2012D7DD10023DE
:1033F0008363F019E36D98420AD9A36B43F000731D
:10340000A36373E0836B43F00063836301256DE086
:10341000032384F8343021680023CB622068C16B19
:1034200041F49571C163216C3348C863216C334802
:10343000C864216C0B65216C8B60206C01680B6883
:1034400023F0C003806803430B6021684FEA4729DB
:103450004FEA99038031206CFEF738FC804668BB48
:10346000274B0122C3F88C25636C934200D076026F
:103470004FF0FF330093CDF8049090230293022382
:10348000039300230493012305936946206801F008
:10349000E8FA012F22D9822323633146206801F004
:1034A000DFFB38B32368174A9A63A36B1843A06302
:1034B000012384F834300023236317E02268D36BA0
:1034C00023F49573D36323680E4A9A63A36B43F086
:1034D0008043A363012384F8343007E0812323630E
:1034E0003146206801F0A4FBDBE70225284607B03F
:1034F000BDE8F0834546F9E73B360008253B000868
:1035000000802542FF054000F0B587B00446002941
:1035100038D01E460F4690F83450EDB2012D7FD1C1
:10352000002383639319C16D8B4231D8032380F844
:10353000343003680021D9620068C36B43F01A037A
:10354000C363E36B3848D863E36B3848D864E36BF4
:103550001965636C012B00D05202012E1DD9A023E6
:1035600023631146206801F0ABFBE8B12368304AC1
:103570009A63A36B1843A063012384F834300023BB
:1035800023634EE0836B43F000638363012548E0CF
:10359000836B43F00073836343E0902323631146FE
:1035A000206801F075FBE0E7224B0122C3F88C256F
:1035B000E36B40229A60E16B0A68136823F0C00352
:1035C00089680B43136022687602B308803239465B
:1035D000E06BFEF77BFB074688B12268D36B23F0D4
:1035E0001A03D3632368124A9A63A36B43F08043A0
:1035F000A363012384F834300023236311E04FF0E8
:10360000FF330093019690230293002303930493C6
:10361000012305936946206801F023FA3D4600E046
:103620000225284607B0F0BDBF300008253B000842
:10363000FF05400000802542704710B5846B236B66
:10364000822B11D02268D36A23F00803D362236847
:1036500040F23A529A63012384F834300023236302
:10366000204606F0DEF910BD206801F041FB03465C
:103670000028E7D0A26B1343A3632046FFF7DCFFCB
:10368000E0E70000436E9B0F0B70436EC3F3836350
:103690004B7090F8673003F003038B7090F866303E
:1036A000CB7090F865300B7190F864304B71836E7D
:1036B0001B0DCB80B0F86A3003F00F030B72836EE2
:1036C000C3F3C0334B72836EC3F380338B72836E4C
:1036D000C3F34033CB72836EC3F300330B73002309
:1036E0004B73436C002B40F08680826E40F6FC7377
:1036F00003EA8203C26E43EA92730B61C36EC3F3A3
:10370000C2630B7590F86F3003F007034B75C36EFF
:10371000C3F342538B75C36EC3F38243CB75C36E41
:10372000C3F3C2330B760B69013343650A7E02F0A3
:1037300007020232934043650A7A02F00F0C01221D
:1037400002FA0CF28265520A02FB03F3C3654FF4DE
:1037500000730366C36EC3F380334B76C36EC3F34B
:10376000C6138B76C36E03F07F03CB76036FDB0F3C
:103770000B77036FC3F341734B77036FC3F382631C
:103780008B77036FC3F38353CB77036FC3F340533C
:1037900081F82030002381F82130B0F8722002F047
:1037A000010281F82220026FC2F3C03281F8232087
:1037B000026FC2F3803281F82420026FC2F34032DC
:1037C00081F82520026FC2F3003281F82620026FB3
:1037D000C2F3812281F82720026FC2F3012281F80F
:1037E0002820026FC2F3460281F82920012281F8C5
:1037F0002A2018467047012B11D1836E1B0403F455
:103800007C13B0F86E2013430B610B6901339B02EC
:103810004365C3654FF40073836503669AE70368E5
:10382000054A9A63836B43F080538363012380F8D6
:1038300034301846704700BFFF05400070B590B0A7
:1038400004460123ADF81230006801F0EEF80028BC
:103850006CD0636C032B45D1636C032B5DD1636C1F
:10386000032B1DD0BDF8121021650904206801F05A
:1038700014FB054600285BD10021206801F0EEF81A
:1038800060660421206801F0E9F8A066082120683C
:1038900001F0E4F8E0660C21206801F0DFF8206711
:1038A0000421206801F0DAF8000DE06405A9204643
:1038B000FFF7E8FE00283ED1226D120400232068A5
:1038C00001F030FA054698BB234653F8106B93E895
:1038D00007008DE80700043494E80E00304601F03C
:1038E0007FF825E0206801F0C3FA054600BB0021FF
:1038F000206801F0B3F860670421206801F0AEF899
:10390000A0670821206801F0A9F8E0670C21206871
:1039100001F0A4F8C4F880009EE70DF112012068C0
:1039200001F060FB0546002899D001E04FF080656A
:10393000284610B070BD4FF08055F9E770B58AB0D9
:103940000446002304930593069307930893762374
:1039500009930AAB13E907008DE8070004AB0ECB0F
:10396000206801F03DF818B1012528460AB070BD65
:1039700005461A4E0023C6F8A030206801F051F821
:103980000123C6F8A0300220FDF73AFC2046FFF7DD
:103990009DFB30B1012584F83450A36B0343A3632E
:1039A000E3E72046FFF74AFF30B1012584F83450A1
:1039B000A36B0343A363D8E74FF40071206801F0C1
:1039C0001FF90028D1D0236805499963A36B0343ED
:1039D000A363012584F83450C7E700BF0080254267
:1039E000FF054000A8B110B5044690F8343063B12B
:1039F000032384F834302046FFF7A0FF58B9A063B2
:103A00002063012384F8343010BD037706F0AAFD4B
:103A1000EEE7012070470120F6E7436C0B60836CF2
:103A20004B60C36C8B60036DCB60436D0B61836D2A
:103A30004B61C36D8B61036ECB610020704700004A
:103A400030B58BB004460D46032380F83430436C08
:103A5000032B1CD0B1F5805F08D0B1F5006F0AD000
:103A600079B1836B43F00063836314E0836B43F0AD
:103A7000805383630FE0FFF749FCA36B0343A36309
:103A800009E0FFF76AFCA36B0343A36303E0836BC6
:103A900043F080538363A36BC3B12368174A9A63CF
:103AA000012584F834504FF40071206801F0A8F823
:103AB00030B1236811499963A36B0343A3630125C4
:103AC000012384F8343028460BB030BD636804937A
:103AD000A3680593E3680693079563690893A36950
:103AE00009930AAB13E907008DE8070004AB0ECB7E
:103AF000206800F075FF0025D5E700BFFF054000F6
:103B000010B582B004460023019301A9FFF74CFCD5
:103B100010B1A36B0343A3630198C0F3432002B029
:103B200010BD000010B5846BFEF706FA02280AD01B
:103B3000236C5B6DE26B526D012B05D0012A03D023
:103B40002046FFF779FD10BD23680F4A9A6322686B
:103B5000D36B23F49D73D363A36B43F08043A363C0
:103B60002046FFF7CDFF0538012805D9012384F849
:103B7000343000232363E3E7206801F0B9F8A36B36
:103B80000343A363F2E700BFFF05400010B5846B59
:103B9000236840F23A529A632046FFF7B1FF0123AF
:103BA00084F83430002323630538012805D9A36B3A
:103BB00053B9204605F02DFF10BD206801F098F89C
:103BC000A36B0343A363F2E72046FFF735FDF3E75A
:103BD00010B5846B236840F23A529A632046FFF78F
:103BE0008FFF012384F83430002323630538012834
:103BF00005D9A36B53B9204605F00BFF10BD206813
:103C000001F076F8A36B0343A363F2E72046FFF7C6
:103C100013FDF3E738B50446056B03685A6B12F4DD
:103C2000004F02D015F0080F28D15A6B12F4807F94
:103C30005AD04FF480729A632268D36B23F44143C5
:103C400023F03A03D3632268D36A23F00103D362DB
:103C500015F0080F26D015F0220F12D1236840F27C
:103C60003A529A63012384F834300023236315F019
:103C7000030F13D0204605F0D4FE01E0FFF786FACB
:103C800038BD206801F034F803460028E6D0A26B66
:103C90001343A3632046FFF7CFFCDFE7204605F080
:103CA000BCFEEDE715F0800FEAD015F0200F0ED125
:103CB00015F0030FE4D12268D36A23F00803D3621E
:103CC000012384F83430204605F0A7FED8E72068A9
:103CD00001F00EF803460028EAD0A26B1343A36359
:103CE0002046FFF7A9FCE3E75A6B12F4804F02D09D
:103CF00015F0080F4AD15A6B12F03A0FC0D05A6B28
:103D000012F0020F03D0A26B42F00202A2635A6BC0
:103D100012F0080F03D0A26B42F00802A2635A6BA4
:103D200012F0200F03D0A26B42F02002A2635A6B64
:103D300012F0100F03D0A26B42F01002A26340F207
:103D40003A529A632268D36B23F49D73D36320683D
:103D500000F0CEFFA36B0343A36315F0080F19D146
:103D600015F0800F8CD015F0300F1CD115F0030F1B
:103D700026D0236C174A1A65206CFDF7DCFF00285B
:103D80003FF47EAF206CFFF723FF79E72046FFF773
:103D900019FA75E7012384F83430002323632046A1
:103DA000FFF74AFC6CE7E36B0B4A1A65E06BFDF723
:103DB000C2FF00283FF464AFE06BFFF7E7FE5FE768
:103DC0000023A363012284F834202363204605F0F6
:103DD00020FE55E7D13B00088D3B000810B4036A74
:103DE000046A24F001040462846924F0F00C4CEAB3
:103DF000021223F00A030B43826103625DF8044B55
:103E0000704730B4046A24F0100404628469056ABF
:103E100024F4407C4CEA022C2CF4704C1B039BB223
:103E200043EA0C0325F0A005090101F0A001294394
:103E30008361016230BC704710B4046A24F010043E
:103E400004628469036A24F4704C4CEA023223F061
:103E5000A00343EA0113826103625DF8044B7047DB
:103E600030B4046A24F480740462C469056A24F0DE
:103E7000030C4CEA020C2CF0F00C1B01DBB243EA01
:103E80000C0325F42065090201F420612943C36174
:103E9000016230BC704730B4046A24F48054046278
:103EA000C469056A24F4407C4CEA022C2CF4704C62
:103EB0001B039BB243EA0C0325F42045090301F4DC
:103EC00020412943C361016230BC7047836823F0FD
:103ED00070030B4343F007038360704790F83D3055
:103EE000DBB2012B37D1022380F83D300268D36862
:103EF00043F00103D3600368194A934220D0B3F121
:103F0000804F1DD0A2F57C42934219D002F5806209
:103F1000934215D002F58062934211D002F57842A7
:103F200093420DD002F57052934209D0A2F594321B
:103F3000934205D01A6842F001021A6000207047CF
:103F40009A6802F00702062A07D01A6842F00102B6
:103F50001A6000207047012070470020704700BFA2
:103F60000000014070477047704710B50446036871
:103F70001A6912F0020F11D0DA6812F0020F0DD098
:103F80006FF002021A610123037703689B6913F043
:103F9000030F70D007F06EF90023237723681A69A6
:103FA00012F0040F12D0DA6812F0040F0ED06FF086
:103FB00004021A610223237723689B6913F4407F6C
:103FC0005FD0204607F056F90023237723681A694B
:103FD00012F0080F12D0DA6812F0080F0ED06FF04E
:103FE00008021A61042323772368DB6913F0030FA7
:103FF0004ED0204607F03EF90023237723681A6944
:1040000012F0100F12D0DA6812F0100F0ED06FF00D
:1040100010021A61082323772368DB6913F4407FB9
:104020003DD0204607F026F90023237723681A693C
:1040300012F0010F03D0DA6812F0010F36D12368B5
:104040001A6912F0800F03D0DA6812F0800F34D1B1
:1040500023681A6912F0400F03D0DA6812F0400F9B
:1040600032D123681A6912F0200F03D0DA6812F0F7
:10407000200F30D110BDFFF775FF2046FFF773FF0B
:104080008AE72046FFF76EFF2046FFF76CFF9BE7AD
:104090002046FFF767FF2046FFF765FFACE72046A5
:1040A000FFF760FF2046FFF75EFFBDE76FF00102FC
:1040B0001A61204605F0B6FEC1E76FF080021A6172
:1040C000204600F008FBC3E76FF040021A6120466B
:1040D000FFF74AFFC5E76FF020021A61204600F0A3
:1040E000F9FAC7E70368304A904212D0B0F1804F26
:1040F0000FD0A2F57C4290420BD002F58062904234
:1041000007D002F58062904203D002F578429042D7
:1041100003D123F070034A681343234A90422AD004
:10412000B0F1804F27D0A2F57C42904223D002F517
:10413000806290421FD002F5806290421BD002F54F
:104140007842904217D002F57052904213D002F597
:10415000806290420FD002F5806290420BD0A2F5AF
:104160009832904207D002F58062904203D002F567
:104170008062904203D123F44073CA68134323F052
:1041800080034A69134303608B68C3620B688362D0
:10419000054B984203D003F58063984201D10B6927
:1041A00003630123436170470000014040B310B531
:1041B000044690F83D30F3B1022384F83D302146A7
:1041C00051F8040BFFF78EFF012384F8463084F882
:1041D0003E3084F83F3084F8403084F8413084F831
:1041E000423084F8433084F8443084F8453084F811
:1041F0003D30002010BD80F83C3006F0EDFDDBE7DF
:104200000120704740B310B5044690F83D30F3B13B
:10421000022384F83D30214651F8040BFFF762FF7A
:10422000012384F8463084F83E3084F83F3084F827
:10423000403084F8413084F8423084F8433084F8C8
:10424000443084F8453084F83D30002010BD80F8BB
:104250003C3006F047FEDBE70120704770B494461F
:10426000046A24F0010404628469066A184DA842B5
:104270001CD0B0F1804F19D0164A904216D002F5EA
:104280008062904212D002F5806290420ED002F518
:10429000784290420AD002F57052904206D0A2F5C0
:1042A0009432904202D044F0010203E024F0030271
:1042B00042EA0C0222F0F0021B01DBB2134326F0AB
:1042C0000A0201F00A0111438361016270BC704768
:1042D000000001400004004038B590F83C30012B4C
:1042E0005AD004460D46012380F83C3052B1042ACE
:1042F0001AD0082A2BD00C2A3BD00120002384F8A6
:104300003C3038BDCB684A6809680068FFF7A6FFF3
:104310002268936923F00C03936122689369A9686A
:104320000B4393610020E9E7CB684A68096800689D
:10433000FFF767FD2268936923F440639361226865
:104340009369A96843EA012393610020D6E7CB680B
:104350004A6809680068FFF783FD2268D36923F083
:104360000C03D3612268D369A9680B43D361002091
:10437000C4E7CB684A6809680068FFF78CFD2268CB
:10438000D36923F44063D3612268D369A96843EAFF
:104390000123D3610020B1E70220B2E710B48468A2
:1043A00024F47F4C42EA03220A4342EA0C02826070
:1043B0005DF8044B704790F83C30012B78D010B575
:1043C0000446012380F83C30022380F83D30026827
:1043D000936823F47F4323F0770393600B68602B8B
:1043E0004CD029D8402B54D00CD9502B22D1CA689C
:1043F00049680068FFF7F2FC50212068FFF766FD6E
:10440000002005E0202B0DD009D9302B0AD0012047
:10441000012384F83D30002384F83C3010BD0BB1FB
:10442000102B05D119462068FFF750FD0020EFE75B
:104430000120EDE70120EBE7B3F5805F34D0B3F561
:10444000005F0CD1CB684A6889680068FFF7A6FF57
:104450002268936843F4804393600020D8E7702B70
:1044600024D1CB684A6889680068FFF797FF226803
:10447000936843F0770393600020C9E7CA684968EE
:104480000068FFF7D9FC60212068FFF71FFD0020BE
:10449000BEE7CA6849680068FFF7A0FC40212068B1
:1044A000FFF714FD0020B3E70020B1E70120AFE7DC
:1044B0000220704701F01F01012303FA01FC036A87
:1044C00023EA0C030362036A02FA01F10B4303625D
:1044D0007047000010B504460B4609BB90F83E003B
:1044E000C0B26BBB94F84220D2B2012840F0A48045
:1044F000012A40F0A2809BBB022184F83E10002BD1
:104500003ED1022184F842100C2B00F29780DFE8A4
:1045100003F047959595769595957C9595958200B0
:10452000042905D0082907D090F84100C0B2D8E787
:1045300090F83F00C0B2D4E790F84000C0B2D0E796
:10454000042B05D0082B07D094F84520D2B2CCE735
:1045500094F84320D2B2C8E794F84420D2B2C4E71A
:10456000042B05D0082B07D0022184F84110C6E7A0
:10457000022184F83F10C2E7022184F84010BEE710
:10458000042B05D0082B07D0022184F84510BBE787
:10459000022184F84310B7E7022184F84410B3E7FE
:1045A0002168CA6842F00202CA60012219462068E6
:1045B000FFF780FF2368234A934232D0B3F1804F44
:1045C0002FD0A2F57C4293422BD002F58062934219
:1045D00027D002F58062934223D002F578429342BD
:1045E0001FD002F5705293421BD0A2F59432934231
:1045F00017D01A6842F001021A6000201DE02168FD
:10460000CA6842F00402CA60CFE72168CA6842F073
:104610000802CA60C9E72168CA6842F01002CA608D
:10462000C3E79A6802F00702062A09D01A6842F026
:1046300001021A60002000E0012010BD1046FCE7D6
:104640000020FAE70000014090F83C30012B3DD0FB
:1046500010B4012380F83C30022380F83D30036819
:104660005A689C6822F0700C0A6842EA0C025A6090
:104670000368174A93421AD0B3F1804F17D0A2F5BE
:104680007C42934213D002F5806293420FD002F530
:10469000806293420BD002F57842934207D002F534
:1046A0007052934203D0A2F59432934204D124F085
:1046B00080044A6814439C60012380F83D30002345
:1046C00080F83C3018465DF8044B70470220704774
:1046D000000001407047704738B50446026813690E
:1046E00023F44053C1680B43136183680269134389
:1046F00042691343C2691A430168CB6823F4164325
:1047000023F00C031343CB600268536923F4407316
:1047100081690B4353610368314A934206D002F525
:104720008062934202D0FDF7F1FD01E0FDF7FEFD4E
:10473000E369B3F5004F29D00021031849411B1844
:1047400041F10001C90041EA5371DB0018186368A8
:104750004FEA83024FEA937341F10001FCF7A2FB99
:10476000204DA5FB00325109642303FB11031B01FB
:104770003233A5FB03235B0903F0F00202EB0112C5
:1047800003F00F03216813448B6038BD0023021827
:1047900043EB0301121841F10001C90041EA5271D3
:1047A000D200101841F10001626892185B41FCF7D9
:1047B00079FB0C4DA5FB00325109642303FB110367
:1047C000DB003233A5FB03235B095A0002F4F872C5
:1047D00002EB011203F00703216813448B60D4E756
:1047E000001001401F85EB512DE9F84305460F46A7
:1047F00016469946DDF820802C68246837EA0403C1
:104800000CBF4FF0010C4FF0000CB4452DD1B8F1A6
:10481000FF3FF1D0B8F1000F05D0FCF7EBFCA0EBA7
:1048200009004045E8D92A6802F10C0353E8003F2B
:1048300023F4D0730C3242E800310029F3D12A6806
:1048400002F1140353E8003F23F00103143242E85D
:1048500000310029F3D1202385F83D3085F83E3022
:10486000002385F83C30032000E00020BDE8F883F9
:1048700058B310B5044690F83D300BB3242384F8A8
:104880003D302268D36823F40053D3602046FFF7FD
:1048900023FF2268136923F490431361226853694C
:1048A00023F02A0353612268D36843F40053D36092
:1048B00000202064202384F83D3084F83E3010BD71
:1048C00080F83C3006F0B6FBD8E7012070472DE9B0
:1048D000F04182B01E4690F83D30DBB2202B54D11F
:1048E00004460D469046002953D0002A53D090F834
:1048F0003C30012B51D0012380F83C30002303646D
:10490000212380F83D30FCF775FC0746A4F824808D
:10491000A4F82680A368B3F5805F05D04FF00008A7
:10492000002384F83C3012E0236913B14FF00008F3
:10493000F6E7A8460025F3E738F8023B2268C3F300
:1049400008035360E28C92B2013A92B2E284E38CA3
:104950009BB273B100963B46002280212046FFF7B0
:1049600043FFE0B9002DE7D015F8012B23685A600A
:10497000E8E700963B46002240212046FFF734FF3F
:1049800078B9202384F83D3000E0022002B0BDE871
:10499000F0810120FAE70120F8E70220F6E7032082
:1049A000F4E70320F2E700000B4B1B680B4AA2FB65
:1049B00003235B0A41F2883202FB03F31A46013BF0
:1049C0003AB1426B12F0800FF8D0C5238363002008
:1049D00070474FF00040704720000020D34D621018
:1049E00084B00DF1040C8CE80E000B461343039ABF
:1049F0001343049A1343059A1343069A13434268D8
:104A000022F4FD4222F07F0213434360002004B0F1
:104A10007047D0F8800070470B68C0F880300020E5
:104A200070470323036000207047006800F0030014
:104A300070470B6883604B688A681343CA681343E6
:104A40000A691343C26822F47F6222F00F02134303
:104A5000C360002070470069C0B2704714304058EE
:104A600070470B6843624B6883628B68CA68134364
:104A70000A6913434A691343C26A22F0F7021343D7
:104A8000C3620020704710B586B00446002301932E
:104A90000293039304934FF48063059301A9FFF7F6
:104AA000C8FF2046FFF780FF06B010BD38B50446AA
:104AB0000D46504B1B685049A1FB03135B0A03FBD7
:104AC00002F21346013A002B5DD0636B13F0450FE1
:104AD000F7D013F4006FF4D1636B13F0040F06D119
:104AE000636B13F0010F05D00120A0634DE004209B
:104AF000A0634AE0C523A3632046FFF7ACFFA842AA
:104B000001D0012041E000212046FFF7A7FF034626
:104B10003A481840C8B3002B38DB13F0804F38D127
:104B200013F0005F37D113F0805F36D113F0006FC0
:104B300036D113F0806F36D113F0807F36D113F465
:104B4000000F36D113F4800F36D113F4001F36D185
:104B500013F4801F36D113F4802F36D113F4003FA5
:104B600036D113F4803F36D113F4004F36D113F40D
:104B7000804F36D113F4005F36D113F0080F36D0D2
:104B80004FF4000001E04FF0004038BD4FF00070DE
:104B9000FBE74020F9E78020F7E74FF48070F4E767
:104BA0004FF40070F1E74FF48060EEE74FF40060DF
:104BB000EBE74FF48050E8E74FF40050E5E74FF49F
:104BC0008040E2E74FF40040DFE74FF40030DCE7DD
:104BD0004FF48020D9E74FF40020D6E74FF480103F
:104BE000D3E74FF40010D0E74FF48000CDE74FF447
:104BF0008030CAE720000020D34D621008E0FFFD9E
:104C000030B587B0044601911025029540230393E7
:104C1000002304934FF48063059301A9FFF709FF74
:104C200041F2883229462046FFF740FF07B030BDE9
:104C300030B587B0044601911125029540230393B6
:104C4000002304934FF48063059301A9FFF7F1FE5D
:104C500041F2883229462046FFF728FF07B030BDD1
:104C600030B587B004460191122502954023039385
:104C7000002304934FF48063059301A9FFF7D9FE45
:104C800041F2883229462046FFF710FF07B030BDB9
:104C900030B587B00446019118250295402303934F
:104CA000002304934FF48063059301A9FFF7C1FE2D
:104CB00041F2883229462046FFF7F8FE07B030BDA2
:104CC00030B587B00446019119250295402303931E
:104CD000002304934FF48063059301A9FFF7A9FE15
:104CE00041F2883229462046FFF7E0FE07B030BD8A
:104CF00030B587B00446002301930C25029540226D
:104D0000039204934FF48063059301A9FFF791FE8A
:104D1000034A29462046FFF7C9FE07B030BD00BF51
:104D200000E1F50530B587B00446019207250295EC
:104D300040230393002304934FF48063059301A958
:104D4000FFF777FE41F2883229462046FFF7AEFE94
:104D500007B030BD30B587B00446019137250295C4
:104D600040230393002304934FF48063059301A928
:104D7000FFF75FFE41F2883229462046FFF796FE94
:104D800007B030BD30B587B00446019106250295C5
:104D900040230393002304934FF48063059301A9F8
:104DA000FFF747FE41F2883229462046FFF77EFE94
:104DB00007B030BD30B587B00446002301933325DA
:104DC00002954022039204934FF48063059301A956
:104DD000FFF72FFE41F2883229462046FFF766FE94
:104DE00007B030BD30B587B0044601910D2502955E
:104DF00040230393002304934FF48063059301A998
:104E0000FFF717FE41F2883229462046FFF74EFE93
:104E100007B030BD0146144B1B68144AA2FB0323A4
:104E20005B0A41F2883202FB03F31A46013BBAB136
:104E30004A6B12F0450FF8D012F4006FF5D14B6BAE
:104E400013F0040F06D1486B10F0010005D1C52303
:104E50008B63704704208863704701208863704724
:104E60004FF00040704700BF20000020D34D62107B
:104E700010B586B004460023019302220292C0229C
:104E8000039204934FF48063059301A9FFF7D1FDCA
:104E90002046FFF7BFFF06B010BD10B586B0044630
:104EA000019109230293C0230393002304934FF439
:104EB0008063059301A9FFF7BCFD2046FFF7AAFF19
:104EC00006B010BD0146104B1B68104AA2FB03231D
:104ED0005B0A41F2883202FB03F31A46013B82B1BE
:104EE0004A6B12F0450FF8D012F4006FF5D1486B01
:104EF00010F0040002D1C5238B637047042088633F
:104F000070474FF00040704720000020D34D6210E2
:104F100010B586B0044641F0004141F48011019182
:104F20002923029340230393002304934FF48063C7
:104F3000059301A9FFF77DFD2046FFF7C3FF06B0EB
:104F400010BD0000F8B505460E461746234B1B68FA
:104F5000234AA2FB03235B0A41F2883202FB03F3DC
:104F60001A46013B8AB36C6B14F0450FF8D014F469
:104F7000006FF5D16B6B13F0040F06D16B6B13F060
:104F8000010F05D00120A86321E00420A8631EE0E2
:104F90002846FFF760FDB04201D0012017E0C5238D
:104FA000AB6300212846FFF759FD034610F460402B
:104FB00008D013F4804F0BD113F4004F0BD04FF4F3
:104FC000805004E01B0C3B8001E04FF00040F8BD36
:104FD0004FF40050FBE74FF48030F8E7200000204A
:104FE000D34D621070B586B004460D460023019380
:104FF000032602964022039204934FF480630593A4
:1050000001A9FFF716FD2A4631462046FFF79AFF11
:1050100006B070BD0146164B1B68164AA2FB03235F
:105020005B0A41F2883202FB03F31A46013BE2B10C
:105030004A6B12F0450FF8D012F4006FF5D14B6BAC
:1050400013F0040F0BD14B6B13F001030AD1486B23
:1050500010F040000BD040228A63184670470420AD
:10506000886370470120886370474FF000407047A5
:1050700020000020D34D621010B586B004464FF4D6
:10508000D5730193082302934023039300230493D1
:105090004FF48063059301A9FFF7CBFC2046FFF78F
:1050A000B9FF06B010BD000008B5044B03EB800249
:1050B000526852680344187A904708BD40020020A5
:1050C00008B5084B1B5C53B9064B01221A5403EB7D
:1050D0008002526812681844007A904708BD002088
:1050E000FCE700BF4002002038B5044C04EB80050B
:1050F0006D68AD680444207AA84738BD400200209E
:1051000038B5044C04EB80056D68ED680444207AE2
:10511000A84738BD4002002010B5044B03EB8004C3
:10512000646824690344187AA04710BD4002002037
:105130004278007840EA02207047C278837843EAD8
:105140000222437843EA0223007840EA03207047B2
:105150000170090A417070470170C1F30723437061
:10516000C1F307438370090EC1707047944632B192
:105170000A78013102700130BCF1010CF8D170479E
:1051800001700130013AFBD1704784469CF8000061
:105190000CF1010C0B780131C01A013A01D0002842
:1051A000F4D07047034600E00133187808B1884214
:1051B000FAD1704730B400252B4601E001250133B8
:1051C000012B15D81A01174CA258002AF6D00468F2
:1051D000A242F4D1134A02EB03125468826894424B
:1051E000EDD1104A02EB0312946842699442E6D171
:1051F000022B0AD0A1B90B4A02EB03139B89B3F52A
:10520000807F0BD0002030BC70472DB9022901D01F
:105210001220F8E70020F6E70020F4E71020F2E77C
:105220001020F0E718020020002000E001300128E3
:1052300004D80301034AD358002BF7D1023818BF12
:10524000012070471802002070B4002300E00133F1
:10525000012B13D81A01244CA45802689442F6D1A9
:10526000214A02EB0312546882689442EFD11E4A2D
:1052700002EB0312946842699442E8D1022B0DD0EC
:1052800021B1194A02EB0312928952BBF1B9164AB5
:1052900002EB03129189013189B219E00023012B3D
:1052A00005D81A01104CA2580AB10133F7E7022BB6
:1052B00015D00D4D1C0105EB031206682E518468B4
:1052C00054604069906000209081D9E74FF480716C
:1052D000054A02EB03129181581C70BC70470020F4
:1052E000FBE70020F9E700BF180200200138012881
:1052F00015D80D4B03EB00139B89B3F5807F03D0CA
:105300001BB1013B9BB200E00023074A02EB0012F5
:10531000938133B903010020034AD0507047022023
:1053200070470020704700BF18020020002303E0F0
:105330005DF8044B70470133012B11D81A0109495C
:105340008A588242F7D110B41A0100248C500133DC
:10535000012BEDD81A0103498A588242F7D1F3E7AD
:10536000704700BF180200200239036A023B8B42DB
:1053700004D94389406B01FB03007047002070474C
:105380000268C36A0433490A5289B1FBF2F101E0B1
:10539000091A0833186818B18142F9D258680844CC
:1053A000704770B506460D4601F11A00FFF7C0FEC2
:1053B0003378032B00D070BD044605F11400FFF7CD
:1053C000B7FE44EA0040F6E770B506460C461546BF
:1053D00091B204F11A00FFF7BBFE3378032B00D023
:1053E00070BD290C04F11400FFF7B2FEF8E70000CD
:1053F0002DE9F84380460F4691464B730F23CB723D
:1054000000240C73214607F11A00FFF7A1FE09F1F1
:10541000FF3606EB460306EB8306254602E0013421
:105420000C2C11D84FF6FF739D4202D038F816505D
:1054300001360C4B185D29463844FFF789FE002DD4
:10544000EDD14FF6FF75EAE74FF6FF739D4202D0AC
:1054500038F816300BB949F0400987F80090BDE8DC
:10546000F88300BF70F5000870B582B00546164697
:105470001C460B22FFF77AFE052C11D807231FE0EC
:1054800001310F290CD803F0010C0CEB44045B082C
:1054900014F4803FF4D084F4883484F02104EFE7DE
:1054A0003388002BEAD002360021EAE75A1E08337F
:1054B0006B4403F8081C21090F2C0AD913460C462B
:1054C00004F00F0202F130013929EFD902F137015E
:1054D000ECE77E2102F108036B4403F8081C00236B
:1054E00000E00133934209D2E95C2029F9D105E0BB
:1054F0002020591CE854072909D80B46072AF7D859
:1055000002F10801694411F8080C0132F1E702B018
:1055100070BD01464FF00B0C0020C30143EA50035D
:105520000878013150FA83F3D8B2BCF1010CF4D100
:1055300070470146006838B1024613781F2B06D920
:105540003A2B04D00132F8E74FF0FF3070473A2B86
:1055500001D00020704710B4034613F8010B303817
:10556000092808D89A4202D04FF0FF3005E038B938
:1055700001320A6001E04FF0FF305DF8044B7047E4
:105580004FF0FF30F9E7016000234360836070470C
:1055900030B108B5006901F078FF00B1012008BD05
:1055A000002070472DE9F041C57815B92846BDE8BF
:1055B000F0810446876B00F13C0801233A464146DE
:1055C0004078FFF79DFD0546A0B90023E370E36A2C
:1055D000FB1A626A9342E9D2A67808E0636A1F4424
:1055E00001233A4641466078FFF78AFD013E012ECD
:1055F000F4D8DBE70125D9E770B5836B8B4202D184
:105600000026304670BD04460D46FFF7CBFF064628
:105610000028F6D101232A4604F13C016078FFF707
:1056200063FD10B101264FF0FF35A563E9E70000E7
:1056300038B504460023C3704FF0FF338363FFF790
:10564000DBFF30BB054604F23A20FFF771FD4AF656
:10565000552398421FD194F83C30E92B07D0E36BD7
:1056600003F0FF130D4A934201D0022514E004F128
:105670007200FFF762FD20F07F40094B98420BD08B
:1056800004F18E00FFF759FD064B984204D0022525
:1056900002E0042500E00325284638BDEB00900019
:1056A00046415400464154332DE9F04F85B00E4633
:1056B000174600230B60FFF73CFF041EC0F24D812C
:1056C000BA4B03EB84031D6A002D00F04881284685
:1056D000FFF75EFF002800F04781356007F0FE0706
:1056E0002B7873B16878FFF7DFFC10F0010608D162
:1056F000002F00F0358110F0040F00F031810A26F0
:105700002EE100232B70E0B26870FFF7D9FC10F097
:10571000010640F02B811FB110F0040F40F02881EA
:1057200000212846FFF784FF022800F0B8800027F8
:10573000042800F01F81012800F21E8105F14700B6
:10574000FFF7F6FCB0F5007F40F0188105F152003C
:10575000FFF7EEFC044620B905F16000FFF7EDFC11
:1057600004466C6295F84C20AA70531EDBB2012BE4
:1057700000F2068104FB02F895F84990A5F80A901A
:10578000B9F1000F00F0FE8009F1FF3319EA030FB1
:1057900040F0FA8005F14D00FFF7CAFC82462881EF
:1057A00010F00F0F40F0F28005F14F00FFF7C0FC42
:1057B000834620B905F15C00FFF7BFFC834605F185
:1057C0004A00FFF7B5FC0246002800F0E18000EB3C
:1057D000080303EB1A139B45C0F0DC80ABEB030B13
:1057E000BBFBF9F1CB45C0F0D7804FF6F570814295
:1057F0006DD94FF0030B40F6F570814201D84FF0A0
:10580000010B01F10209C5F82090AF623A44EA6247
:105810003B446B63BBF1030F5CD0BAF1000F00F0A7
:10582000C18042442A63BBF1020F64D009EB4903F3
:1058300009F0010909EB530909F2FF13B4EB532FE7
:10584000C0F0B2804FF0FF33AB616B6180232B71EE
:10585000BBF1030F52D085F800B0544A938C01334A
:105860009BB29384EB800023EB612846FFF75EFD3B
:1058700076E0002004AB03EB840343F8100C013402
:10588000032C0ED805F13C00230103F5DF73184407
:105890000379002BEDD00830FFF74FFCEAE7002436
:1058A000EEE700240AE039462846FFF7C1FE01284A
:1058B0007FF63EAF0134032C3FF63AAF04AB03EB67
:1058C000840353F8107C002FEDD10320F2E74FF052
:1058D000020B90E705F16600FFF72AFC00285DD176
:1058E000BAF1000F5CD105F16800FFF726FC2863D0
:1058F0004FEA8909A0E74FEA49099DE705F16C00E5
:10590000FFF716FC0128A6D1791C2846FFF774FE84
:105910000028A0D100232B7105F23A20FFF708FCE4
:105920004AF65523984296D105F13C00FFF705FC55
:105930001F4B98428FD105F50870FFF7FEFB1D4BFA
:10594000984288D105F50970FFF7F7FBA86105F5C6
:105950000A70FFF7F2FB68617DE70B2600E00C267A
:10596000304605B0BDE8F08F0F26F9E70326F7E7CC
:105970000A26F5E70126F3E70D26F1E70D26EFE706
:105980000D26EDE70D26EBE70D26E9E70D26E7E707
:105990000D26E5E70D26E3E70D26E1E70D26DFE717
:1059A0000D26DDE70D26DBE70D26D9E718020020DE
:1059B00052526141727241612DE9F04701297ED94D
:1059C00007460C461646036A8B427AD90378022BA7
:1059D00045D0032B57D0012B03D002252846BDE824
:1059E000F08701EB5108C16A01EB5821FFF704FE73
:1059F00005460028F2D107F13C0A08F10109C8F375
:105A0000080814F001041FD01AF9083003F00F033E
:105A1000320102F47F621343DBB20AF8083001233B
:105A2000FB70F96A01EB59213846FFF7E5FD0546A1
:105A30000028D3D1C9F3080944B1C6F307120AF804
:105A400009200123FB70C9E7F3B2E6E71AF9092040
:105A500022F00F02C6F303263243D2B2EFE7C16A47
:105A600001EB1421FFF7C8FD05460028B6D107F168
:105A70003C00640004F4FF74B1B22044FFF768FBFB
:105A80000123FB70AAE7C16A01EBD411FFF7B4FD53
:105A900005460028A2D126F0704607F13C03A40079
:105AA00004F4FE741C442046FFF747FB00F07041ED
:105AB00031432046FFF750FB0123FB708EE70225A0
:105AC0008CE702258AE7F8B50568012956D90C4606
:105AD0002B6A8B4254D92B78022B2DD0032B3BD031
